{
  "contractName": "BondMarket",
  "abi": [
    {
      "inputs": [
        {
          "internalType": "address",
          "name": "_bondTokenAddress",
          "type": "address"
        },
        {
          "internalType": "address",
          "name": "_daiAddress",
          "type": "address"
        }
      ],
      "stateMutability": "nonpayable",
      "type": "constructor"
    },
    {
      "inputs": [
        {
          "internalType": "uint256",
          "name": "salePrice",
          "type": "uint256"
        },
        {
          "internalType": "uint256",
          "name": "balance",
          "type": "uint256"
        }
      ],
      "name": "InsufficientBalance",
      "type": "error"
    },
    {
      "anonymous": false,
      "inputs": [
        {
          "indexed": true,
          "internalType": "address",
          "name": "issuer",
          "type": "address"
        },
        {
          "indexed": true,
          "internalType": "uint256",
          "name": "bondId",
          "type": "uint256"
        },
        {
          "indexed": false,
          "internalType": "uint256",
          "name": "issueDate",
          "type": "uint256"
        },
        {
          "indexed": false,
          "internalType": "bytes32",
          "name": "_name",
          "type": "bytes32"
        },
        {
          "indexed": false,
          "internalType": "uint256",
          "name": "issuePrice",
          "type": "uint256"
        },
        {
          "indexed": false,
          "internalType": "uint256",
          "name": "couponRate",
          "type": "uint256"
        },
        {
          "indexed": false,
          "internalType": "uint256",
          "name": "couponInterval",
          "type": "uint256"
        },
        {
          "indexed": false,
          "internalType": "uint256",
          "name": "maturityDate",
          "type": "uint256"
        },
        {
          "indexed": false,
          "internalType": "uint256",
          "name": "faceValue",
          "type": "uint256"
        }
      ],
      "name": "BondIssued",
      "type": "event"
    },
    {
      "anonymous": false,
      "inputs": [
        {
          "indexed": true,
          "internalType": "uint256",
          "name": "bondId",
          "type": "uint256"
        },
        {
          "indexed": false,
          "internalType": "address",
          "name": "from",
          "type": "address"
        },
        {
          "indexed": false,
          "internalType": "address",
          "name": "to",
          "type": "address"
        },
        {
          "indexed": false,
          "internalType": "uint256",
          "name": "maturityDate",
          "type": "uint256"
        },
        {
          "indexed": false,
          "internalType": "uint256",
          "name": "faceValue",
          "type": "uint256"
        }
      ],
      "name": "BondMatured",
      "type": "event"
    },
    {
      "anonymous": false,
      "inputs": [
        {
          "indexed": true,
          "internalType": "uint256",
          "name": "bondId",
          "type": "uint256"
        },
        {
          "indexed": false,
          "internalType": "address",
          "name": "from",
          "type": "address"
        },
        {
          "indexed": false,
          "internalType": "address",
          "name": "to",
          "type": "address"
        },
        {
          "indexed": false,
          "internalType": "uint256",
          "name": "salePrice",
          "type": "uint256"
        }
      ],
      "name": "BondSold",
      "type": "event"
    },
    {
      "anonymous": false,
      "inputs": [
        {
          "indexed": true,
          "internalType": "uint256",
          "name": "bondId",
          "type": "uint256"
        },
        {
          "indexed": false,
          "internalType": "address",
          "name": "from",
          "type": "address"
        },
        {
          "indexed": false,
          "internalType": "address",
          "name": "to",
          "type": "address"
        },
        {
          "indexed": false,
          "internalType": "uint256",
          "name": "couponAmount",
          "type": "uint256"
        }
      ],
      "name": "CouponPaid",
      "type": "event"
    },
    {
      "anonymous": false,
      "inputs": [
        {
          "indexed": true,
          "internalType": "uint256",
          "name": "bondId",
          "type": "uint256"
        },
        {
          "indexed": false,
          "internalType": "bytes32",
          "name": "toRating",
          "type": "bytes32"
        },
        {
          "indexed": false,
          "internalType": "uint256",
          "name": "ratingDate",
          "type": "uint256"
        }
      ],
      "name": "RatingChanged",
      "type": "event"
    },
    {
      "anonymous": false,
      "inputs": [
        {
          "indexed": true,
          "internalType": "bytes32",
          "name": "role",
          "type": "bytes32"
        },
        {
          "indexed": true,
          "internalType": "bytes32",
          "name": "previousAdminRole",
          "type": "bytes32"
        },
        {
          "indexed": true,
          "internalType": "bytes32",
          "name": "newAdminRole",
          "type": "bytes32"
        }
      ],
      "name": "RoleAdminChanged",
      "type": "event"
    },
    {
      "anonymous": false,
      "inputs": [
        {
          "indexed": true,
          "internalType": "bytes32",
          "name": "role",
          "type": "bytes32"
        },
        {
          "indexed": true,
          "internalType": "address",
          "name": "account",
          "type": "address"
        },
        {
          "indexed": true,
          "internalType": "address",
          "name": "sender",
          "type": "address"
        }
      ],
      "name": "RoleGranted",
      "type": "event"
    },
    {
      "anonymous": false,
      "inputs": [
        {
          "indexed": true,
          "internalType": "bytes32",
          "name": "role",
          "type": "bytes32"
        },
        {
          "indexed": true,
          "internalType": "address",
          "name": "account",
          "type": "address"
        },
        {
          "indexed": true,
          "internalType": "address",
          "name": "sender",
          "type": "address"
        }
      ],
      "name": "RoleRevoked",
      "type": "event"
    },
    {
      "inputs": [],
      "name": "BURNER_ROLE",
      "outputs": [
        {
          "internalType": "bytes32",
          "name": "",
          "type": "bytes32"
        }
      ],
      "stateMutability": "view",
      "type": "function",
      "constant": true
    },
    {
      "inputs": [],
      "name": "DEFAULT_ADMIN_ROLE",
      "outputs": [
        {
          "internalType": "bytes32",
          "name": "",
          "type": "bytes32"
        }
      ],
      "stateMutability": "view",
      "type": "function",
      "constant": true
    },
    {
      "inputs": [],
      "name": "RATING_ROLE",
      "outputs": [
        {
          "internalType": "bytes32",
          "name": "",
          "type": "bytes32"
        }
      ],
      "stateMutability": "view",
      "type": "function",
      "constant": true
    },
    {
      "inputs": [
        {
          "internalType": "uint256",
          "name": "",
          "type": "uint256"
        }
      ],
      "name": "allBondRatings",
      "outputs": [
        {
          "internalType": "bytes32",
          "name": "rating",
          "type": "bytes32"
        },
        {
          "internalType": "uint256",
          "name": "ratingDate",
          "type": "uint256"
        }
      ],
      "stateMutability": "view",
      "type": "function",
      "constant": true
    },
    {
      "inputs": [
        {
          "internalType": "uint256",
          "name": "",
          "type": "uint256"
        }
      ],
      "name": "allBondTransactions",
      "outputs": [
        {
          "internalType": "address",
          "name": "from",
          "type": "address"
        },
        {
          "internalType": "address",
          "name": "to",
          "type": "address"
        },
        {
          "internalType": "uint256",
          "name": "transPrice",
          "type": "uint256"
        },
        {
          "internalType": "uint256",
          "name": "transDate",
          "type": "uint256"
        }
      ],
      "stateMutability": "view",
      "type": "function",
      "constant": true
    },
    {
      "inputs": [
        {
          "internalType": "uint256",
          "name": "",
          "type": "uint256"
        }
      ],
      "name": "allBonds",
      "outputs": [
        {
          "internalType": "uint256",
          "name": "bondId",
          "type": "uint256"
        },
        {
          "internalType": "address",
          "name": "issuer",
          "type": "address"
        },
        {
          "internalType": "uint256",
          "name": "issueDate",
          "type": "uint256"
        },
        {
          "internalType": "bytes32",
          "name": "name",
          "type": "bytes32"
        },
        {
          "internalType": "uint256",
          "name": "salePrice",
          "type": "uint256"
        },
        {
          "internalType": "uint256",
          "name": "couponRate",
          "type": "uint256"
        },
        {
          "internalType": "uint256",
          "name": "couponInterval",
          "type": "uint256"
        },
        {
          "internalType": "uint256",
          "name": "maturityDate",
          "type": "uint256"
        },
        {
          "internalType": "uint256",
          "name": "faceValue",
          "type": "uint256"
        },
        {
          "internalType": "bool",
          "name": "forSale",
          "type": "bool"
        },
        {
          "internalType": "address",
          "name": "holder",
          "type": "address"
        }
      ],
      "stateMutability": "view",
      "type": "function",
      "constant": true
    },
    {
      "inputs": [
        {
          "internalType": "uint256",
          "name": "",
          "type": "uint256"
        },
        {
          "internalType": "uint256",
          "name": "",
          "type": "uint256"
        }
      ],
      "name": "bondRatings",
      "outputs": [
        {
          "internalType": "bytes32",
          "name": "rating",
          "type": "bytes32"
        },
        {
          "internalType": "uint256",
          "name": "ratingDate",
          "type": "uint256"
        }
      ],
      "stateMutability": "view",
      "type": "function",
      "constant": true
    },
    {
      "inputs": [],
      "name": "bondToken",
      "outputs": [
        {
          "internalType": "contract BondToken",
          "name": "",
          "type": "address"
        }
      ],
      "stateMutability": "view",
      "type": "function",
      "constant": true
    },
    {
      "inputs": [
        {
          "internalType": "uint256",
          "name": "",
          "type": "uint256"
        },
        {
          "internalType": "uint256",
          "name": "",
          "type": "uint256"
        }
      ],
      "name": "bondTransactions",
      "outputs": [
        {
          "internalType": "address",
          "name": "from",
          "type": "address"
        },
        {
          "internalType": "address",
          "name": "to",
          "type": "address"
        },
        {
          "internalType": "uint256",
          "name": "transPrice",
          "type": "uint256"
        },
        {
          "internalType": "uint256",
          "name": "transDate",
          "type": "uint256"
        }
      ],
      "stateMutability": "view",
      "type": "function",
      "constant": true
    },
    {
      "inputs": [
        {
          "internalType": "uint256",
          "name": "",
          "type": "uint256"
        }
      ],
      "name": "bonds",
      "outputs": [
        {
          "internalType": "uint256",
          "name": "bondId",
          "type": "uint256"
        },
        {
          "internalType": "address",
          "name": "issuer",
          "type": "address"
        },
        {
          "internalType": "uint256",
          "name": "issueDate",
          "type": "uint256"
        },
        {
          "internalType": "bytes32",
          "name": "name",
          "type": "bytes32"
        },
        {
          "internalType": "uint256",
          "name": "salePrice",
          "type": "uint256"
        },
        {
          "internalType": "uint256",
          "name": "couponRate",
          "type": "uint256"
        },
        {
          "internalType": "uint256",
          "name": "couponInterval",
          "type": "uint256"
        },
        {
          "internalType": "uint256",
          "name": "maturityDate",
          "type": "uint256"
        },
        {
          "internalType": "uint256",
          "name": "faceValue",
          "type": "uint256"
        },
        {
          "internalType": "bool",
          "name": "forSale",
          "type": "bool"
        },
        {
          "internalType": "address",
          "name": "holder",
          "type": "address"
        }
      ],
      "stateMutability": "view",
      "type": "function",
      "constant": true
    },
    {
      "inputs": [],
      "name": "dai",
      "outputs": [
        {
          "internalType": "contract IERC20",
          "name": "",
          "type": "address"
        }
      ],
      "stateMutability": "view",
      "type": "function",
      "constant": true
    },
    {
      "inputs": [
        {
          "internalType": "bytes32",
          "name": "role",
          "type": "bytes32"
        }
      ],
      "name": "getRoleAdmin",
      "outputs": [
        {
          "internalType": "bytes32",
          "name": "",
          "type": "bytes32"
        }
      ],
      "stateMutability": "view",
      "type": "function",
      "constant": true
    },
    {
      "inputs": [
        {
          "internalType": "bytes32",
          "name": "role",
          "type": "bytes32"
        },
        {
          "internalType": "address",
          "name": "account",
          "type": "address"
        }
      ],
      "name": "grantRole",
      "outputs": [],
      "stateMutability": "nonpayable",
      "type": "function"
    },
    {
      "inputs": [
        {
          "internalType": "bytes32",
          "name": "role",
          "type": "bytes32"
        },
        {
          "internalType": "address",
          "name": "account",
          "type": "address"
        }
      ],
      "name": "hasRole",
      "outputs": [
        {
          "internalType": "bool",
          "name": "",
          "type": "bool"
        }
      ],
      "stateMutability": "view",
      "type": "function",
      "constant": true
    },
    {
      "inputs": [
        {
          "internalType": "bytes32",
          "name": "role",
          "type": "bytes32"
        },
        {
          "internalType": "address",
          "name": "account",
          "type": "address"
        }
      ],
      "name": "renounceRole",
      "outputs": [],
      "stateMutability": "nonpayable",
      "type": "function"
    },
    {
      "inputs": [
        {
          "internalType": "bytes32",
          "name": "role",
          "type": "bytes32"
        },
        {
          "internalType": "address",
          "name": "account",
          "type": "address"
        }
      ],
      "name": "revokeRole",
      "outputs": [],
      "stateMutability": "nonpayable",
      "type": "function"
    },
    {
      "inputs": [
        {
          "internalType": "bytes4",
          "name": "interfaceId",
          "type": "bytes4"
        }
      ],
      "name": "supportsInterface",
      "outputs": [
        {
          "internalType": "bool",
          "name": "",
          "type": "bool"
        }
      ],
      "stateMutability": "view",
      "type": "function",
      "constant": true
    },
    {
      "inputs": [
        {
          "internalType": "bytes32",
          "name": "_name",
          "type": "bytes32"
        },
        {
          "internalType": "uint256",
          "name": "_salePrice",
          "type": "uint256"
        },
        {
          "internalType": "uint256",
          "name": "_couponRate",
          "type": "uint256"
        },
        {
          "internalType": "uint256",
          "name": "_couponInterval",
          "type": "uint256"
        },
        {
          "internalType": "uint256",
          "name": "_daysToMaturity",
          "type": "uint256"
        },
        {
          "internalType": "uint256",
          "name": "_faceValue",
          "type": "uint256"
        }
      ],
      "name": "issueBond",
      "outputs": [],
      "stateMutability": "nonpayable",
      "type": "function"
    },
    {
      "inputs": [
        {
          "internalType": "uint256",
          "name": "_bondId",
          "type": "uint256"
        }
      ],
      "name": "getBond",
      "outputs": [
        {
          "components": [
            {
              "internalType": "uint256",
              "name": "bondId",
              "type": "uint256"
            },
            {
              "internalType": "address",
              "name": "issuer",
              "type": "address"
            },
            {
              "internalType": "uint256",
              "name": "issueDate",
              "type": "uint256"
            },
            {
              "internalType": "bytes32",
              "name": "name",
              "type": "bytes32"
            },
            {
              "internalType": "uint256",
              "name": "salePrice",
              "type": "uint256"
            },
            {
              "internalType": "uint256",
              "name": "couponRate",
              "type": "uint256"
            },
            {
              "internalType": "uint256",
              "name": "couponInterval",
              "type": "uint256"
            },
            {
              "internalType": "uint256",
              "name": "maturityDate",
              "type": "uint256"
            },
            {
              "internalType": "uint256",
              "name": "faceValue",
              "type": "uint256"
            },
            {
              "internalType": "bool",
              "name": "forSale",
              "type": "bool"
            },
            {
              "internalType": "address",
              "name": "holder",
              "type": "address"
            }
          ],
          "internalType": "struct BondMarket.Bond",
          "name": "",
          "type": "tuple"
        }
      ],
      "stateMutability": "view",
      "type": "function",
      "constant": true
    },
    {
      "inputs": [],
      "name": "getBonds",
      "outputs": [
        {
          "components": [
            {
              "internalType": "uint256",
              "name": "bondId",
              "type": "uint256"
            },
            {
              "internalType": "address",
              "name": "issuer",
              "type": "address"
            },
            {
              "internalType": "uint256",
              "name": "issueDate",
              "type": "uint256"
            },
            {
              "internalType": "bytes32",
              "name": "name",
              "type": "bytes32"
            },
            {
              "internalType": "uint256",
              "name": "salePrice",
              "type": "uint256"
            },
            {
              "internalType": "uint256",
              "name": "couponRate",
              "type": "uint256"
            },
            {
              "internalType": "uint256",
              "name": "couponInterval",
              "type": "uint256"
            },
            {
              "internalType": "uint256",
              "name": "maturityDate",
              "type": "uint256"
            },
            {
              "internalType": "uint256",
              "name": "faceValue",
              "type": "uint256"
            },
            {
              "internalType": "bool",
              "name": "forSale",
              "type": "bool"
            },
            {
              "internalType": "address",
              "name": "holder",
              "type": "address"
            }
          ],
          "internalType": "struct BondMarket.Bond[]",
          "name": "",
          "type": "tuple[]"
        }
      ],
      "stateMutability": "view",
      "type": "function",
      "constant": true
    },
    {
      "inputs": [
        {
          "internalType": "uint256",
          "name": "_bondId",
          "type": "uint256"
        },
        {
          "internalType": "uint256",
          "name": "_salePrice",
          "type": "uint256"
        }
      ],
      "name": "offerBondForSale",
      "outputs": [],
      "stateMutability": "nonpayable",
      "type": "function"
    },
    {
      "inputs": [
        {
          "internalType": "uint256",
          "name": "_bondId",
          "type": "uint256"
        },
        {
          "internalType": "address",
          "name": "_buyer",
          "type": "address"
        },
        {
          "internalType": "uint256",
          "name": "_salePrice",
          "type": "uint256"
        }
      ],
      "name": "sellBond",
      "outputs": [],
      "stateMutability": "nonpayable",
      "type": "function"
    },
    {
      "inputs": [
        {
          "internalType": "uint256",
          "name": "_bondId",
          "type": "uint256"
        },
        {
          "internalType": "uint256",
          "name": "_salePrice",
          "type": "uint256"
        }
      ],
      "name": "buyBond",
      "outputs": [],
      "stateMutability": "nonpayable",
      "type": "function"
    },
    {
      "inputs": [
        {
          "internalType": "uint256",
          "name": "_bondId",
          "type": "uint256"
        }
      ],
      "name": "payCoupon",
      "outputs": [],
      "stateMutability": "payable",
      "type": "function",
      "payable": true
    },
    {
      "inputs": [
        {
          "internalType": "uint256",
          "name": "_bondId",
          "type": "uint256"
        }
      ],
      "name": "bondMatures",
      "outputs": [],
      "stateMutability": "payable",
      "type": "function",
      "payable": true
    },
    {
      "inputs": [
        {
          "internalType": "uint256",
          "name": "_bondId",
          "type": "uint256"
        },
        {
          "internalType": "bytes32",
          "name": "_toRating",
          "type": "bytes32"
        }
      ],
      "name": "changeRating",
      "outputs": [],
      "stateMutability": "nonpayable",
      "type": "function"
    },
    {
      "inputs": [
        {
          "internalType": "uint256",
          "name": "_bondId",
          "type": "uint256"
        }
      ],
      "name": "removeBond",
      "outputs": [],
      "stateMutability": "nonpayable",
      "type": "function"
    },
    {
      "inputs": [
        {
          "internalType": "uint256",
          "name": "_bondId",
          "type": "uint256"
        },
        {
          "internalType": "uint256",
          "name": "_parentBondId",
          "type": "uint256"
        }
      ],
      "name": "bondHierarchy",
      "outputs": [],
      "stateMutability": "nonpayable",
      "type": "function"
    }
  ],
  "bytecode": "0x60806040523480156200001157600080fd5b50604051620046b7380380620046b78339818101604052810190620000379190620002b9565b6200004c6000801b33620000d660201b60201c565b80600160006101000a81548173ffffffffffffffffffffffffffffffffffffffff021916908373ffffffffffffffffffffffffffffffffffffffff16021790555081600260006101000a81548173ffffffffffffffffffffffffffffffffffffffff021916908373ffffffffffffffffffffffffffffffffffffffff160217905550505062000300565b620000e88282620000ec60201b60201c565b5050565b620000fe8282620001dd60201b60201c565b620001d957600160008084815260200190815260200160002060000160008373ffffffffffffffffffffffffffffffffffffffff1673ffffffffffffffffffffffffffffffffffffffff16815260200190815260200160002060006101000a81548160ff0219169083151502179055506200017e6200024760201b60201c565b73ffffffffffffffffffffffffffffffffffffffff168173ffffffffffffffffffffffffffffffffffffffff16837f2f8788117e7eff1d82e926ec794901d17c78024a50270940304540a733656f0d60405160405180910390a45b5050565b600080600084815260200190815260200160002060000160008373ffffffffffffffffffffffffffffffffffffffff1673ffffffffffffffffffffffffffffffffffffffff16815260200190815260200160002060009054906101000a900460ff16905092915050565b600033905090565b600080fd5b600073ffffffffffffffffffffffffffffffffffffffff82169050919050565b6000620002818262000254565b9050919050565b620002938162000274565b81146200029f57600080fd5b50565b600081519050620002b38162000288565b92915050565b60008060408385031215620002d357620002d26200024f565b5b6000620002e385828601620002a2565b9250506020620002f685828601620002a2565b9150509250929050565b6143a780620003106000396000f3fe6080604052600436106101b75760003560e01c80638ee1fa06116100ec578063c28f43921161008a578063d8fe764211610064578063d8fe764214610661578063f3b44fa21461069e578063f4b9fa75146106ba578063fcb0c1d5146106e5576101b7565b8063c28f4392146105e4578063c2ca269a1461060f578063d547741f14610638576101b7565b80639539e509116100c65780639539e5091461050b5780639a7f82f614610549578063a217fddf14610572578063b4efcf4a1461059d576101b7565b80638ee1fa061461048957806391d14854146104b2578063932e2b86146104ef576101b7565b8063402f393b1161015957806355cef2d41161013357806355cef2d4146103995780635f1c17c0146103d95780635f51da75146104205780638b140f6b1461045e576101b7565b8063402f393b146103075780634749155f146103305780634afe784214610370576101b7565b8063248a9ca311610195578063248a9ca31461024d578063282c51f31461028a5780632f2ff15d146102b557806336568abe146102de576101b7565b806301ffc9a7146101bc578063050d821e146101f9578063225ceb1b14610224575b600080fd5b3480156101c857600080fd5b506101e360048036038101906101de91906130a3565b61070e565b6040516101f091906130eb565b60405180910390f35b34801561020557600080fd5b5061020e610788565b60405161021b919061311f565b60405180910390f35b34801561023057600080fd5b5061024b60048036038101906102469190613170565b6107ac565b005b34801561025957600080fd5b50610274600480360381019061026f91906131dc565b6109b0565b604051610281919061311f565b60405180910390f35b34801561029657600080fd5b5061029f6109cf565b6040516102ac919061311f565b60405180910390f35b3480156102c157600080fd5b506102dc60048036038101906102d79190613267565b6109f3565b005b3480156102ea57600080fd5b5061030560048036038101906103009190613267565b610a1c565b005b34801561031357600080fd5b5061032e600480360381019061032991906132a7565b610a9f565b005b34801561033c57600080fd5b5061035760048036038101906103529190613170565b610ad5565b60405161036794939291906132f2565b60405180910390f35b34801561037c57600080fd5b5061039760048036038101906103929190613337565b610b62565b005b3480156103a557600080fd5b506103c060048036038101906103bb91906132a7565b611206565b6040516103d094939291906132f2565b60405180910390f35b3480156103e557600080fd5b5061040060048036038101906103fb91906132a7565b611286565b6040516104179b9a9998979695949392919061338a565b60405180910390f35b34801561042c57600080fd5b5061044760048036038101906104429190613170565b61132d565b604051610455929190613435565b60405180910390f35b34801561046a57600080fd5b5061047361136e565b604051610480919061362b565b60405180910390f35b34801561049557600080fd5b506104b060048036038101906104ab9190613170565b6114e5565b005b3480156104be57600080fd5b506104d960048036038101906104d49190613267565b6114e9565b6040516104e691906130eb565b60405180910390f35b610509600480360381019061050491906132a7565b611553565b005b34801561051757600080fd5b50610532600480360381019061052d91906132a7565b6118c8565b604051610540929190613435565b60405180910390f35b34801561055557600080fd5b50610570600480360381019061056b919061364d565b6118fc565b005b34801561057e57600080fd5b506105876119e5565b604051610594919061311f565b60405180910390f35b3480156105a957600080fd5b506105c460048036038101906105bf91906132a7565b6119ec565b6040516105db9b9a9998979695949392919061338a565b60405180910390f35b3480156105f057600080fd5b506105f9611aa3565b60405161060691906136ec565b60405180910390f35b34801561061b57600080fd5b5061063660048036038101906106319190613170565b611ac9565b005b34801561064457600080fd5b5061065f600480360381019061065a9190613267565b6120c4565b005b34801561066d57600080fd5b50610688600480360381019061068391906132a7565b6120ed565b60405161069591906137e8565b60405180910390f35b6106b860048036038101906106b391906132a7565b612232565b005b3480156106c657600080fd5b506106cf612643565b6040516106dc9190613825565b60405180910390f35b3480156106f157600080fd5b5061070c60048036038101906107079190613840565b612669565b005b60007f7965db0b000000000000000000000000000000000000000000000000000000007bffffffffffffffffffffffffffffffffffffffffffffffffffffffff1916827bffffffffffffffffffffffffffffffffffffffffffffffffffffffff19161480610781575061078082612aaf565b5b9050919050565b7f024ad37f83c5a999575699b0de5d079b39acb834b7f2b76cb6d7551c14b3795481565b81600073ffffffffffffffffffffffffffffffffffffffff166006600083815260200190815260200160002060010160009054906101000a900473ffffffffffffffffffffffffffffffffffffffff1673ffffffffffffffffffffffffffffffffffffffff161415610853576040517f08c379a000000000000000000000000000000000000000000000000000000000815260040161084a9061392a565b60405180910390fd5b823373ffffffffffffffffffffffffffffffffffffffff166006600083815260200190815260200160002060090160019054906101000a900473ffffffffffffffffffffffffffffffffffffffff1673ffffffffffffffffffffffffffffffffffffffff16146108f8576040517f08c379a00000000000000000000000000000000000000000000000000000000081526004016108ef90613996565b60405180910390fd5b82600660008681526020019081526020016000206004018190555060016006600086815260200190815260200160002060090160006101000a81548160ff0219169083151502179055508260038581548110610957576109566139b6565b5b90600052602060002090600a020160040181905550600160038581548110610982576109816139b6565b5b90600052602060002090600a020160090160006101000a81548160ff02191690831515021790555050505050565b6000806000838152602001908152602001600020600101549050919050565b7f3c11d16cbaffd01df69ce1c404f6340ee057498f5f00246190ea54220576a84881565b6109fc826109b0565b610a0d81610a08612b19565b612b21565b610a178383612bbe565b505050565b610a24612b19565b73ffffffffffffffffffffffffffffffffffffffff168173ffffffffffffffffffffffffffffffffffffffff1614610a91576040517f08c379a0000000000000000000000000000000000000000000000000000000008152600401610a8890613a57565b60405180910390fd5b610a9b8282612c9e565b5050565b7f3c11d16cbaffd01df69ce1c404f6340ee057498f5f00246190ea54220576a848610ad181610acc612b19565b612b21565b5050565b60076020528160005260406000208181548110610af157600080fd5b9060005260206000209060040201600091509150508060000160009054906101000a900473ffffffffffffffffffffffffffffffffffffffff16908060010160009054906101000a900473ffffffffffffffffffffffffffffffffffffffff16908060020154908060030154905084565b82600073ffffffffffffffffffffffffffffffffffffffff166006600083815260200190815260200160002060010160009054906101000a900473ffffffffffffffffffffffffffffffffffffffff1673ffffffffffffffffffffffffffffffffffffffff161415610c09576040517f08c379a0000000000000000000000000000000000000000000000000000000008152600401610c009061392a565b60405180910390fd5b833373ffffffffffffffffffffffffffffffffffffffff166006600083815260200190815260200160002060090160019054906101000a900473ffffffffffffffffffffffffffffffffffffffff1673ffffffffffffffffffffffffffffffffffffffff1614610cae576040517f08c379a0000000000000000000000000000000000000000000000000000000008152600401610ca590613996565b60405180910390fd5b600073ffffffffffffffffffffffffffffffffffffffff168473ffffffffffffffffffffffffffffffffffffffff161415610d1e576040517f08c379a0000000000000000000000000000000000000000000000000000000008152600401610d1590613ac3565b60405180910390fd5b3073ffffffffffffffffffffffffffffffffffffffff168473ffffffffffffffffffffffffffffffffffffffff161415610d8d576040517f08c379a0000000000000000000000000000000000000000000000000000000008152600401610d8490613b2f565b60405180910390fd5b600115156006600087815260200190815260200160002060090160009054906101000a900460ff16151514610df7576040517f08c379a0000000000000000000000000000000000000000000000000000000008152600401610dee90613b9b565b60405180910390fd5b82600660008781526020019081526020016000206004015414610e4f576040517f08c379a0000000000000000000000000000000000000000000000000000000008152600401610e4690613c07565b60405180910390fd5b82600160009054906101000a900473ffffffffffffffffffffffffffffffffffffffff1673ffffffffffffffffffffffffffffffffffffffff166370a08231866040518263ffffffff1660e01b8152600401610eab9190613c27565b602060405180830381865afa158015610ec8573d6000803e3d6000fd5b505050506040513d601f19601f82011682018060405250810190610eec9190613c57565b1015610f2d576040517f08c379a0000000000000000000000000000000000000000000000000000000008152600401610f2490613cd0565b60405180910390fd5b60006006600087815260200190815260200160002060090160019054906101000a900473ffffffffffffffffffffffffffffffffffffffff169050846006600088815260200190815260200160002060090160016101000a81548173ffffffffffffffffffffffffffffffffffffffff021916908373ffffffffffffffffffffffffffffffffffffffff16021790555060006006600088815260200190815260200160002060090160006101000a81548160ff0219169083151502179055508460038781548110611001576110006139b6565b5b90600052602060002090600a020160090160016101000a81548173ffffffffffffffffffffffffffffffffffffffff021916908373ffffffffffffffffffffffffffffffffffffffff160217905550600060038781548110611066576110656139b6565b5b90600052602060002090600a020160090160006101000a81548160ff021916908315150217905550600160009054906101000a900473ffffffffffffffffffffffffffffffffffffffff1673ffffffffffffffffffffffffffffffffffffffff166323b872dd8683876040518463ffffffff1660e01b81526004016110ed93929190613cf0565b6020604051808303816000875af115801561110c573d6000803e3d6000fd5b505050506040513d601f19601f820116820180604052508101906111309190613d53565b50600260009054906101000a900473ffffffffffffffffffffffffffffffffffffffff1673ffffffffffffffffffffffffffffffffffffffff166342842e0e8287896040518463ffffffff1660e01b815260040161119093929190613cf0565b600060405180830381600087803b1580156111aa57600080fd5b505af11580156111be573d6000803e3d6000fd5b50505050857f1f93e3a7383b42dfb7e2022d74956ef3996cfcba31197ea67bfdb36661ebdf258287876040516111f693929190613cf0565b60405180910390a2505050505050565b6004818154811061121657600080fd5b90600052602060002090600402016000915090508060000160009054906101000a900473ffffffffffffffffffffffffffffffffffffffff16908060010160009054906101000a900473ffffffffffffffffffffffffffffffffffffffff16908060020154908060030154905084565b60066020528060005260406000206000915090508060000154908060010160009054906101000a900473ffffffffffffffffffffffffffffffffffffffff16908060020154908060030154908060040154908060050154908060060154908060070154908060080154908060090160009054906101000a900460ff16908060090160019054906101000a900473ffffffffffffffffffffffffffffffffffffffff1690508b565b6008602052816000526040600020818154811061134957600080fd5b9060005260206000209060020201600091509150508060000154908060010154905082565b60606003805480602002602001604051908101604052809291908181526020016000905b828210156114dc57838290600052602060002090600a020160405180610160016040529081600082015481526020016001820160009054906101000a900473ffffffffffffffffffffffffffffffffffffffff1673ffffffffffffffffffffffffffffffffffffffff1673ffffffffffffffffffffffffffffffffffffffff168152602001600282015481526020016003820154815260200160048201548152602001600582015481526020016006820154815260200160078201548152602001600882015481526020016009820160009054906101000a900460ff161515151581526020016009820160019054906101000a900473ffffffffffffffffffffffffffffffffffffffff1673ffffffffffffffffffffffffffffffffffffffff1673ffffffffffffffffffffffffffffffffffffffff168152505081526020019060010190611392565b50505050905090565b5050565b600080600084815260200190815260200160002060000160008373ffffffffffffffffffffffffffffffffffffffff1673ffffffffffffffffffffffffffffffffffffffff16815260200190815260200160002060009054906101000a900460ff16905092915050565b80600073ffffffffffffffffffffffffffffffffffffffff166006600083815260200190815260200160002060010160009054906101000a900473ffffffffffffffffffffffffffffffffffffffff1673ffffffffffffffffffffffffffffffffffffffff1614156115fa576040517f08c379a00000000000000000000000000000000000000000000000000000000081526004016115f19061392a565b60405180910390fd5b813373ffffffffffffffffffffffffffffffffffffffff166006600083815260200190815260200160002060010160009054906101000a900473ffffffffffffffffffffffffffffffffffffffff1673ffffffffffffffffffffffffffffffffffffffff161461169f576040517f08c379a000000000000000000000000000000000000000000000000000000000815260040161169690613dcc565b60405180910390fd5b6000600660008581526020019081526020016000206008015460066000868152602001908152602001600020600501546116d99190613e1b565b9050806006600086815260200190815260200160002060010160009054906101000a900473ffffffffffffffffffffffffffffffffffffffff1673ffffffffffffffffffffffffffffffffffffffff1631101561176b576040517f08c379a000000000000000000000000000000000000000000000000000000000815260040161176290613ec1565b60405180910390fd5b60006006600086815260200190815260200160002060010160009054906101000a900473ffffffffffffffffffffffffffffffffffffffff16905060006006600087815260200190815260200160002060090160019054906101000a900473ffffffffffffffffffffffffffffffffffffffff169050600160009054906101000a900473ffffffffffffffffffffffffffffffffffffffff1673ffffffffffffffffffffffffffffffffffffffff166323b872dd8383866040518463ffffffff1660e01b815260040161184093929190613cf0565b6020604051808303816000875af115801561185f573d6000803e3d6000fd5b505050506040513d601f19601f820116820180604052508101906118839190613d53565b50857f2295e7904c57cdcc0be3e7d0e6fb948cb0cbd6bc95929d0291e25b002801cf9d8383866040516118b893929190613cf0565b60405180910390a2505050505050565b600581815481106118d857600080fd5b90600052602060002090600202016000915090508060000154908060010154905082565b7f024ad37f83c5a999575699b0de5d079b39acb834b7f2b76cb6d7551c14b3795461192e81611929612b19565b612b21565b8160086000858152602001908152602001600020600081548110611955576119546139b6565b5b9060005260206000209060020201600001819055504260086000858152602001908152602001600020600081548110611991576119906139b6565b5b906000526020600020906002020160010181905550827f52fe5439d3b868a855d87971a4f0b000f0cb10ab2453012aaeabd179b485934b83426040516119d8929190613435565b60405180910390a2505050565b6000801b81565b600381815481106119fc57600080fd5b90600052602060002090600a02016000915090508060000154908060010160009054906101000a900473ffffffffffffffffffffffffffffffffffffffff16908060020154908060030154908060040154908060050154908060060154908060070154908060080154908060090160009054906101000a900460ff16908060090160019054906101000a900473ffffffffffffffffffffffffffffffffffffffff1690508b565b600260009054906101000a900473ffffffffffffffffffffffffffffffffffffffff1681565b81600073ffffffffffffffffffffffffffffffffffffffff166006600083815260200190815260200160002060010160009054906101000a900473ffffffffffffffffffffffffffffffffffffffff1673ffffffffffffffffffffffffffffffffffffffff161415611b70576040517f08c379a0000000000000000000000000000000000000000000000000000000008152600401611b679061392a565b60405180910390fd5b600115156006600085815260200190815260200160002060090160009054906101000a900460ff16151514611bda576040517f08c379a0000000000000000000000000000000000000000000000000000000008152600401611bd190613b9b565b60405180910390fd5b81600660008581526020019081526020016000206004015414611c32576040517f08c379a0000000000000000000000000000000000000000000000000000000008152600401611c2990613c07565b60405180910390fd5b81600160009054906101000a900473ffffffffffffffffffffffffffffffffffffffff1673ffffffffffffffffffffffffffffffffffffffff166370a08231336040518263ffffffff1660e01b8152600401611c8e9190613c27565b602060405180830381865afa158015611cab573d6000803e3d6000fd5b505050506040513d601f19601f82011682018060405250810190611ccf9190613c57565b1015611d10576040517f08c379a0000000000000000000000000000000000000000000000000000000008152600401611d0790613cd0565b60405180910390fd5b60006006600085815260200190815260200160002060090160019054906101000a900473ffffffffffffffffffffffffffffffffffffffff169050336006600086815260200190815260200160002060090160016101000a81548173ffffffffffffffffffffffffffffffffffffffff021916908373ffffffffffffffffffffffffffffffffffffffff16021790555060006006600086815260200190815260200160002060090160006101000a81548160ff0219169083151502179055503360038581548110611de457611de36139b6565b5b90600052602060002090600a020160090160016101000a81548173ffffffffffffffffffffffffffffffffffffffff021916908373ffffffffffffffffffffffffffffffffffffffff160217905550600060038581548110611e4957611e486139b6565b5b90600052602060002090600a020160090160006101000a81548160ff021916908315150217905550600160009054906101000a900473ffffffffffffffffffffffffffffffffffffffff1673ffffffffffffffffffffffffffffffffffffffff166323b872dd3383866040518463ffffffff1660e01b8152600401611ed093929190613cf0565b6020604051808303816000875af1158015611eef573d6000803e3d6000fd5b505050506040513d601f19601f82011682018060405250810190611f139190613d53565b50600260009054906101000a900473ffffffffffffffffffffffffffffffffffffffff1673ffffffffffffffffffffffffffffffffffffffff166342842e0e8233876040518463ffffffff1660e01b8152600401611f7393929190613cf0565b600060405180830381600087803b158015611f8d57600080fd5b505af1158015611fa1573d6000803e3d6000fd5b505050506000600260009054906101000a900473ffffffffffffffffffffffffffffffffffffffff1673ffffffffffffffffffffffffffffffffffffffff16636352211e866040518263ffffffff1660e01b81526004016120029190613ee1565b602060405180830381865afa15801561201f573d6000803e3d6000fd5b505050506040513d601f19601f820116820180604052508101906120439190613f11565b90503373ffffffffffffffffffffffffffffffffffffffff168173ffffffffffffffffffffffffffffffffffffffff161461208157612080613f3e565b5b847f1f93e3a7383b42dfb7e2022d74956ef3996cfcba31197ea67bfdb36661ebdf258333876040516120b593929190613cf0565b60405180910390a25050505050565b6120cd826109b0565b6120de816120d9612b19565b612b21565b6120e88383612c9e565b505050565b6120f5612fbb565b6006600083815260200190815260200160002060405180610160016040529081600082015481526020016001820160009054906101000a900473ffffffffffffffffffffffffffffffffffffffff1673ffffffffffffffffffffffffffffffffffffffff1673ffffffffffffffffffffffffffffffffffffffff168152602001600282015481526020016003820154815260200160048201548152602001600582015481526020016006820154815260200160078201548152602001600882015481526020016009820160009054906101000a900460ff161515151581526020016009820160019054906101000a900473ffffffffffffffffffffffffffffffffffffffff1673ffffffffffffffffffffffffffffffffffffffff1673ffffffffffffffffffffffffffffffffffffffff16815250509050919050565b803373ffffffffffffffffffffffffffffffffffffffff166006600083815260200190815260200160002060010160009054906101000a900473ffffffffffffffffffffffffffffffffffffffff1673ffffffffffffffffffffffffffffffffffffffff16146122d7576040517f08c379a00000000000000000000000000000000000000000000000000000000081526004016122ce90613dcc565b60405180910390fd5b6006600083815260200190815260200160002060070154421161232f576040517f08c379a000000000000000000000000000000000000000000000000000000000815260040161232690613fdf565b60405180910390fd5b60006006600084815260200190815260200160002060080154905060006006600085815260200190815260200160002060070154905060006006600086815260200190815260200160002060010160009054906101000a900473ffffffffffffffffffffffffffffffffffffffff16905060006006600087815260200190815260200160002060090160019054906101000a900473ffffffffffffffffffffffffffffffffffffffff169050600160009054906101000a900473ffffffffffffffffffffffffffffffffffffffff1673ffffffffffffffffffffffffffffffffffffffff166323b872dd8383876040518463ffffffff1660e01b815260040161243a93929190613cf0565b6020604051808303816000875af1158015612459573d6000803e3d6000fd5b505050506040513d601f19601f8201168201806040525081019061247d9190613d53565b50600660008781526020019081526020016000206000808201600090556001820160006101000a81549073ffffffffffffffffffffffffffffffffffffffff021916905560028201600090556003820160009055600482016000905560058201600090556006820160009055600782016000905560088201600090556009820160006101000a81549060ff02191690556009820160016101000a81549073ffffffffffffffffffffffffffffffffffffffff021916905550506003868154811061254a576125496139b6565b5b90600052602060002090600a02016000808201600090556001820160006101000a81549073ffffffffffffffffffffffffffffffffffffffff021916905560028201600090556003820160009055600482016000905560058201600090556006820160009055600782016000905560088201600090556009820160006101000a81549060ff02191690556009820160016101000a81549073ffffffffffffffffffffffffffffffffffffffff02191690555050857f85366378f344a1db1f3b96410c30ca67972437de0015128bfebab23081c8d3d18383868860405161263394939291906132f2565b60405180910390a2505050505050565b600160009054906101000a900473ffffffffffffffffffffffffffffffffffffffff1681565b60006040518060400160405280600f81526020017f746f6b656e555249202d2049504653000000000000000000000000000000000081525090506000600260009054906101000a900473ffffffffffffffffffffffffffffffffffffffff1673ffffffffffffffffffffffffffffffffffffffff1663d0def52133846040518363ffffffff1660e01b8152600401612702929190614087565b6020604051808303816000875af1158015612721573d6000803e3d6000fd5b505050506040513d601f19601f820116820180604052508101906127459190613c57565b9050600062015180856127589190613e1b565b4261276391906140b7565b905060006040518061016001604052808481526020013373ffffffffffffffffffffffffffffffffffffffff1681526020014281526020018b81526020018a81526020018981526020018881526020018381526020018681526020016001151581526020013373ffffffffffffffffffffffffffffffffffffffff16815250905080600660008581526020019081526020016000206000820151816000015560208201518160010160006101000a81548173ffffffffffffffffffffffffffffffffffffffff021916908373ffffffffffffffffffffffffffffffffffffffff16021790555060408201518160020155606082015181600301556080820151816004015560a0820151816005015560c0820151816006015560e0820151816007015561010082015181600801556101208201518160090160006101000a81548160ff0219169083151502179055506101408201518160090160016101000a81548173ffffffffffffffffffffffffffffffffffffffff021916908373ffffffffffffffffffffffffffffffffffffffff16021790555090505060038190806001815401808255809150506001900390600052602060002090600a02016000909190919091506000820151816000015560208201518160010160006101000a81548173ffffffffffffffffffffffffffffffffffffffff021916908373ffffffffffffffffffffffffffffffffffffffff16021790555060408201518160020155606082015181600301556080820151816004015560a0820151816005015560c0820151816006015560e0820151816007015561010082015181600801556101208201518160090160006101000a81548160ff0219169083151502179055506101408201518160090160016101000a81548173ffffffffffffffffffffffffffffffffffffffff021916908373ffffffffffffffffffffffffffffffffffffffff1602179055505050823373ffffffffffffffffffffffffffffffffffffffff167feaf4f2be92b4b1b6ef8ef190bea25f59b9ba33f493358387c25a44f2ac975dbf8360400151846060015185608001518660a001518760c001518860e00151896101000151604051612a9b979695949392919061410d565b60405180910390a350505050505050505050565b60007f01ffc9a7000000000000000000000000000000000000000000000000000000007bffffffffffffffffffffffffffffffffffffffffffffffffffffffff1916827bffffffffffffffffffffffffffffffffffffffffffffffffffffffff1916149050919050565b600033905090565b612b2b82826114e9565b612bba57612b508173ffffffffffffffffffffffffffffffffffffffff166014612d7f565b612b5e8360001c6020612d7f565b604051602001612b6f929190614250565b6040516020818303038152906040526040517f08c379a0000000000000000000000000000000000000000000000000000000008152600401612bb1919061428a565b60405180910390fd5b5050565b612bc882826114e9565b612c9a57600160008084815260200190815260200160002060000160008373ffffffffffffffffffffffffffffffffffffffff1673ffffffffffffffffffffffffffffffffffffffff16815260200190815260200160002060006101000a81548160ff021916908315150217905550612c3f612b19565b73ffffffffffffffffffffffffffffffffffffffff168173ffffffffffffffffffffffffffffffffffffffff16837f2f8788117e7eff1d82e926ec794901d17c78024a50270940304540a733656f0d60405160405180910390a45b5050565b612ca882826114e9565b15612d7b57600080600084815260200190815260200160002060000160008373ffffffffffffffffffffffffffffffffffffffff1673ffffffffffffffffffffffffffffffffffffffff16815260200190815260200160002060006101000a81548160ff021916908315150217905550612d20612b19565b73ffffffffffffffffffffffffffffffffffffffff168173ffffffffffffffffffffffffffffffffffffffff16837ff6391f5c32d9c69d2a47ea670b442974b53935d1edc7fd64eb21e047a839171b60405160405180910390a45b5050565b606060006002836002612d929190613e1b565b612d9c91906140b7565b67ffffffffffffffff811115612db557612db46142ac565b5b6040519080825280601f01601f191660200182016040528015612de75781602001600182028036833780820191505090505b5090507f300000000000000000000000000000000000000000000000000000000000000081600081518110612e1f57612e1e6139b6565b5b60200101907effffffffffffffffffffffffffffffffffffffffffffffffffffffffffffff1916908160001a9053507f780000000000000000000000000000000000000000000000000000000000000081600181518110612e8357612e826139b6565b5b60200101907effffffffffffffffffffffffffffffffffffffffffffffffffffffffffffff1916908160001a90535060006001846002612ec39190613e1b565b612ecd91906140b7565b90505b6001811115612f6d577f3031323334353637383961626364656600000000000000000000000000000000600f861660108110612f0f57612f0e6139b6565b5b1a60f81b828281518110612f2657612f256139b6565b5b60200101907effffffffffffffffffffffffffffffffffffffffffffffffffffffffffffff1916908160001a905350600485901c945080612f66906142db565b9050612ed0565b5060008414612fb1576040517f08c379a0000000000000000000000000000000000000000000000000000000008152600401612fa890614351565b60405180910390fd5b8091505092915050565b60405180610160016040528060008152602001600073ffffffffffffffffffffffffffffffffffffffff16815260200160008152602001600080191681526020016000815260200160008152602001600081526020016000815260200160008152602001600015158152602001600073ffffffffffffffffffffffffffffffffffffffff1681525090565b600080fd5b60007fffffffff0000000000000000000000000000000000000000000000000000000082169050919050565b6130808161304b565b811461308b57600080fd5b50565b60008135905061309d81613077565b92915050565b6000602082840312156130b9576130b8613046565b5b60006130c78482850161308e565b91505092915050565b60008115159050919050565b6130e5816130d0565b82525050565b600060208201905061310060008301846130dc565b92915050565b6000819050919050565b61311981613106565b82525050565b60006020820190506131346000830184613110565b92915050565b6000819050919050565b61314d8161313a565b811461315857600080fd5b50565b60008135905061316a81613144565b92915050565b6000806040838503121561318757613186613046565b5b60006131958582860161315b565b92505060206131a68582860161315b565b9150509250929050565b6131b981613106565b81146131c457600080fd5b50565b6000813590506131d6816131b0565b92915050565b6000602082840312156131f2576131f1613046565b5b6000613200848285016131c7565b91505092915050565b600073ffffffffffffffffffffffffffffffffffffffff82169050919050565b600061323482613209565b9050919050565b61324481613229565b811461324f57600080fd5b50565b6000813590506132618161323b565b92915050565b6000806040838503121561327e5761327d613046565b5b600061328c858286016131c7565b925050602061329d85828601613252565b9150509250929050565b6000602082840312156132bd576132bc613046565b5b60006132cb8482850161315b565b91505092915050565b6132dd81613229565b82525050565b6132ec8161313a565b82525050565b600060808201905061330760008301876132d4565b61331460208301866132d4565b61332160408301856132e3565b61332e60608301846132e3565b95945050505050565b6000806000606084860312156133505761334f613046565b5b600061335e8682870161315b565b935050602061336f86828701613252565b92505060406133808682870161315b565b9150509250925092565b6000610160820190506133a0600083018e6132e3565b6133ad602083018d6132d4565b6133ba604083018c6132e3565b6133c7606083018b613110565b6133d4608083018a6132e3565b6133e160a08301896132e3565b6133ee60c08301886132e3565b6133fb60e08301876132e3565b6134096101008301866132e3565b6134176101208301856130dc565b6134256101408301846132d4565b9c9b505050505050505050505050565b600060408201905061344a6000830185613110565b61345760208301846132e3565b9392505050565b600081519050919050565b600082825260208201905092915050565b6000819050602082019050919050565b6134938161313a565b82525050565b6134a281613229565b82525050565b6134b181613106565b82525050565b6134c0816130d0565b82525050565b610160820160008201516134dd600085018261348a565b5060208201516134f06020850182613499565b506040820151613503604085018261348a565b50606082015161351660608501826134a8565b506080820151613529608085018261348a565b5060a082015161353c60a085018261348a565b5060c082015161354f60c085018261348a565b5060e082015161356260e085018261348a565b5061010082015161357761010085018261348a565b5061012082015161358c6101208501826134b7565b506101408201516135a1610140850182613499565b50505050565b60006135b383836134c6565b6101608301905092915050565b6000602082019050919050565b60006135d88261345e565b6135e28185613469565b93506135ed8361347a565b8060005b8381101561361e57815161360588826135a7565b9750613610836135c0565b9250506001810190506135f1565b5085935050505092915050565b6000602082019050818103600083015261364581846135cd565b905092915050565b6000806040838503121561366457613663613046565b5b60006136728582860161315b565b9250506020613683858286016131c7565b9150509250929050565b6000819050919050565b60006136b26136ad6136a884613209565b61368d565b613209565b9050919050565b60006136c482613697565b9050919050565b60006136d6826136b9565b9050919050565b6136e6816136cb565b82525050565b600060208201905061370160008301846136dd565b92915050565b6101608201600082015161371e600085018261348a565b5060208201516137316020850182613499565b506040820151613744604085018261348a565b50606082015161375760608501826134a8565b50608082015161376a608085018261348a565b5060a082015161377d60a085018261348a565b5060c082015161379060c085018261348a565b5060e08201516137a360e085018261348a565b506101008201516137b861010085018261348a565b506101208201516137cd6101208501826134b7565b506101408201516137e2610140850182613499565b50505050565b6000610160820190506137fe6000830184613707565b92915050565b600061380f826136b9565b9050919050565b61381f81613804565b82525050565b600060208201905061383a6000830184613816565b92915050565b60008060008060008060c0878903121561385d5761385c613046565b5b600061386b89828a016131c7565b965050602061387c89828a0161315b565b955050604061388d89828a0161315b565b945050606061389e89828a0161315b565b93505060806138af89828a0161315b565b92505060a06138c089828a0161315b565b9150509295509295509295565b600082825260208201905092915050565b7f426f6e6420646f6573206e6f7420657869737400000000000000000000000000600082015250565b60006139146013836138cd565b915061391f826138de565b602082019050919050565b6000602082019050818103600083015261394381613907565b9050919050565b7f4e6f7420426f6e6420686f6c6465720000000000000000000000000000000000600082015250565b6000613980600f836138cd565b915061398b8261394a565b602082019050919050565b600060208201905081810360008301526139af81613973565b9050919050565b7f4e487b7100000000000000000000000000000000000000000000000000000000600052603260045260246000fd5b7f416363657373436f6e74726f6c3a2063616e206f6e6c792072656e6f756e636560008201527f20726f6c657320666f722073656c660000000000000000000000000000000000602082015250565b6000613a41602f836138cd565b9150613a4c826139e5565b604082019050919050565b60006020820190508181036000830152613a7081613a34565b9050919050565b7f6275796572206973207468652061646472657373207a65726f00000000000000600082015250565b6000613aad6019836138cd565b9150613ab882613a77565b602082019050919050565b60006020820190508181036000830152613adc81613aa0565b9050919050565b7f627579657220697320636f6e7472616374000000000000000000000000000000600082015250565b6000613b196011836138cd565b9150613b2482613ae3565b602082019050919050565b60006020820190508181036000830152613b4881613b0c565b9050919050565b7f426f6e64206973206e6f7420666f722073616c65000000000000000000000000600082015250565b6000613b856014836138cd565b9150613b9082613b4f565b602082019050919050565b60006020820190508181036000830152613bb481613b78565b9050919050565b7f496e636f72726563742053616c65205072696365000000000000000000000000600082015250565b6000613bf16014836138cd565b9150613bfc82613bbb565b602082019050919050565b60006020820190508181036000830152613c2081613be4565b9050919050565b6000602082019050613c3c60008301846132d4565b92915050565b600081519050613c5181613144565b92915050565b600060208284031215613c6d57613c6c613046565b5b6000613c7b84828501613c42565b91505092915050565b7f496e73756666696369656e742066756e647320746f2062757920426f6e640000600082015250565b6000613cba601e836138cd565b9150613cc582613c84565b602082019050919050565b60006020820190508181036000830152613ce981613cad565b9050919050565b6000606082019050613d0560008301866132d4565b613d1260208301856132d4565b613d1f60408301846132e3565b949350505050565b613d30816130d0565b8114613d3b57600080fd5b50565b600081519050613d4d81613d27565b92915050565b600060208284031215613d6957613d68613046565b5b6000613d7784828501613d3e565b91505092915050565b7f4e6f7420426f6e64206973737565720000000000000000000000000000000000600082015250565b6000613db6600f836138cd565b9150613dc182613d80565b602082019050919050565b60006020820190508181036000830152613de581613da9565b9050919050565b7f4e487b7100000000000000000000000000000000000000000000000000000000600052601160045260246000fd5b6000613e268261313a565b9150613e318361313a565b9250817fffffffffffffffffffffffffffffffffffffffffffffffffffffffffffffffff0483118215151615613e6a57613e69613dec565b5b828202905092915050565b7f496e73756666696369656e742066756e647320746f2070617920636f75706f6e600082015250565b6000613eab6020836138cd565b9150613eb682613e75565b602082019050919050565b60006020820190508181036000830152613eda81613e9e565b9050919050565b6000602082019050613ef660008301846132e3565b92915050565b600081519050613f0b8161323b565b92915050565b600060208284031215613f2757613f26613046565b5b6000613f3584828501613efc565b91505092915050565b7f4e487b7100000000000000000000000000000000000000000000000000000000600052600160045260246000fd5b7f4d61747572697479206461746520686173206e6f74206265656e20726561636860008201527f6564000000000000000000000000000000000000000000000000000000000000602082015250565b6000613fc96022836138cd565b9150613fd482613f6d565b604082019050919050565b60006020820190508181036000830152613ff881613fbc565b9050919050565b600081519050919050565b60005b8381101561402857808201518184015260208101905061400d565b83811115614037576000848401525b50505050565b6000601f19601f8301169050919050565b600061405982613fff565b61406381856138cd565b935061407381856020860161400a565b61407c8161403d565b840191505092915050565b600060408201905061409c60008301856132d4565b81810360208301526140ae818461404e565b90509392505050565b60006140c28261313a565b91506140cd8361313a565b9250827fffffffffffffffffffffffffffffffffffffffffffffffffffffffffffffffff0382111561410257614101613dec565b5b828201905092915050565b600060e082019050614122600083018a6132e3565b61412f6020830189613110565b61413c60408301886132e3565b61414960608301876132e3565b61415660808301866132e3565b61416360a08301856132e3565b61417060c08301846132e3565b98975050505050505050565b600081905092915050565b7f416363657373436f6e74726f6c3a206163636f756e7420000000000000000000600082015250565b60006141bd60178361417c565b91506141c882614187565b601782019050919050565b60006141de82613fff565b6141e8818561417c565b93506141f881856020860161400a565b80840191505092915050565b7f206973206d697373696e6720726f6c6520000000000000000000000000000000600082015250565b600061423a60118361417c565b915061424582614204565b601182019050919050565b600061425b826141b0565b915061426782856141d3565b91506142728261422d565b915061427e82846141d3565b91508190509392505050565b600060208201905081810360008301526142a4818461404e565b905092915050565b7f4e487b7100000000000000000000000000000000000000000000000000000000600052604160045260246000fd5b60006142e68261313a565b915060008214156142fa576142f9613dec565b5b600182039050919050565b7f537472696e67733a20686578206c656e67746820696e73756666696369656e74600082015250565b600061433b6020836138cd565b915061434682614305565b602082019050919050565b6000602082019050818103600083015261436a8161432e565b905091905056fea26469706673582212208b6834f80018504856f163334c965a731e6b76f6142f6627de37c982437b5c7d64736f6c634300080a0033",
  "immutableReferences": {},
  "source": "// SPDX-License-Identifier: MIT\npragma solidity 0.8.10;\n\nimport \"@openzeppelin/contracts/access/AccessControl.sol\";\nimport '@openzeppelin/contracts/token/ERC20/IERC20.sol';\nimport './BondToken.sol';\n\n/// @author Simon Roope\n/// @title  Fixed Income Bond NFT market place.\n/// @notice The contract used to issue, trade, make coupon and maturity payments of Fixed Income Bonds.\n\ncontract BondMarket is AccessControl {\n \n  IERC20 public dai;           /// @dev TODO: extend to use multiple currencies.\n  BondToken public bondToken;  /// @dev Each bond has unique tokenId.\n\n  bytes32 public constant BURNER_ROLE = keccak256(\"BURNER_ROLE\");\n  bytes32 public constant RATING_ROLE = keccak256(\"RATING_ROLE\");\n\n  Bond[] public allBonds; \n  BondTransaction[] public allBondTransactions;\n  BondRating[] public allBondRatings;\n\n  mapping(uint => Bond) public bonds;                            // bondId => Bond\n  mapping(uint => BondTransaction[]) public bondTransactions;    // bondId => BondTransaction \n  mapping(uint => BondRating[]) public bondRatings;              // bondId => BondRating\n\n  struct Bond {\n    uint bondId;\n    address issuer;      /// @dev issuer of bond, who pays coupons and face value on maturity.\n    uint issueDate;\n    bytes32 name;\n    uint salePrice;      /// @dev price at which the bond issuer originally sells the bond.\n    uint couponRate;     /// @dev rate of interest the bond issuer will pay on the face value of the bond, expressed as %.\n    uint couponInterval; /// @dev interval between coupon payments, i.e. dates issuer will make interest payments. Biannually\n    uint maturityDate;   /// @dev date bond will mature and the bond issuer will pay the bondholder the face value of the bond.\n    uint faceValue;      /// @dev value of bond at maturity, stated when issued and paid by issuer to current bondholder on maturity.  \n    bool forSale;        /// @dev is bond for sale.\n    address holder;      /// @dev current holder of bond and recipient of coupon.\n  }\n\n  struct BondTransaction {\n    address from;\n    address to;\n    uint transPrice;\n    uint transDate;\n  }\n\n  struct BondRating {\n    bytes32 rating;\n    uint ratingDate;\n  }\n\n  event BondIssued(address indexed issuer, uint indexed bondId, uint issueDate, bytes32 _name, uint issuePrice,\n                   uint couponRate, uint couponInterval, uint maturityDate, uint faceValue );\n  event BondSold (uint indexed bondId, address from, address to, uint salePrice );\n  event CouponPaid ( uint indexed bondId, address from, address to, uint couponAmount );\n  event BondMatured ( uint indexed bondId, address from, address to, uint maturityDate, uint faceValue );\n  event RatingChanged( uint indexed bondId, bytes32 toRating, uint ratingDate );\n\n  modifier isIssuer (uint _bondId ) {\n    require (bonds[_bondId].issuer == msg.sender, 'Not Bond issuer');\n    _;\n  }\n\n  modifier isHolder (uint _bondId ) {\n    require (bonds[_bondId].holder == msg.sender, 'Not Bond holder');\n    _;\n  }\n\n  modifier bondExists (uint _bondId ) {\n    require (bonds[_bondId].issuer != address(0), 'Bond does not exist');\n    _;\n  }\n\n  modifier checkPayment( uint256 _amount) {\n    require(dai.allowance(msg.sender, address(this)) >= _amount, \"allowance missing for token transfer\");\n    require(dai.balanceOf(msg.sender) >= _amount, \"not enough token balance\");\n    _;\n  }\n\n  error InsufficientBalance(uint salePrice, uint balance);\n\n\n  constructor ( address _bondTokenAddress, address _daiAddress ) {\n\n    _setupRole(DEFAULT_ADMIN_ROLE, msg.sender);\n\n    dai = IERC20(_daiAddress);\n    bondToken = BondToken(_bondTokenAddress); \n\n  }\n\n  function issueBond ( bytes32 _name,\n                       uint _salePrice,\n                       uint _couponRate,\n                       uint _couponInterval,\n                       uint _daysToMaturity,\n                       uint _faceValue ) public {\n\n    /// @notice Mint Bond NFT to Issuer\n    /// @dev TODO: Create metadata tokenURI for upload to IPFS. Metadata is owner's certificate of ownership.  \n\n    string memory bondCertificate = 'tokenURI - IPFS';\n    uint bondId = bondToken.mint(msg.sender, bondCertificate);\n\n    uint maturityDate = block.timestamp + (_daysToMaturity * 1 days);\n\n    Bond memory newBond = Bond( bondId, msg.sender, block.timestamp, _name,\n                               _salePrice, _couponRate, _couponInterval, maturityDate,\n                               _faceValue, true, msg.sender ); \n\n    bonds[bondId] = newBond;\n    allBonds.push(newBond);\n\n    /// @dev TODO: Add Bond Rating\n\n    emit BondIssued ( msg.sender, bondId, newBond.issueDate, newBond.name, newBond.salePrice, \n                      newBond.couponRate, newBond.couponInterval, newBond.maturityDate, newBond.faceValue );\n\n  }\n\n  \n  function getBond(uint _bondId) public view returns ( Bond memory ) {\n    return bonds[_bondId];\n\n    /// @notice Retun a single bond \n    /// @dev or returns (address issuer) return(bonds[bondId].issuer);\n    /// @dev or returns (address issuer) Bond storage bnd = bonds[bondId]; issuer = bnd.issuer; return issuer;\n    /// @dev or returns (Bond memory) return bonds[_bondId];\n  }\n\n\n  function getBonds() public view returns ( Bond[] memory ) {\n    /// @notice Retun all bonds \n    return allBonds; \n  }\n\n\n  function offerBondForSale ( uint _bondId, uint _salePrice ) public bondExists(_bondId) isHolder(_bondId) {\n\n    /// @notice Offer the bond for sale, at a specified price \n    /// @dev TODO: grant approval for token transfer to this contract.\n\n    bonds[_bondId].salePrice = _salePrice;\n    bonds[_bondId].forSale = true;\n\n    allBonds[_bondId].salePrice = _salePrice;\n    allBonds[_bondId].forSale = true;\n\n  }\n\n\n  function sellBond ( uint _bondId, address _buyer, uint _salePrice ) public bondExists(_bondId) isHolder(_bondId) {\n  \n    /// @notice First and all subsequent sales of a bond. Push.\n    /// @dev Sale price, in ETH, set by current owner. \n    /// TODO: Multiple currencies and transactions on Exchange. AMM\n\n    require(_buyer != address(0), 'buyer is the address zero');\n    require(_buyer != address(this),'buyer is contract');\n\n    require (bonds[_bondId].forSale == true, 'Bond is not for sale');\n    require (bonds[_bondId].salePrice == _salePrice, 'Incorrect Sale Price');\n    require (dai.balanceOf(_buyer) >= _salePrice, 'Insufficient funds to buy Bond');\n    \n    address seller = bonds[_bondId].holder;\n    bonds[_bondId].holder = _buyer;\n    bonds[_bondId].forSale = false;\n\n    allBonds[_bondId].holder = _buyer;\n    allBonds[_bondId].forSale = false;\n\n    dai.transferFrom(_buyer, seller, _salePrice);    \n\n    /// @dev Transfer NFT ownership.\n    /// @dev TODO: Incorporate delegatecall for approval when minted\n    bondToken.safeTransferFrom(seller, _buyer, _bondId);\n\n    emit BondSold(_bondId, seller, _buyer, _salePrice);   // bondId, from, to, price\n  }\n\n\n  function buyBond ( uint _bondId, uint _salePrice ) public bondExists(_bondId) {\n\n    /// @notice Purchase a bond at listed price. Pull.\n    require (bonds[_bondId].forSale == true, 'Bond is not for sale');\n    require (bonds[_bondId].salePrice == _salePrice, 'Incorrect Sale Price');\n\n    require (dai.balanceOf(msg.sender) >= _salePrice, 'Insufficient funds to buy Bond');\n\n    address seller = bonds[_bondId].holder;\n    bonds[_bondId].holder = msg.sender;\n    bonds[_bondId].forSale = false;\n\n    allBonds[_bondId].holder = msg.sender;\n    allBonds[_bondId].forSale = false;\n\n    dai.transferFrom(msg.sender, seller, _salePrice);   \n\n    /// @dev Transfer NFT ownership.\n    /// @dev TODO: Incorporate delegatecall for approval when minted\n    bondToken.safeTransferFrom(seller, msg.sender, _bondId);\n\n    address bondOwner = bondToken.ownerOf(_bondId);\n    assert (bondOwner == msg.sender);\n\n    emit BondSold(_bondId, seller, msg.sender, _salePrice);   // bondId, from, to, price\n  }\n\n\n  function payCoupon ( uint _bondId ) public payable bondExists(_bondId) isIssuer(_bondId) {\n\n    /// @notice Pay the coupon rate to the current holder.\n    /// @dev Payment is made every x days (i.e coupon interval)\n    /// @dev Function to be executed by scheduler \n    /// @dev Calculate coupon amount\n    uint couponAmount = bonds[_bondId].couponRate * bonds[_bondId].faceValue;\n\n    /// @dev Owner has sufficient funds or bond defaults.\n    require(bonds[_bondId].issuer.balance >= couponAmount,'Insufficient funds to pay coupon');\n\n    /// @dev TODO: Issuer defaults and no payment is made.\n\n    /// @dev Pay Coupon.\n    address issuer = bonds[_bondId].issuer;\n    address holder = bonds[_bondId].holder;\n    dai.transferFrom(issuer, holder, couponAmount);\n\n    emit CouponPaid ( _bondId, issuer, holder, couponAmount );   // from, to\n  }\n\n\n  function bondMatures ( uint _bondId ) public payable isIssuer(_bondId) {\n\n    /// @notice The bond matures and the maturity value is paid to the current holder.\n    /// @dev TODO: Link to scheduler e.g. Chainlink \n\n    require(block.timestamp > bonds[_bondId].maturityDate,'Maturity date has not been reached');\n\n    uint maturityAmount = bonds[_bondId].faceValue;\n    uint maturityDate = bonds[_bondId].maturityDate;\n\n    address issuer = bonds[_bondId].issuer;\n    address holder = bonds[_bondId].holder;\n\n    /// @dev Transfer to be approved first\n    dai.transferFrom(issuer, holder, maturityAmount);\n\n    /// @dev Take bond out of circulation\n    /// @dev TODO: tbc if NFT is soft delete or burnt. Incorporate removeBond() below. \n    delete bonds[_bondId];\n    delete allBonds[_bondId];  // or allBonds.splice(bondId,1);\n\n    emit BondMatured ( _bondId, issuer, holder, maturityDate, maturityAmount ); \n  }\n\n\n  function changeRating ( uint _bondId, bytes32 _toRating ) public onlyRole(RATING_ROLE) {\n  \n    /// @notice The bond rating is changed.\n    /// @dev This function can only be performed by authorised users. \n    bondRatings[_bondId][0].rating = _toRating;\n    bondRatings[_bondId][0].ratingDate = block.timestamp;\n\n    emit RatingChanged( _bondId, _toRating, block.timestamp );\n  }   \n\n\n  function removeBond(uint _bondId) public onlyRole(BURNER_ROLE) {\n\n    /// @notice Remove a bond listing\n    /// @dev Only the contract owner can call this function\n\n    /// TODO: remove a bond listing entirely; _burn & delete\n    /// _burn token\n    /// delete bonds[_bondId];\n  }\n\n\n  function bondHierarchy ( uint _bondId, uint _parentBondId ) public {\n    /// @notice Create bond hierarchy for collaterialised debt.\n    /// @dev TODO\n  }\n\n}\n",
  "sourcePath": "/Users/simonroope/Documents/scr/blockchain/consensys/projectFinal/bondv12/contracts/BondMarket.sol",
  "compiler": {
    "name": "solc",
    "version": "0.8.10+commit.fc410830.Emscripten.clang"
  },
  "schemaVersion": "3.4.3",
  "updatedAt": "2022-01-14T20:57:53.671Z",
  "networkType": "ethereum",
  "devdoc": {
    "author": "Simon Roope",
    "kind": "dev",
    "methods": {
      "getRoleAdmin(bytes32)": {
        "details": "Returns the admin role that controls `role`. See {grantRole} and {revokeRole}. To change a role's admin, use {_setRoleAdmin}."
      },
      "grantRole(bytes32,address)": {
        "details": "Grants `role` to `account`. If `account` had not been already granted `role`, emits a {RoleGranted} event. Requirements: - the caller must have ``role``'s admin role."
      },
      "hasRole(bytes32,address)": {
        "details": "Returns `true` if `account` has been granted `role`."
      },
      "renounceRole(bytes32,address)": {
        "details": "Revokes `role` from the calling account. Roles are often managed via {grantRole} and {revokeRole}: this function's purpose is to provide a mechanism for accounts to lose their privileges if they are compromised (such as when a trusted device is misplaced). If the calling account had been revoked `role`, emits a {RoleRevoked} event. Requirements: - the caller must be `account`."
      },
      "revokeRole(bytes32,address)": {
        "details": "Revokes `role` from `account`. If `account` had been granted `role`, emits a {RoleRevoked} event. Requirements: - the caller must have ``role``'s admin role."
      },
      "supportsInterface(bytes4)": {
        "details": "See {IERC165-supportsInterface}."
      }
    },
    "stateVariables": {
      "BURNER_ROLE": {
        "details": "Each bond has unique tokenId."
      },
      "bondToken": {
        "details": "TODO: extend to use multiple currencies."
      }
    },
    "title": "Fixed Income Bond NFT market place.",
    "version": 1
  },
  "userdoc": {
    "kind": "user",
    "methods": {},
    "notice": "The contract used to issue, trade, make coupon and maturity payments of Fixed Income Bonds.",
    "version": 1
  }
}