{
  "contractName": "BondMarket",
  "abi": [
    {
      "inputs": [
        {
          "internalType": "address",
          "name": "_bondTokenAddress",
          "type": "address"
        },
        {
          "internalType": "address",
          "name": "_daiAddress",
          "type": "address"
        }
      ],
      "stateMutability": "nonpayable",
      "type": "constructor"
    },
    {
      "inputs": [
        {
          "internalType": "uint256",
          "name": "salePrice",
          "type": "uint256"
        },
        {
          "internalType": "uint256",
          "name": "balance",
          "type": "uint256"
        }
      ],
      "name": "InsufficientBalance",
      "type": "error"
    },
    {
      "anonymous": false,
      "inputs": [
        {
          "indexed": true,
          "internalType": "address",
          "name": "issuer",
          "type": "address"
        },
        {
          "indexed": true,
          "internalType": "uint256",
          "name": "bondId",
          "type": "uint256"
        },
        {
          "indexed": false,
          "internalType": "uint256",
          "name": "issueDate",
          "type": "uint256"
        },
        {
          "indexed": false,
          "internalType": "bytes32",
          "name": "_name",
          "type": "bytes32"
        },
        {
          "indexed": false,
          "internalType": "uint256",
          "name": "issuePrice",
          "type": "uint256"
        },
        {
          "indexed": false,
          "internalType": "uint256",
          "name": "couponRate",
          "type": "uint256"
        },
        {
          "indexed": false,
          "internalType": "uint256",
          "name": "couponInterval",
          "type": "uint256"
        },
        {
          "indexed": false,
          "internalType": "uint256",
          "name": "maturityDate",
          "type": "uint256"
        },
        {
          "indexed": false,
          "internalType": "uint256",
          "name": "faceValue",
          "type": "uint256"
        }
      ],
      "name": "BondIssued",
      "type": "event"
    },
    {
      "anonymous": false,
      "inputs": [
        {
          "indexed": true,
          "internalType": "uint256",
          "name": "bondId",
          "type": "uint256"
        },
        {
          "indexed": false,
          "internalType": "address",
          "name": "from",
          "type": "address"
        },
        {
          "indexed": false,
          "internalType": "address",
          "name": "to",
          "type": "address"
        },
        {
          "indexed": false,
          "internalType": "uint256",
          "name": "maturityDate",
          "type": "uint256"
        },
        {
          "indexed": false,
          "internalType": "uint256",
          "name": "faceValue",
          "type": "uint256"
        }
      ],
      "name": "BondMatured",
      "type": "event"
    },
    {
      "anonymous": false,
      "inputs": [
        {
          "indexed": true,
          "internalType": "uint256",
          "name": "bondId",
          "type": "uint256"
        },
        {
          "indexed": false,
          "internalType": "address",
          "name": "from",
          "type": "address"
        },
        {
          "indexed": false,
          "internalType": "address",
          "name": "to",
          "type": "address"
        },
        {
          "indexed": false,
          "internalType": "uint256",
          "name": "salePrice",
          "type": "uint256"
        }
      ],
      "name": "BondSold",
      "type": "event"
    },
    {
      "anonymous": false,
      "inputs": [
        {
          "indexed": true,
          "internalType": "uint256",
          "name": "bondId",
          "type": "uint256"
        },
        {
          "indexed": false,
          "internalType": "address",
          "name": "from",
          "type": "address"
        },
        {
          "indexed": false,
          "internalType": "address",
          "name": "to",
          "type": "address"
        },
        {
          "indexed": false,
          "internalType": "uint256",
          "name": "couponAmount",
          "type": "uint256"
        }
      ],
      "name": "CouponPaid",
      "type": "event"
    },
    {
      "anonymous": false,
      "inputs": [
        {
          "indexed": true,
          "internalType": "uint256",
          "name": "bondId",
          "type": "uint256"
        },
        {
          "indexed": false,
          "internalType": "bytes32",
          "name": "toRating",
          "type": "bytes32"
        },
        {
          "indexed": false,
          "internalType": "uint256",
          "name": "ratingDate",
          "type": "uint256"
        }
      ],
      "name": "RatingChanged",
      "type": "event"
    },
    {
      "anonymous": false,
      "inputs": [
        {
          "indexed": true,
          "internalType": "bytes32",
          "name": "role",
          "type": "bytes32"
        },
        {
          "indexed": true,
          "internalType": "bytes32",
          "name": "previousAdminRole",
          "type": "bytes32"
        },
        {
          "indexed": true,
          "internalType": "bytes32",
          "name": "newAdminRole",
          "type": "bytes32"
        }
      ],
      "name": "RoleAdminChanged",
      "type": "event"
    },
    {
      "anonymous": false,
      "inputs": [
        {
          "indexed": true,
          "internalType": "bytes32",
          "name": "role",
          "type": "bytes32"
        },
        {
          "indexed": true,
          "internalType": "address",
          "name": "account",
          "type": "address"
        },
        {
          "indexed": true,
          "internalType": "address",
          "name": "sender",
          "type": "address"
        }
      ],
      "name": "RoleGranted",
      "type": "event"
    },
    {
      "anonymous": false,
      "inputs": [
        {
          "indexed": true,
          "internalType": "bytes32",
          "name": "role",
          "type": "bytes32"
        },
        {
          "indexed": true,
          "internalType": "address",
          "name": "account",
          "type": "address"
        },
        {
          "indexed": true,
          "internalType": "address",
          "name": "sender",
          "type": "address"
        }
      ],
      "name": "RoleRevoked",
      "type": "event"
    },
    {
      "inputs": [],
      "name": "BURNER_ROLE",
      "outputs": [
        {
          "internalType": "bytes32",
          "name": "",
          "type": "bytes32"
        }
      ],
      "stateMutability": "view",
      "type": "function",
      "constant": true
    },
    {
      "inputs": [],
      "name": "DEFAULT_ADMIN_ROLE",
      "outputs": [
        {
          "internalType": "bytes32",
          "name": "",
          "type": "bytes32"
        }
      ],
      "stateMutability": "view",
      "type": "function",
      "constant": true
    },
    {
      "inputs": [
        {
          "internalType": "uint256",
          "name": "",
          "type": "uint256"
        }
      ],
      "name": "allBondRatings",
      "outputs": [
        {
          "internalType": "bytes32",
          "name": "rating",
          "type": "bytes32"
        },
        {
          "internalType": "uint256",
          "name": "ratingDate",
          "type": "uint256"
        }
      ],
      "stateMutability": "view",
      "type": "function",
      "constant": true
    },
    {
      "inputs": [
        {
          "internalType": "uint256",
          "name": "",
          "type": "uint256"
        }
      ],
      "name": "allBondTransactions",
      "outputs": [
        {
          "internalType": "address",
          "name": "from",
          "type": "address"
        },
        {
          "internalType": "address",
          "name": "to",
          "type": "address"
        },
        {
          "internalType": "uint256",
          "name": "transPrice",
          "type": "uint256"
        },
        {
          "internalType": "uint256",
          "name": "transDate",
          "type": "uint256"
        }
      ],
      "stateMutability": "view",
      "type": "function",
      "constant": true
    },
    {
      "inputs": [
        {
          "internalType": "uint256",
          "name": "",
          "type": "uint256"
        }
      ],
      "name": "allBonds",
      "outputs": [
        {
          "internalType": "uint256",
          "name": "bondId",
          "type": "uint256"
        },
        {
          "internalType": "address",
          "name": "issuer",
          "type": "address"
        },
        {
          "internalType": "uint256",
          "name": "issueDate",
          "type": "uint256"
        },
        {
          "internalType": "bytes32",
          "name": "name",
          "type": "bytes32"
        },
        {
          "internalType": "uint256",
          "name": "salePrice",
          "type": "uint256"
        },
        {
          "internalType": "uint256",
          "name": "couponRate",
          "type": "uint256"
        },
        {
          "internalType": "uint256",
          "name": "couponInterval",
          "type": "uint256"
        },
        {
          "internalType": "uint256",
          "name": "maturityDate",
          "type": "uint256"
        },
        {
          "internalType": "uint256",
          "name": "faceValue",
          "type": "uint256"
        },
        {
          "internalType": "bool",
          "name": "forSale",
          "type": "bool"
        },
        {
          "internalType": "address",
          "name": "holder",
          "type": "address"
        }
      ],
      "stateMutability": "view",
      "type": "function",
      "constant": true
    },
    {
      "inputs": [
        {
          "internalType": "uint256",
          "name": "",
          "type": "uint256"
        },
        {
          "internalType": "uint256",
          "name": "",
          "type": "uint256"
        }
      ],
      "name": "bondRatings",
      "outputs": [
        {
          "internalType": "bytes32",
          "name": "rating",
          "type": "bytes32"
        },
        {
          "internalType": "uint256",
          "name": "ratingDate",
          "type": "uint256"
        }
      ],
      "stateMutability": "view",
      "type": "function",
      "constant": true
    },
    {
      "inputs": [],
      "name": "bondToken",
      "outputs": [
        {
          "internalType": "contract BondToken",
          "name": "",
          "type": "address"
        }
      ],
      "stateMutability": "view",
      "type": "function",
      "constant": true
    },
    {
      "inputs": [
        {
          "internalType": "uint256",
          "name": "",
          "type": "uint256"
        },
        {
          "internalType": "uint256",
          "name": "",
          "type": "uint256"
        }
      ],
      "name": "bondTransactions",
      "outputs": [
        {
          "internalType": "address",
          "name": "from",
          "type": "address"
        },
        {
          "internalType": "address",
          "name": "to",
          "type": "address"
        },
        {
          "internalType": "uint256",
          "name": "transPrice",
          "type": "uint256"
        },
        {
          "internalType": "uint256",
          "name": "transDate",
          "type": "uint256"
        }
      ],
      "stateMutability": "view",
      "type": "function",
      "constant": true
    },
    {
      "inputs": [
        {
          "internalType": "uint256",
          "name": "",
          "type": "uint256"
        }
      ],
      "name": "bonds",
      "outputs": [
        {
          "internalType": "uint256",
          "name": "bondId",
          "type": "uint256"
        },
        {
          "internalType": "address",
          "name": "issuer",
          "type": "address"
        },
        {
          "internalType": "uint256",
          "name": "issueDate",
          "type": "uint256"
        },
        {
          "internalType": "bytes32",
          "name": "name",
          "type": "bytes32"
        },
        {
          "internalType": "uint256",
          "name": "salePrice",
          "type": "uint256"
        },
        {
          "internalType": "uint256",
          "name": "couponRate",
          "type": "uint256"
        },
        {
          "internalType": "uint256",
          "name": "couponInterval",
          "type": "uint256"
        },
        {
          "internalType": "uint256",
          "name": "maturityDate",
          "type": "uint256"
        },
        {
          "internalType": "uint256",
          "name": "faceValue",
          "type": "uint256"
        },
        {
          "internalType": "bool",
          "name": "forSale",
          "type": "bool"
        },
        {
          "internalType": "address",
          "name": "holder",
          "type": "address"
        }
      ],
      "stateMutability": "view",
      "type": "function",
      "constant": true
    },
    {
      "inputs": [],
      "name": "dai",
      "outputs": [
        {
          "internalType": "contract IERC20",
          "name": "",
          "type": "address"
        }
      ],
      "stateMutability": "view",
      "type": "function",
      "constant": true
    },
    {
      "inputs": [
        {
          "internalType": "bytes32",
          "name": "role",
          "type": "bytes32"
        }
      ],
      "name": "getRoleAdmin",
      "outputs": [
        {
          "internalType": "bytes32",
          "name": "",
          "type": "bytes32"
        }
      ],
      "stateMutability": "view",
      "type": "function",
      "constant": true
    },
    {
      "inputs": [
        {
          "internalType": "bytes32",
          "name": "role",
          "type": "bytes32"
        },
        {
          "internalType": "address",
          "name": "account",
          "type": "address"
        }
      ],
      "name": "grantRole",
      "outputs": [],
      "stateMutability": "nonpayable",
      "type": "function"
    },
    {
      "inputs": [
        {
          "internalType": "bytes32",
          "name": "role",
          "type": "bytes32"
        },
        {
          "internalType": "address",
          "name": "account",
          "type": "address"
        }
      ],
      "name": "hasRole",
      "outputs": [
        {
          "internalType": "bool",
          "name": "",
          "type": "bool"
        }
      ],
      "stateMutability": "view",
      "type": "function",
      "constant": true
    },
    {
      "inputs": [
        {
          "internalType": "bytes32",
          "name": "role",
          "type": "bytes32"
        },
        {
          "internalType": "address",
          "name": "account",
          "type": "address"
        }
      ],
      "name": "renounceRole",
      "outputs": [],
      "stateMutability": "nonpayable",
      "type": "function"
    },
    {
      "inputs": [
        {
          "internalType": "bytes32",
          "name": "role",
          "type": "bytes32"
        },
        {
          "internalType": "address",
          "name": "account",
          "type": "address"
        }
      ],
      "name": "revokeRole",
      "outputs": [],
      "stateMutability": "nonpayable",
      "type": "function"
    },
    {
      "inputs": [
        {
          "internalType": "bytes4",
          "name": "interfaceId",
          "type": "bytes4"
        }
      ],
      "name": "supportsInterface",
      "outputs": [
        {
          "internalType": "bool",
          "name": "",
          "type": "bool"
        }
      ],
      "stateMutability": "view",
      "type": "function",
      "constant": true
    },
    {
      "inputs": [
        {
          "internalType": "bytes32",
          "name": "_name",
          "type": "bytes32"
        },
        {
          "internalType": "uint256",
          "name": "_salePrice",
          "type": "uint256"
        },
        {
          "internalType": "uint256",
          "name": "_couponRate",
          "type": "uint256"
        },
        {
          "internalType": "uint256",
          "name": "_couponInterval",
          "type": "uint256"
        },
        {
          "internalType": "uint256",
          "name": "_daysToMaturity",
          "type": "uint256"
        },
        {
          "internalType": "uint256",
          "name": "_faceValue",
          "type": "uint256"
        }
      ],
      "name": "issueBond",
      "outputs": [],
      "stateMutability": "nonpayable",
      "type": "function"
    },
    {
      "inputs": [
        {
          "internalType": "uint256",
          "name": "_bondId",
          "type": "uint256"
        }
      ],
      "name": "getBond",
      "outputs": [
        {
          "components": [
            {
              "internalType": "uint256",
              "name": "bondId",
              "type": "uint256"
            },
            {
              "internalType": "address",
              "name": "issuer",
              "type": "address"
            },
            {
              "internalType": "uint256",
              "name": "issueDate",
              "type": "uint256"
            },
            {
              "internalType": "bytes32",
              "name": "name",
              "type": "bytes32"
            },
            {
              "internalType": "uint256",
              "name": "salePrice",
              "type": "uint256"
            },
            {
              "internalType": "uint256",
              "name": "couponRate",
              "type": "uint256"
            },
            {
              "internalType": "uint256",
              "name": "couponInterval",
              "type": "uint256"
            },
            {
              "internalType": "uint256",
              "name": "maturityDate",
              "type": "uint256"
            },
            {
              "internalType": "uint256",
              "name": "faceValue",
              "type": "uint256"
            },
            {
              "internalType": "bool",
              "name": "forSale",
              "type": "bool"
            },
            {
              "internalType": "address",
              "name": "holder",
              "type": "address"
            }
          ],
          "internalType": "struct BondMarket.Bond",
          "name": "",
          "type": "tuple"
        }
      ],
      "stateMutability": "view",
      "type": "function",
      "constant": true
    },
    {
      "inputs": [],
      "name": "getBonds",
      "outputs": [
        {
          "components": [
            {
              "internalType": "uint256",
              "name": "bondId",
              "type": "uint256"
            },
            {
              "internalType": "address",
              "name": "issuer",
              "type": "address"
            },
            {
              "internalType": "uint256",
              "name": "issueDate",
              "type": "uint256"
            },
            {
              "internalType": "bytes32",
              "name": "name",
              "type": "bytes32"
            },
            {
              "internalType": "uint256",
              "name": "salePrice",
              "type": "uint256"
            },
            {
              "internalType": "uint256",
              "name": "couponRate",
              "type": "uint256"
            },
            {
              "internalType": "uint256",
              "name": "couponInterval",
              "type": "uint256"
            },
            {
              "internalType": "uint256",
              "name": "maturityDate",
              "type": "uint256"
            },
            {
              "internalType": "uint256",
              "name": "faceValue",
              "type": "uint256"
            },
            {
              "internalType": "bool",
              "name": "forSale",
              "type": "bool"
            },
            {
              "internalType": "address",
              "name": "holder",
              "type": "address"
            }
          ],
          "internalType": "struct BondMarket.Bond[]",
          "name": "",
          "type": "tuple[]"
        }
      ],
      "stateMutability": "view",
      "type": "function",
      "constant": true
    },
    {
      "inputs": [
        {
          "internalType": "uint256",
          "name": "_bondId",
          "type": "uint256"
        },
        {
          "internalType": "uint256",
          "name": "_salePrice",
          "type": "uint256"
        }
      ],
      "name": "offerBondForSale",
      "outputs": [],
      "stateMutability": "nonpayable",
      "type": "function"
    },
    {
      "inputs": [
        {
          "internalType": "uint256",
          "name": "_bondId",
          "type": "uint256"
        },
        {
          "internalType": "address",
          "name": "_buyer",
          "type": "address"
        },
        {
          "internalType": "uint256",
          "name": "_salePrice",
          "type": "uint256"
        }
      ],
      "name": "sellBond",
      "outputs": [],
      "stateMutability": "nonpayable",
      "type": "function"
    },
    {
      "inputs": [
        {
          "internalType": "uint256",
          "name": "_bondId",
          "type": "uint256"
        },
        {
          "internalType": "uint256",
          "name": "_salePrice",
          "type": "uint256"
        }
      ],
      "name": "buyBond",
      "outputs": [],
      "stateMutability": "nonpayable",
      "type": "function"
    },
    {
      "inputs": [
        {
          "internalType": "uint256",
          "name": "_bondId",
          "type": "uint256"
        }
      ],
      "name": "payCoupon",
      "outputs": [],
      "stateMutability": "payable",
      "type": "function",
      "payable": true
    },
    {
      "inputs": [
        {
          "internalType": "uint256",
          "name": "_bondId",
          "type": "uint256"
        }
      ],
      "name": "bondMatures",
      "outputs": [],
      "stateMutability": "payable",
      "type": "function",
      "payable": true
    },
    {
      "inputs": [
        {
          "internalType": "uint256",
          "name": "_bondId",
          "type": "uint256"
        },
        {
          "internalType": "bytes32",
          "name": "_toRating",
          "type": "bytes32"
        }
      ],
      "name": "changeRating",
      "outputs": [],
      "stateMutability": "nonpayable",
      "type": "function"
    },
    {
      "inputs": [
        {
          "internalType": "uint256",
          "name": "_bondId",
          "type": "uint256"
        }
      ],
      "name": "removeBond",
      "outputs": [],
      "stateMutability": "nonpayable",
      "type": "function"
    },
    {
      "inputs": [
        {
          "internalType": "uint256",
          "name": "_bondId",
          "type": "uint256"
        },
        {
          "internalType": "uint256",
          "name": "_parentBondId",
          "type": "uint256"
        }
      ],
      "name": "bondHierarchy",
      "outputs": [],
      "stateMutability": "nonpayable",
      "type": "function"
    }
  ],
  "bytecode": "0x60806040523480156200001157600080fd5b5060405162004530380380620045308339818101604052810190620000379190620002b9565b6200004c6000801b33620000d660201b60201c565b80600160006101000a81548173ffffffffffffffffffffffffffffffffffffffff021916908373ffffffffffffffffffffffffffffffffffffffff16021790555081600260006101000a81548173ffffffffffffffffffffffffffffffffffffffff021916908373ffffffffffffffffffffffffffffffffffffffff160217905550505062000300565b620000e88282620000ec60201b60201c565b5050565b620000fe8282620001dd60201b60201c565b620001d957600160008084815260200190815260200160002060000160008373ffffffffffffffffffffffffffffffffffffffff1673ffffffffffffffffffffffffffffffffffffffff16815260200190815260200160002060006101000a81548160ff0219169083151502179055506200017e6200024760201b60201c565b73ffffffffffffffffffffffffffffffffffffffff168173ffffffffffffffffffffffffffffffffffffffff16837f2f8788117e7eff1d82e926ec794901d17c78024a50270940304540a733656f0d60405160405180910390a45b5050565b600080600084815260200190815260200160002060000160008373ffffffffffffffffffffffffffffffffffffffff1673ffffffffffffffffffffffffffffffffffffffff16815260200190815260200160002060009054906101000a900460ff16905092915050565b600033905090565b600080fd5b600073ffffffffffffffffffffffffffffffffffffffff82169050919050565b6000620002818262000254565b9050919050565b620002938162000274565b81146200029f57600080fd5b50565b600081519050620002b38162000288565b92915050565b60008060408385031215620002d357620002d26200024f565b5b6000620002e385828601620002a2565b9250506020620002f685828601620002a2565b9150509250929050565b61422080620003106000396000f3fe60806040526004361061019c5760003560e01c80638ee1fa06116100ec578063c28f43921161008a578063d8fe764211610064578063d8fe76421461061b578063f3b44fa214610658578063f4b9fa7514610674578063fcb0c1d51461069f5761019c565b8063c28f43921461059e578063c2ca269a146105c9578063d547741f146105f25761019c565b80639539e509116100c65780639539e509146104c55780639a7f82f614610503578063a217fddf1461052c578063b4efcf4a146105575761019c565b80638ee1fa061461044357806391d148541461046c578063932e2b86146104a95761019c565b8063402f393b1161015957806355cef2d41161013357806355cef2d4146103535780635f1c17c0146103935780635f51da75146103da5780638b140f6b146104185761019c565b8063402f393b146102c15780634749155f146102ea5780634afe78421461032a5761019c565b806301ffc9a7146101a1578063225ceb1b146101de578063248a9ca314610207578063282c51f3146102445780632f2ff15d1461026f57806336568abe14610298575b600080fd5b3480156101ad57600080fd5b506101c860048036038101906101c39190612fae565b6106c8565b6040516101d59190612ff6565b60405180910390f35b3480156101ea57600080fd5b5061020560048036038101906102009190613047565b610742565b005b34801561021357600080fd5b5061022e600480360381019061022991906130bd565b610946565b60405161023b91906130f9565b60405180910390f35b34801561025057600080fd5b50610259610965565b60405161026691906130f9565b60405180910390f35b34801561027b57600080fd5b5061029660048036038101906102919190613172565b610989565b005b3480156102a457600080fd5b506102bf60048036038101906102ba9190613172565b6109b2565b005b3480156102cd57600080fd5b506102e860048036038101906102e391906131b2565b610a35565b005b3480156102f657600080fd5b50610311600480360381019061030c9190613047565b610a6b565b60405161032194939291906131fd565b60405180910390f35b34801561033657600080fd5b50610351600480360381019061034c9190613242565b610af8565b005b34801561035f57600080fd5b5061037a600480360381019061037591906131b2565b61119c565b60405161038a94939291906131fd565b60405180910390f35b34801561039f57600080fd5b506103ba60048036038101906103b591906131b2565b61121c565b6040516103d19b9a99989796959493929190613295565b60405180910390f35b3480156103e657600080fd5b5061040160048036038101906103fc9190613047565b6112c3565b60405161040f929190613340565b60405180910390f35b34801561042457600080fd5b5061042d611304565b60405161043a9190613536565b60405180910390f35b34801561044f57600080fd5b5061046a60048036038101906104659190613047565b61147b565b005b34801561047857600080fd5b50610493600480360381019061048e9190613172565b61147f565b6040516104a09190612ff6565b60405180910390f35b6104c360048036038101906104be91906131b2565b6114e9565b005b3480156104d157600080fd5b506104ec60048036038101906104e791906131b2565b61185e565b6040516104fa929190613340565b60405180910390f35b34801561050f57600080fd5b5061052a60048036038101906105259190613558565b611892565b005b34801561053857600080fd5b50610541611948565b60405161054e91906130f9565b60405180910390f35b34801561056357600080fd5b5061057e600480360381019061057991906131b2565b61194f565b6040516105959b9a99989796959493929190613295565b60405180910390f35b3480156105aa57600080fd5b506105b3611a06565b6040516105c091906135f7565b60405180910390f35b3480156105d557600080fd5b506105f060048036038101906105eb9190613047565b611a2c565b005b3480156105fe57600080fd5b5061061960048036038101906106149190613172565b612027565b005b34801561062757600080fd5b50610642600480360381019061063d91906131b2565b612050565b60405161064f91906136f3565b60405180910390f35b610672600480360381019061066d91906131b2565b612195565b005b34801561068057600080fd5b5061068961254e565b6040516106969190613730565b60405180910390f35b3480156106ab57600080fd5b506106c660048036038101906106c1919061374b565b612574565b005b60007f7965db0b000000000000000000000000000000000000000000000000000000007bffffffffffffffffffffffffffffffffffffffffffffffffffffffff1916827bffffffffffffffffffffffffffffffffffffffffffffffffffffffff1916148061073b575061073a826129ba565b5b9050919050565b81600073ffffffffffffffffffffffffffffffffffffffff166006600083815260200190815260200160002060010160009054906101000a900473ffffffffffffffffffffffffffffffffffffffff1673ffffffffffffffffffffffffffffffffffffffff1614156107e9576040517f08c379a00000000000000000000000000000000000000000000000000000000081526004016107e090613835565b60405180910390fd5b823373ffffffffffffffffffffffffffffffffffffffff166006600083815260200190815260200160002060090160019054906101000a900473ffffffffffffffffffffffffffffffffffffffff1673ffffffffffffffffffffffffffffffffffffffff161461088e576040517f08c379a0000000000000000000000000000000000000000000000000000000008152600401610885906138a1565b60405180910390fd5b82600660008681526020019081526020016000206004018190555060016006600086815260200190815260200160002060090160006101000a81548160ff02191690831515021790555082600385815481106108ed576108ec6138c1565b5b90600052602060002090600a020160040181905550600160038581548110610918576109176138c1565b5b90600052602060002090600a020160090160006101000a81548160ff02191690831515021790555050505050565b6000806000838152602001908152602001600020600101549050919050565b7f3c11d16cbaffd01df69ce1c404f6340ee057498f5f00246190ea54220576a84881565b61099282610946565b6109a38161099e612a24565b612a2c565b6109ad8383612ac9565b505050565b6109ba612a24565b73ffffffffffffffffffffffffffffffffffffffff168173ffffffffffffffffffffffffffffffffffffffff1614610a27576040517f08c379a0000000000000000000000000000000000000000000000000000000008152600401610a1e90613962565b60405180910390fd5b610a318282612ba9565b5050565b7f3c11d16cbaffd01df69ce1c404f6340ee057498f5f00246190ea54220576a848610a6781610a62612a24565b612a2c565b5050565b60076020528160005260406000208181548110610a8757600080fd5b9060005260206000209060040201600091509150508060000160009054906101000a900473ffffffffffffffffffffffffffffffffffffffff16908060010160009054906101000a900473ffffffffffffffffffffffffffffffffffffffff16908060020154908060030154905084565b82600073ffffffffffffffffffffffffffffffffffffffff166006600083815260200190815260200160002060010160009054906101000a900473ffffffffffffffffffffffffffffffffffffffff1673ffffffffffffffffffffffffffffffffffffffff161415610b9f576040517f08c379a0000000000000000000000000000000000000000000000000000000008152600401610b9690613835565b60405180910390fd5b833373ffffffffffffffffffffffffffffffffffffffff166006600083815260200190815260200160002060090160019054906101000a900473ffffffffffffffffffffffffffffffffffffffff1673ffffffffffffffffffffffffffffffffffffffff1614610c44576040517f08c379a0000000000000000000000000000000000000000000000000000000008152600401610c3b906138a1565b60405180910390fd5b600073ffffffffffffffffffffffffffffffffffffffff168473ffffffffffffffffffffffffffffffffffffffff161415610cb4576040517f08c379a0000000000000000000000000000000000000000000000000000000008152600401610cab906139ce565b60405180910390fd5b3073ffffffffffffffffffffffffffffffffffffffff168473ffffffffffffffffffffffffffffffffffffffff161415610d23576040517f08c379a0000000000000000000000000000000000000000000000000000000008152600401610d1a90613a3a565b60405180910390fd5b600115156006600087815260200190815260200160002060090160009054906101000a900460ff16151514610d8d576040517f08c379a0000000000000000000000000000000000000000000000000000000008152600401610d8490613aa6565b60405180910390fd5b82600660008781526020019081526020016000206004015414610de5576040517f08c379a0000000000000000000000000000000000000000000000000000000008152600401610ddc90613b12565b60405180910390fd5b82600160009054906101000a900473ffffffffffffffffffffffffffffffffffffffff1673ffffffffffffffffffffffffffffffffffffffff166370a08231866040518263ffffffff1660e01b8152600401610e419190613b32565b602060405180830381865afa158015610e5e573d6000803e3d6000fd5b505050506040513d601f19601f82011682018060405250810190610e829190613b62565b1015610ec3576040517f08c379a0000000000000000000000000000000000000000000000000000000008152600401610eba90613bdb565b60405180910390fd5b60006006600087815260200190815260200160002060090160019054906101000a900473ffffffffffffffffffffffffffffffffffffffff169050846006600088815260200190815260200160002060090160016101000a81548173ffffffffffffffffffffffffffffffffffffffff021916908373ffffffffffffffffffffffffffffffffffffffff16021790555060006006600088815260200190815260200160002060090160006101000a81548160ff0219169083151502179055508460038781548110610f9757610f966138c1565b5b90600052602060002090600a020160090160016101000a81548173ffffffffffffffffffffffffffffffffffffffff021916908373ffffffffffffffffffffffffffffffffffffffff160217905550600060038781548110610ffc57610ffb6138c1565b5b90600052602060002090600a020160090160006101000a81548160ff021916908315150217905550600160009054906101000a900473ffffffffffffffffffffffffffffffffffffffff1673ffffffffffffffffffffffffffffffffffffffff166323b872dd8683876040518463ffffffff1660e01b815260040161108393929190613bfb565b6020604051808303816000875af11580156110a2573d6000803e3d6000fd5b505050506040513d601f19601f820116820180604052508101906110c69190613c5e565b50600260009054906101000a900473ffffffffffffffffffffffffffffffffffffffff1673ffffffffffffffffffffffffffffffffffffffff166342842e0e8287896040518463ffffffff1660e01b815260040161112693929190613bfb565b600060405180830381600087803b15801561114057600080fd5b505af1158015611154573d6000803e3d6000fd5b50505050857f1f93e3a7383b42dfb7e2022d74956ef3996cfcba31197ea67bfdb36661ebdf2582878760405161118c93929190613bfb565b60405180910390a2505050505050565b600481815481106111ac57600080fd5b90600052602060002090600402016000915090508060000160009054906101000a900473ffffffffffffffffffffffffffffffffffffffff16908060010160009054906101000a900473ffffffffffffffffffffffffffffffffffffffff16908060020154908060030154905084565b60066020528060005260406000206000915090508060000154908060010160009054906101000a900473ffffffffffffffffffffffffffffffffffffffff16908060020154908060030154908060040154908060050154908060060154908060070154908060080154908060090160009054906101000a900460ff16908060090160019054906101000a900473ffffffffffffffffffffffffffffffffffffffff1690508b565b600860205281600052604060002081815481106112df57600080fd5b9060005260206000209060020201600091509150508060000154908060010154905082565b60606003805480602002602001604051908101604052809291908181526020016000905b8282101561147257838290600052602060002090600a020160405180610160016040529081600082015481526020016001820160009054906101000a900473ffffffffffffffffffffffffffffffffffffffff1673ffffffffffffffffffffffffffffffffffffffff1673ffffffffffffffffffffffffffffffffffffffff168152602001600282015481526020016003820154815260200160048201548152602001600582015481526020016006820154815260200160078201548152602001600882015481526020016009820160009054906101000a900460ff161515151581526020016009820160019054906101000a900473ffffffffffffffffffffffffffffffffffffffff1673ffffffffffffffffffffffffffffffffffffffff1673ffffffffffffffffffffffffffffffffffffffff168152505081526020019060010190611328565b50505050905090565b5050565b600080600084815260200190815260200160002060000160008373ffffffffffffffffffffffffffffffffffffffff1673ffffffffffffffffffffffffffffffffffffffff16815260200190815260200160002060009054906101000a900460ff16905092915050565b80600073ffffffffffffffffffffffffffffffffffffffff166006600083815260200190815260200160002060010160009054906101000a900473ffffffffffffffffffffffffffffffffffffffff1673ffffffffffffffffffffffffffffffffffffffff161415611590576040517f08c379a000000000000000000000000000000000000000000000000000000000815260040161158790613835565b60405180910390fd5b813373ffffffffffffffffffffffffffffffffffffffff166006600083815260200190815260200160002060010160009054906101000a900473ffffffffffffffffffffffffffffffffffffffff1673ffffffffffffffffffffffffffffffffffffffff1614611635576040517f08c379a000000000000000000000000000000000000000000000000000000000815260040161162c90613cd7565b60405180910390fd5b60006006600085815260200190815260200160002060080154600660008681526020019081526020016000206005015461166f9190613d26565b9050806006600086815260200190815260200160002060010160009054906101000a900473ffffffffffffffffffffffffffffffffffffffff1673ffffffffffffffffffffffffffffffffffffffff16311015611701576040517f08c379a00000000000000000000000000000000000000000000000000000000081526004016116f890613dcc565b60405180910390fd5b60006006600086815260200190815260200160002060010160009054906101000a900473ffffffffffffffffffffffffffffffffffffffff16905060006006600087815260200190815260200160002060090160019054906101000a900473ffffffffffffffffffffffffffffffffffffffff169050600160009054906101000a900473ffffffffffffffffffffffffffffffffffffffff1673ffffffffffffffffffffffffffffffffffffffff166323b872dd8383866040518463ffffffff1660e01b81526004016117d693929190613bfb565b6020604051808303816000875af11580156117f5573d6000803e3d6000fd5b505050506040513d601f19601f820116820180604052508101906118199190613c5e565b50857f2295e7904c57cdcc0be3e7d0e6fb948cb0cbd6bc95929d0291e25b002801cf9d83838660405161184e93929190613bfb565b60405180910390a2505050505050565b6005818154811061186e57600080fd5b90600052602060002090600202016000915090508060000154908060010154905082565b80600860008481526020019081526020016000206000815481106118b9576118b86138c1565b5b90600052602060002090600202016000018190555042600860008481526020019081526020016000206000815481106118f5576118f46138c1565b5b906000526020600020906002020160010181905550817f52fe5439d3b868a855d87971a4f0b000f0cb10ab2453012aaeabd179b485934b824260405161193c929190613340565b60405180910390a25050565b6000801b81565b6003818154811061195f57600080fd5b90600052602060002090600a02016000915090508060000154908060010160009054906101000a900473ffffffffffffffffffffffffffffffffffffffff16908060020154908060030154908060040154908060050154908060060154908060070154908060080154908060090160009054906101000a900460ff16908060090160019054906101000a900473ffffffffffffffffffffffffffffffffffffffff1690508b565b600260009054906101000a900473ffffffffffffffffffffffffffffffffffffffff1681565b81600073ffffffffffffffffffffffffffffffffffffffff166006600083815260200190815260200160002060010160009054906101000a900473ffffffffffffffffffffffffffffffffffffffff1673ffffffffffffffffffffffffffffffffffffffff161415611ad3576040517f08c379a0000000000000000000000000000000000000000000000000000000008152600401611aca90613835565b60405180910390fd5b600115156006600085815260200190815260200160002060090160009054906101000a900460ff16151514611b3d576040517f08c379a0000000000000000000000000000000000000000000000000000000008152600401611b3490613aa6565b60405180910390fd5b81600660008581526020019081526020016000206004015414611b95576040517f08c379a0000000000000000000000000000000000000000000000000000000008152600401611b8c90613b12565b60405180910390fd5b81600160009054906101000a900473ffffffffffffffffffffffffffffffffffffffff1673ffffffffffffffffffffffffffffffffffffffff166370a08231336040518263ffffffff1660e01b8152600401611bf19190613b32565b602060405180830381865afa158015611c0e573d6000803e3d6000fd5b505050506040513d601f19601f82011682018060405250810190611c329190613b62565b1015611c73576040517f08c379a0000000000000000000000000000000000000000000000000000000008152600401611c6a90613bdb565b60405180910390fd5b60006006600085815260200190815260200160002060090160019054906101000a900473ffffffffffffffffffffffffffffffffffffffff169050336006600086815260200190815260200160002060090160016101000a81548173ffffffffffffffffffffffffffffffffffffffff021916908373ffffffffffffffffffffffffffffffffffffffff16021790555060006006600086815260200190815260200160002060090160006101000a81548160ff0219169083151502179055503360038581548110611d4757611d466138c1565b5b90600052602060002090600a020160090160016101000a81548173ffffffffffffffffffffffffffffffffffffffff021916908373ffffffffffffffffffffffffffffffffffffffff160217905550600060038581548110611dac57611dab6138c1565b5b90600052602060002090600a020160090160006101000a81548160ff021916908315150217905550600160009054906101000a900473ffffffffffffffffffffffffffffffffffffffff1673ffffffffffffffffffffffffffffffffffffffff166323b872dd3383866040518463ffffffff1660e01b8152600401611e3393929190613bfb565b6020604051808303816000875af1158015611e52573d6000803e3d6000fd5b505050506040513d601f19601f82011682018060405250810190611e769190613c5e565b50600260009054906101000a900473ffffffffffffffffffffffffffffffffffffffff1673ffffffffffffffffffffffffffffffffffffffff166342842e0e8233876040518463ffffffff1660e01b8152600401611ed693929190613bfb565b600060405180830381600087803b158015611ef057600080fd5b505af1158015611f04573d6000803e3d6000fd5b505050506000600260009054906101000a900473ffffffffffffffffffffffffffffffffffffffff1673ffffffffffffffffffffffffffffffffffffffff16636352211e866040518263ffffffff1660e01b8152600401611f659190613dec565b602060405180830381865afa158015611f82573d6000803e3d6000fd5b505050506040513d601f19601f82011682018060405250810190611fa69190613e1c565b90503373ffffffffffffffffffffffffffffffffffffffff168173ffffffffffffffffffffffffffffffffffffffff1614611fe457611fe3613e49565b5b847f1f93e3a7383b42dfb7e2022d74956ef3996cfcba31197ea67bfdb36661ebdf2583338760405161201893929190613bfb565b60405180910390a25050505050565b61203082610946565b6120418161203c612a24565b612a2c565b61204b8383612ba9565b505050565b612058612ec6565b6006600083815260200190815260200160002060405180610160016040529081600082015481526020016001820160009054906101000a900473ffffffffffffffffffffffffffffffffffffffff1673ffffffffffffffffffffffffffffffffffffffff1673ffffffffffffffffffffffffffffffffffffffff168152602001600282015481526020016003820154815260200160048201548152602001600582015481526020016006820154815260200160078201548152602001600882015481526020016009820160009054906101000a900460ff161515151581526020016009820160019054906101000a900473ffffffffffffffffffffffffffffffffffffffff1673ffffffffffffffffffffffffffffffffffffffff1673ffffffffffffffffffffffffffffffffffffffff16815250509050919050565b803373ffffffffffffffffffffffffffffffffffffffff166006600083815260200190815260200160002060010160009054906101000a900473ffffffffffffffffffffffffffffffffffffffff1673ffffffffffffffffffffffffffffffffffffffff161461223a576040517f08c379a000000000000000000000000000000000000000000000000000000000815260040161223190613cd7565b60405180910390fd5b60006006600084815260200190815260200160002060080154905060006006600085815260200190815260200160002060070154905060006006600086815260200190815260200160002060010160009054906101000a900473ffffffffffffffffffffffffffffffffffffffff16905060006006600087815260200190815260200160002060090160019054906101000a900473ffffffffffffffffffffffffffffffffffffffff169050600160009054906101000a900473ffffffffffffffffffffffffffffffffffffffff1673ffffffffffffffffffffffffffffffffffffffff166323b872dd8383876040518463ffffffff1660e01b815260040161234593929190613bfb565b6020604051808303816000875af1158015612364573d6000803e3d6000fd5b505050506040513d601f19601f820116820180604052508101906123889190613c5e565b50600660008781526020019081526020016000206000808201600090556001820160006101000a81549073ffffffffffffffffffffffffffffffffffffffff021916905560028201600090556003820160009055600482016000905560058201600090556006820160009055600782016000905560088201600090556009820160006101000a81549060ff02191690556009820160016101000a81549073ffffffffffffffffffffffffffffffffffffffff0219169055505060038681548110612455576124546138c1565b5b90600052602060002090600a02016000808201600090556001820160006101000a81549073ffffffffffffffffffffffffffffffffffffffff021916905560028201600090556003820160009055600482016000905560058201600090556006820160009055600782016000905560088201600090556009820160006101000a81549060ff02191690556009820160016101000a81549073ffffffffffffffffffffffffffffffffffffffff02191690555050857f85366378f344a1db1f3b96410c30ca67972437de0015128bfebab23081c8d3d18383868860405161253e94939291906131fd565b60405180910390a2505050505050565b600160009054906101000a900473ffffffffffffffffffffffffffffffffffffffff1681565b60006040518060400160405280600f81526020017f746f6b656e555249202d2049504653000000000000000000000000000000000081525090506000600260009054906101000a900473ffffffffffffffffffffffffffffffffffffffff1673ffffffffffffffffffffffffffffffffffffffff1663d0def52133846040518363ffffffff1660e01b815260040161260d929190613f00565b6020604051808303816000875af115801561262c573d6000803e3d6000fd5b505050506040513d601f19601f820116820180604052508101906126509190613b62565b9050600062015180856126639190613d26565b4261266e9190613f30565b905060006040518061016001604052808481526020013373ffffffffffffffffffffffffffffffffffffffff1681526020014281526020018b81526020018a81526020018981526020018881526020018381526020018681526020016001151581526020013373ffffffffffffffffffffffffffffffffffffffff16815250905080600660008581526020019081526020016000206000820151816000015560208201518160010160006101000a81548173ffffffffffffffffffffffffffffffffffffffff021916908373ffffffffffffffffffffffffffffffffffffffff16021790555060408201518160020155606082015181600301556080820151816004015560a0820151816005015560c0820151816006015560e0820151816007015561010082015181600801556101208201518160090160006101000a81548160ff0219169083151502179055506101408201518160090160016101000a81548173ffffffffffffffffffffffffffffffffffffffff021916908373ffffffffffffffffffffffffffffffffffffffff16021790555090505060038190806001815401808255809150506001900390600052602060002090600a02016000909190919091506000820151816000015560208201518160010160006101000a81548173ffffffffffffffffffffffffffffffffffffffff021916908373ffffffffffffffffffffffffffffffffffffffff16021790555060408201518160020155606082015181600301556080820151816004015560a0820151816005015560c0820151816006015560e0820151816007015561010082015181600801556101208201518160090160006101000a81548160ff0219169083151502179055506101408201518160090160016101000a81548173ffffffffffffffffffffffffffffffffffffffff021916908373ffffffffffffffffffffffffffffffffffffffff1602179055505050823373ffffffffffffffffffffffffffffffffffffffff167feaf4f2be92b4b1b6ef8ef190bea25f59b9ba33f493358387c25a44f2ac975dbf8360400151846060015185608001518660a001518760c001518860e001518961010001516040516129a69796959493929190613f86565b60405180910390a350505050505050505050565b60007f01ffc9a7000000000000000000000000000000000000000000000000000000007bffffffffffffffffffffffffffffffffffffffffffffffffffffffff1916827bffffffffffffffffffffffffffffffffffffffffffffffffffffffff1916149050919050565b600033905090565b612a36828261147f565b612ac557612a5b8173ffffffffffffffffffffffffffffffffffffffff166014612c8a565b612a698360001c6020612c8a565b604051602001612a7a9291906140c9565b6040516020818303038152906040526040517f08c379a0000000000000000000000000000000000000000000000000000000008152600401612abc9190614103565b60405180910390fd5b5050565b612ad3828261147f565b612ba557600160008084815260200190815260200160002060000160008373ffffffffffffffffffffffffffffffffffffffff1673ffffffffffffffffffffffffffffffffffffffff16815260200190815260200160002060006101000a81548160ff021916908315150217905550612b4a612a24565b73ffffffffffffffffffffffffffffffffffffffff168173ffffffffffffffffffffffffffffffffffffffff16837f2f8788117e7eff1d82e926ec794901d17c78024a50270940304540a733656f0d60405160405180910390a45b5050565b612bb3828261147f565b15612c8657600080600084815260200190815260200160002060000160008373ffffffffffffffffffffffffffffffffffffffff1673ffffffffffffffffffffffffffffffffffffffff16815260200190815260200160002060006101000a81548160ff021916908315150217905550612c2b612a24565b73ffffffffffffffffffffffffffffffffffffffff168173ffffffffffffffffffffffffffffffffffffffff16837ff6391f5c32d9c69d2a47ea670b442974b53935d1edc7fd64eb21e047a839171b60405160405180910390a45b5050565b606060006002836002612c9d9190613d26565b612ca79190613f30565b67ffffffffffffffff811115612cc057612cbf614125565b5b6040519080825280601f01601f191660200182016040528015612cf25781602001600182028036833780820191505090505b5090507f300000000000000000000000000000000000000000000000000000000000000081600081518110612d2a57612d296138c1565b5b60200101907effffffffffffffffffffffffffffffffffffffffffffffffffffffffffffff1916908160001a9053507f780000000000000000000000000000000000000000000000000000000000000081600181518110612d8e57612d8d6138c1565b5b60200101907effffffffffffffffffffffffffffffffffffffffffffffffffffffffffffff1916908160001a90535060006001846002612dce9190613d26565b612dd89190613f30565b90505b6001811115612e78577f3031323334353637383961626364656600000000000000000000000000000000600f861660108110612e1a57612e196138c1565b5b1a60f81b828281518110612e3157612e306138c1565b5b60200101907effffffffffffffffffffffffffffffffffffffffffffffffffffffffffffff1916908160001a905350600485901c945080612e7190614154565b9050612ddb565b5060008414612ebc576040517f08c379a0000000000000000000000000000000000000000000000000000000008152600401612eb3906141ca565b60405180910390fd5b8091505092915050565b60405180610160016040528060008152602001600073ffffffffffffffffffffffffffffffffffffffff16815260200160008152602001600080191681526020016000815260200160008152602001600081526020016000815260200160008152602001600015158152602001600073ffffffffffffffffffffffffffffffffffffffff1681525090565b600080fd5b60007fffffffff0000000000000000000000000000000000000000000000000000000082169050919050565b612f8b81612f56565b8114612f9657600080fd5b50565b600081359050612fa881612f82565b92915050565b600060208284031215612fc457612fc3612f51565b5b6000612fd284828501612f99565b91505092915050565b60008115159050919050565b612ff081612fdb565b82525050565b600060208201905061300b6000830184612fe7565b92915050565b6000819050919050565b61302481613011565b811461302f57600080fd5b50565b6000813590506130418161301b565b92915050565b6000806040838503121561305e5761305d612f51565b5b600061306c85828601613032565b925050602061307d85828601613032565b9150509250929050565b6000819050919050565b61309a81613087565b81146130a557600080fd5b50565b6000813590506130b781613091565b92915050565b6000602082840312156130d3576130d2612f51565b5b60006130e1848285016130a8565b91505092915050565b6130f381613087565b82525050565b600060208201905061310e60008301846130ea565b92915050565b600073ffffffffffffffffffffffffffffffffffffffff82169050919050565b600061313f82613114565b9050919050565b61314f81613134565b811461315a57600080fd5b50565b60008135905061316c81613146565b92915050565b6000806040838503121561318957613188612f51565b5b6000613197858286016130a8565b92505060206131a88582860161315d565b9150509250929050565b6000602082840312156131c8576131c7612f51565b5b60006131d684828501613032565b91505092915050565b6131e881613134565b82525050565b6131f781613011565b82525050565b600060808201905061321260008301876131df565b61321f60208301866131df565b61322c60408301856131ee565b61323960608301846131ee565b95945050505050565b60008060006060848603121561325b5761325a612f51565b5b600061326986828701613032565b935050602061327a8682870161315d565b925050604061328b86828701613032565b9150509250925092565b6000610160820190506132ab600083018e6131ee565b6132b8602083018d6131df565b6132c5604083018c6131ee565b6132d2606083018b6130ea565b6132df608083018a6131ee565b6132ec60a08301896131ee565b6132f960c08301886131ee565b61330660e08301876131ee565b6133146101008301866131ee565b613322610120830185612fe7565b6133306101408301846131df565b9c9b505050505050505050505050565b600060408201905061335560008301856130ea565b61336260208301846131ee565b9392505050565b600081519050919050565b600082825260208201905092915050565b6000819050602082019050919050565b61339e81613011565b82525050565b6133ad81613134565b82525050565b6133bc81613087565b82525050565b6133cb81612fdb565b82525050565b610160820160008201516133e86000850182613395565b5060208201516133fb60208501826133a4565b50604082015161340e6040850182613395565b50606082015161342160608501826133b3565b5060808201516134346080850182613395565b5060a082015161344760a0850182613395565b5060c082015161345a60c0850182613395565b5060e082015161346d60e0850182613395565b50610100820151613482610100850182613395565b506101208201516134976101208501826133c2565b506101408201516134ac6101408501826133a4565b50505050565b60006134be83836133d1565b6101608301905092915050565b6000602082019050919050565b60006134e382613369565b6134ed8185613374565b93506134f883613385565b8060005b8381101561352957815161351088826134b2565b975061351b836134cb565b9250506001810190506134fc565b5085935050505092915050565b6000602082019050818103600083015261355081846134d8565b905092915050565b6000806040838503121561356f5761356e612f51565b5b600061357d85828601613032565b925050602061358e858286016130a8565b9150509250929050565b6000819050919050565b60006135bd6135b86135b384613114565b613598565b613114565b9050919050565b60006135cf826135a2565b9050919050565b60006135e1826135c4565b9050919050565b6135f1816135d6565b82525050565b600060208201905061360c60008301846135e8565b92915050565b610160820160008201516136296000850182613395565b50602082015161363c60208501826133a4565b50604082015161364f6040850182613395565b50606082015161366260608501826133b3565b5060808201516136756080850182613395565b5060a082015161368860a0850182613395565b5060c082015161369b60c0850182613395565b5060e08201516136ae60e0850182613395565b506101008201516136c3610100850182613395565b506101208201516136d86101208501826133c2565b506101408201516136ed6101408501826133a4565b50505050565b6000610160820190506137096000830184613612565b92915050565b600061371a826135c4565b9050919050565b61372a8161370f565b82525050565b60006020820190506137456000830184613721565b92915050565b60008060008060008060c0878903121561376857613767612f51565b5b600061377689828a016130a8565b965050602061378789828a01613032565b955050604061379889828a01613032565b94505060606137a989828a01613032565b93505060806137ba89828a01613032565b92505060a06137cb89828a01613032565b9150509295509295509295565b600082825260208201905092915050565b7f426f6e6420646f6573206e6f7420657869737400000000000000000000000000600082015250565b600061381f6013836137d8565b915061382a826137e9565b602082019050919050565b6000602082019050818103600083015261384e81613812565b9050919050565b7f4e6f7420426f6e6420686f6c6465720000000000000000000000000000000000600082015250565b600061388b600f836137d8565b915061389682613855565b602082019050919050565b600060208201905081810360008301526138ba8161387e565b9050919050565b7f4e487b7100000000000000000000000000000000000000000000000000000000600052603260045260246000fd5b7f416363657373436f6e74726f6c3a2063616e206f6e6c792072656e6f756e636560008201527f20726f6c657320666f722073656c660000000000000000000000000000000000602082015250565b600061394c602f836137d8565b9150613957826138f0565b604082019050919050565b6000602082019050818103600083015261397b8161393f565b9050919050565b7f6275796572206973207468652061646472657373207a65726f00000000000000600082015250565b60006139b86019836137d8565b91506139c382613982565b602082019050919050565b600060208201905081810360008301526139e7816139ab565b9050919050565b7f627579657220697320636f6e7472616374000000000000000000000000000000600082015250565b6000613a246011836137d8565b9150613a2f826139ee565b602082019050919050565b60006020820190508181036000830152613a5381613a17565b9050919050565b7f426f6e64206973206e6f7420666f722073616c65000000000000000000000000600082015250565b6000613a906014836137d8565b9150613a9b82613a5a565b602082019050919050565b60006020820190508181036000830152613abf81613a83565b9050919050565b7f496e636f72726563742053616c65205072696365000000000000000000000000600082015250565b6000613afc6014836137d8565b9150613b0782613ac6565b602082019050919050565b60006020820190508181036000830152613b2b81613aef565b9050919050565b6000602082019050613b4760008301846131df565b92915050565b600081519050613b5c8161301b565b92915050565b600060208284031215613b7857613b77612f51565b5b6000613b8684828501613b4d565b91505092915050565b7f496e73756666696369656e742066756e647320746f2062757920426f6e640000600082015250565b6000613bc5601e836137d8565b9150613bd082613b8f565b602082019050919050565b60006020820190508181036000830152613bf481613bb8565b9050919050565b6000606082019050613c1060008301866131df565b613c1d60208301856131df565b613c2a60408301846131ee565b949350505050565b613c3b81612fdb565b8114613c4657600080fd5b50565b600081519050613c5881613c32565b92915050565b600060208284031215613c7457613c73612f51565b5b6000613c8284828501613c49565b91505092915050565b7f4e6f7420426f6e64206973737565720000000000000000000000000000000000600082015250565b6000613cc1600f836137d8565b9150613ccc82613c8b565b602082019050919050565b60006020820190508181036000830152613cf081613cb4565b9050919050565b7f4e487b7100000000000000000000000000000000000000000000000000000000600052601160045260246000fd5b6000613d3182613011565b9150613d3c83613011565b9250817fffffffffffffffffffffffffffffffffffffffffffffffffffffffffffffffff0483118215151615613d7557613d74613cf7565b5b828202905092915050565b7f496e73756666696369656e742066756e647320746f2070617920636f75706f6e600082015250565b6000613db66020836137d8565b9150613dc182613d80565b602082019050919050565b60006020820190508181036000830152613de581613da9565b9050919050565b6000602082019050613e0160008301846131ee565b92915050565b600081519050613e1681613146565b92915050565b600060208284031215613e3257613e31612f51565b5b6000613e4084828501613e07565b91505092915050565b7f4e487b7100000000000000000000000000000000000000000000000000000000600052600160045260246000fd5b600081519050919050565b60005b83811015613ea1578082015181840152602081019050613e86565b83811115613eb0576000848401525b50505050565b6000601f19601f8301169050919050565b6000613ed282613e78565b613edc81856137d8565b9350613eec818560208601613e83565b613ef581613eb6565b840191505092915050565b6000604082019050613f1560008301856131df565b8181036020830152613f278184613ec7565b90509392505050565b6000613f3b82613011565b9150613f4683613011565b9250827fffffffffffffffffffffffffffffffffffffffffffffffffffffffffffffffff03821115613f7b57613f7a613cf7565b5b828201905092915050565b600060e082019050613f9b600083018a6131ee565b613fa860208301896130ea565b613fb560408301886131ee565b613fc260608301876131ee565b613fcf60808301866131ee565b613fdc60a08301856131ee565b613fe960c08301846131ee565b98975050505050505050565b600081905092915050565b7f416363657373436f6e74726f6c3a206163636f756e7420000000000000000000600082015250565b6000614036601783613ff5565b915061404182614000565b601782019050919050565b600061405782613e78565b6140618185613ff5565b9350614071818560208601613e83565b80840191505092915050565b7f206973206d697373696e6720726f6c6520000000000000000000000000000000600082015250565b60006140b3601183613ff5565b91506140be8261407d565b601182019050919050565b60006140d482614029565b91506140e0828561404c565b91506140eb826140a6565b91506140f7828461404c565b91508190509392505050565b6000602082019050818103600083015261411d8184613ec7565b905092915050565b7f4e487b7100000000000000000000000000000000000000000000000000000000600052604160045260246000fd5b600061415f82613011565b9150600082141561417357614172613cf7565b5b600182039050919050565b7f537472696e67733a20686578206c656e67746820696e73756666696369656e74600082015250565b60006141b46020836137d8565b91506141bf8261417e565b602082019050919050565b600060208201905081810360008301526141e3816141a7565b905091905056fea26469706673582212205f6b08ec413a5b9bff0edf9029b3bd0dc9b2cba3e867de14319c5e194cc5a17164736f6c634300080a0033",
  "immutableReferences": {},
  "source": "// SPDX-License-Identifier: MIT\npragma solidity 0.8.10;\n\nimport \"@openzeppelin/contracts/access/AccessControl.sol\";\nimport '@openzeppelin/contracts/token/ERC20/IERC20.sol';\nimport './BondToken.sol';\n\n// @author Simon Roope\n// @title  Fixed Income Bond NFT market place.\n// @notice The contract used to issue, trade, make coupon and maturity payments of Fixed Income Bonds.\n\ncontract BondMarket is AccessControl {\n \n  IERC20 public dai;           // @dev TODO: extend to use multiple currencies.\n  BondToken public bondToken;  // each bond has unique tokenId.\n\n  bytes32 public constant BURNER_ROLE = keccak256(\"BURNER_ROLE\");\n\n  Bond[] public allBonds; \n  BondTransaction[] public allBondTransactions;\n  BondRating[] public allBondRatings;\n\n  mapping(uint => Bond) public bonds;                            // bondId => Bond\n  mapping(uint => BondTransaction[]) public bondTransactions;    // bondId => BondTransaction \n  mapping(uint => BondRating[]) public bondRatings;              // bondId => BondRating\n\n  struct Bond {\n    uint bondId;\n    address issuer;      // issuer of bond, who pays coupons and face value on maturity.\n    uint issueDate;\n    bytes32 name;\n    uint salePrice;      // price at which the bond issuer originally sells the bond.\n    uint couponRate;     // rate of interest the bond issuer will pay on the face value of the bond, expressed as %.\n    uint couponInterval; // interval between coupon payments, i.e. dates issuer will make interest payments. Biannually\n    uint maturityDate;   // date bond will mature and the bond issuer will pay the bondholder the face value of the bond.\n    uint faceValue;      // value of bond at maturity, stated when issued and paid by issuer to current bondholder on maturity.  \n    bool forSale;        // is bond for sale.\n    address holder;      // current holder of bond and recipient of coupon.\n  }\n\n  struct BondTransaction {\n    address from;\n    address to;\n    uint transPrice;\n    uint transDate;\n  }\n\n  struct BondRating {\n    bytes32 rating;\n    uint ratingDate;\n  }\n\n  event BondIssued(address indexed issuer, uint indexed bondId, uint issueDate, bytes32 _name, uint issuePrice,\n                   uint couponRate, uint couponInterval, uint maturityDate, uint faceValue );\n  event BondSold (uint indexed bondId, address from, address to, uint salePrice );\n  event CouponPaid ( uint indexed bondId, address from, address to, uint couponAmount );\n  event BondMatured ( uint indexed bondId, address from, address to, uint maturityDate, uint faceValue );\n  event RatingChanged( uint indexed bondId, bytes32 toRating, uint ratingDate );\n\n  modifier isIssuer (uint _bondId ) {\n    require (bonds[_bondId].issuer == msg.sender, 'Not Bond issuer');\n    _;\n  }\n\n  modifier isHolder (uint _bondId ) {\n    require (bonds[_bondId].holder == msg.sender, 'Not Bond holder');\n    _;\n  }\n\n  modifier bondExists (uint _bondId ) {\n    require (bonds[_bondId].issuer != address(0), 'Bond does not exist');\n    _;\n  }\n\n  modifier checkPayment( uint256 _amount) {\n    require(dai.allowance(msg.sender, address(this)) >= _amount, \"allowance missing for token transfer\");\n    require(dai.balanceOf(msg.sender) >= _amount, \"not enough token balance\");\n    _;\n  }\n\n  error InsufficientBalance(uint salePrice, uint balance);\n\n\n  constructor ( address _bondTokenAddress, address _daiAddress ) {\n\n    _setupRole(DEFAULT_ADMIN_ROLE, msg.sender);\n\n    dai = IERC20(_daiAddress);\n    bondToken = BondToken(_bondTokenAddress); \n\n  }\n\n  function issueBond ( bytes32 _name,\n                       uint _salePrice,\n                       uint _couponRate,\n                       uint _couponInterval,\n                       uint _daysToMaturity,\n                       uint _faceValue ) public {\n\n    // @notice Mint Bond NFT to Issuer\n    // @dev TODO: Create metadata tokenURI for upload to IPFS. Metadata is owner's certificate of ownership.  \n\n    string memory bondCertificate = 'tokenURI - IPFS';\n    uint bondId = bondToken.mint(msg.sender, bondCertificate);\n\n    uint maturityDate = block.timestamp + (_daysToMaturity * 1 days);\n\n    Bond memory newBond = Bond( bondId, msg.sender, block.timestamp, _name,\n                               _salePrice, _couponRate, _couponInterval, maturityDate,\n                               _faceValue, true, msg.sender ); \n\n    bonds[bondId] = newBond;\n    allBonds.push(newBond);\n\n    // @dev TODO: Bond Rating\n\n    emit BondIssued ( msg.sender, bondId, newBond.issueDate, newBond.name, newBond.salePrice, \n                      newBond.couponRate, newBond.couponInterval, newBond.maturityDate, newBond.faceValue );\n\n  }\n\n  \n  function getBond(uint _bondId) public view returns ( Bond memory ) {\n    return bonds[_bondId];\n\n    // @dev or returns (address issuer) return(bonds[bondId].issuer);\n    // @dev or returns (address issuer) Bond storage bnd = bonds[bondId]; issuer = bnd.issuer; return issuer;\n    // @dev or returns (Bond memory) return bonds[_bondId];\n  }\n\n\n  function getBonds() public view returns ( Bond[] memory ) {\n    return allBonds; \n  }\n\n\n  function offerBondForSale ( uint _bondId, uint _salePrice ) public bondExists(_bondId) isHolder(_bondId) {\n\n    // @dev TODO: grant approval for token transfer to this contract.\n\n    bonds[_bondId].salePrice = _salePrice;\n    bonds[_bondId].forSale = true;\n\n    allBonds[_bondId].salePrice = _salePrice;\n    allBonds[_bondId].forSale = true;\n\n  }\n\n\n  function sellBond ( uint _bondId, address _buyer, uint _salePrice ) public bondExists(_bondId) isHolder(_bondId) {\n  \n    // @notice First and all subsequent sales.\n    // @dev Sale price, in ETH, set by current owner. \n    // TODO: Multiple currencies and transactions on Exchange. AMM\n\n    require(_buyer != address(0), 'buyer is the address zero');\n    require(_buyer != address(this),'buyer is contract');\n\n    //require(btk.isApprovedForAll( bonds[_bondId].holder, address(this), 'ERC721: transfer caller is not owner nor approved' );  \n    //isApprovedOrOwner(bondMarket.address,0);\n\n    require (bonds[_bondId].forSale == true, 'Bond is not for sale');\n    require (bonds[_bondId].salePrice == _salePrice, 'Incorrect Sale Price');\n    require (dai.balanceOf(_buyer) >= _salePrice, 'Insufficient funds to buy Bond');\n    \n    address seller = bonds[_bondId].holder;\n    bonds[_bondId].holder = _buyer;\n    bonds[_bondId].forSale = false;\n\n    allBonds[_bondId].holder = _buyer;\n    allBonds[_bondId].forSale = false;\n\n    dai.transferFrom(_buyer, seller, _salePrice);    \n\n    // NFT ownership. TODO: delegatecall for approval when minted\n    bondToken.safeTransferFrom(seller, _buyer, _bondId);\n\n    emit BondSold(_bondId, seller, _buyer, _salePrice);   // bondId, from, to, price\n  }\n\n\n  function buyBond ( uint _bondId, uint _salePrice ) public bondExists(_bondId) {\n\n    //require(btk.isApprovedForAll( bonds[_bondId].holder, address(this), 'ERC721: transfer caller is not owner nor approved' );  \n    require (bonds[_bondId].forSale == true, 'Bond is not for sale');\n    require (bonds[_bondId].salePrice == _salePrice, 'Incorrect Sale Price');\n\n    require (dai.balanceOf(msg.sender) >= _salePrice, 'Insufficient funds to buy Bond');\n\n    address seller = bonds[_bondId].holder;\n    bonds[_bondId].holder = msg.sender;\n    bonds[_bondId].forSale = false;\n\n    allBonds[_bondId].holder = msg.sender;\n    allBonds[_bondId].forSale = false;\n\n    dai.transferFrom(msg.sender, seller, _salePrice);   \n\n    // NFT ownership. TODO: delegatecall for approval of token transfer when minted\n    bondToken.safeTransferFrom(seller, msg.sender, _bondId);\n\n    address bondOwner = bondToken.ownerOf(_bondId);\n    assert (bondOwner == msg.sender);\n\n    emit BondSold(_bondId, seller, msg.sender, _salePrice);   // bondId, from, to, price\n  }\n\n\n  function payCoupon ( uint _bondId ) public payable bondExists(_bondId) isIssuer(_bondId) {\n\n    // Calculate coupon amount\n    uint couponAmount = bonds[_bondId].couponRate * bonds[_bondId].faceValue;\n\n    // Owner has sufficient funds or bond defaults.\n    require(bonds[_bondId].issuer.balance >= couponAmount,'Insufficient funds to pay coupon');\n\n    // TODO: Issuer defaults and no payment is made.\n\n    // Pay Coupon.\n    address issuer = bonds[_bondId].issuer;\n    address holder = bonds[_bondId].holder;\n    dai.transferFrom(issuer, holder, couponAmount);\n\n    emit CouponPaid ( _bondId, issuer, holder, couponAmount );   // from, to\n  }\n\n\n  function bondMatures ( uint _bondId ) public payable isIssuer(_bondId) {\n\n    // TODO: Link to scheduler e.g. Chainlink \n\n    uint maturityAmount = bonds[_bondId].faceValue;\n    uint maturityDate = bonds[_bondId].maturityDate;\n\n    address issuer = bonds[_bondId].issuer;\n    address holder = bonds[_bondId].holder;\n\n    // Approve first\n    dai.transferFrom(issuer, holder, maturityAmount);\n\n    // _burn token TODO: tbc if NFT is soft delete or burnt. \n    delete bonds[_bondId];\n    delete allBonds[_bondId];  // or allBonds.splice(bondId,1);\n\n    emit BondMatured ( _bondId, issuer, holder, maturityDate, maturityAmount ); \n  }\n\n\n  function changeRating ( uint _bondId, bytes32 _toRating ) public {\n  \n    bondRatings[_bondId][0].rating = _toRating;\n    bondRatings[_bondId][0].ratingDate = block.timestamp;\n\n    emit RatingChanged( _bondId, _toRating, block.timestamp );\n  }   \n\n\n  function removeBond(uint _bondId) public onlyRole(BURNER_ROLE) {\n\n    // @notice Remove a bond listing\n    // @dev Only the contract owner can call this function\n\n    // TODO: remove a bond listing entirely; _burn & delete\n    // _burn token\n    // delete bonds[_bondId];\n  }\n\n\n  function bondHierarchy ( uint _bondId, uint _parentBondId ) public {\n    // TODO: Create bond hierarchy for collaterialised debt.\n  }\n\n}\n",
  "sourcePath": "/Users/simonroope/Documents/scr/blockchain/consensys/projectFinal/bondv12/contracts/BondMarket.sol",
  "compiler": {
    "name": "solc",
    "version": "0.8.10+commit.fc410830.Emscripten.clang"
  },
  "schemaVersion": "3.4.3",
  "updatedAt": "2022-01-11T17:48:20.378Z",
  "networkType": "ethereum",
  "devdoc": {
    "kind": "dev",
    "methods": {
      "getRoleAdmin(bytes32)": {
        "details": "Returns the admin role that controls `role`. See {grantRole} and {revokeRole}. To change a role's admin, use {_setRoleAdmin}."
      },
      "grantRole(bytes32,address)": {
        "details": "Grants `role` to `account`. If `account` had not been already granted `role`, emits a {RoleGranted} event. Requirements: - the caller must have ``role``'s admin role."
      },
      "hasRole(bytes32,address)": {
        "details": "Returns `true` if `account` has been granted `role`."
      },
      "renounceRole(bytes32,address)": {
        "details": "Revokes `role` from the calling account. Roles are often managed via {grantRole} and {revokeRole}: this function's purpose is to provide a mechanism for accounts to lose their privileges if they are compromised (such as when a trusted device is misplaced). If the calling account had been revoked `role`, emits a {RoleRevoked} event. Requirements: - the caller must be `account`."
      },
      "revokeRole(bytes32,address)": {
        "details": "Revokes `role` from `account`. If `account` had been granted `role`, emits a {RoleRevoked} event. Requirements: - the caller must have ``role``'s admin role."
      },
      "supportsInterface(bytes4)": {
        "details": "See {IERC165-supportsInterface}."
      }
    },
    "version": 1
  },
  "userdoc": {
    "kind": "user",
    "methods": {},
    "version": 1
  }
}