{
  "contractName": "BondToken",
  "abi": [
    {
      "inputs": [],
      "stateMutability": "nonpayable",
      "type": "constructor"
    },
    {
      "anonymous": false,
      "inputs": [
        {
          "indexed": true,
          "internalType": "address",
          "name": "owner",
          "type": "address"
        },
        {
          "indexed": true,
          "internalType": "address",
          "name": "approved",
          "type": "address"
        },
        {
          "indexed": true,
          "internalType": "uint256",
          "name": "tokenId",
          "type": "uint256"
        }
      ],
      "name": "Approval",
      "type": "event"
    },
    {
      "anonymous": false,
      "inputs": [
        {
          "indexed": true,
          "internalType": "address",
          "name": "owner",
          "type": "address"
        },
        {
          "indexed": true,
          "internalType": "address",
          "name": "operator",
          "type": "address"
        },
        {
          "indexed": false,
          "internalType": "bool",
          "name": "approved",
          "type": "bool"
        }
      ],
      "name": "ApprovalForAll",
      "type": "event"
    },
    {
      "anonymous": false,
      "inputs": [
        {
          "indexed": false,
          "internalType": "address",
          "name": "account",
          "type": "address"
        }
      ],
      "name": "Paused",
      "type": "event"
    },
    {
      "anonymous": false,
      "inputs": [
        {
          "indexed": true,
          "internalType": "bytes32",
          "name": "role",
          "type": "bytes32"
        },
        {
          "indexed": true,
          "internalType": "bytes32",
          "name": "previousAdminRole",
          "type": "bytes32"
        },
        {
          "indexed": true,
          "internalType": "bytes32",
          "name": "newAdminRole",
          "type": "bytes32"
        }
      ],
      "name": "RoleAdminChanged",
      "type": "event"
    },
    {
      "anonymous": false,
      "inputs": [
        {
          "indexed": true,
          "internalType": "bytes32",
          "name": "role",
          "type": "bytes32"
        },
        {
          "indexed": true,
          "internalType": "address",
          "name": "account",
          "type": "address"
        },
        {
          "indexed": true,
          "internalType": "address",
          "name": "sender",
          "type": "address"
        }
      ],
      "name": "RoleGranted",
      "type": "event"
    },
    {
      "anonymous": false,
      "inputs": [
        {
          "indexed": true,
          "internalType": "bytes32",
          "name": "role",
          "type": "bytes32"
        },
        {
          "indexed": true,
          "internalType": "address",
          "name": "account",
          "type": "address"
        },
        {
          "indexed": true,
          "internalType": "address",
          "name": "sender",
          "type": "address"
        }
      ],
      "name": "RoleRevoked",
      "type": "event"
    },
    {
      "anonymous": false,
      "inputs": [
        {
          "indexed": true,
          "internalType": "address",
          "name": "from",
          "type": "address"
        },
        {
          "indexed": true,
          "internalType": "address",
          "name": "to",
          "type": "address"
        },
        {
          "indexed": true,
          "internalType": "uint256",
          "name": "tokenId",
          "type": "uint256"
        }
      ],
      "name": "Transfer",
      "type": "event"
    },
    {
      "anonymous": false,
      "inputs": [
        {
          "indexed": false,
          "internalType": "address",
          "name": "account",
          "type": "address"
        }
      ],
      "name": "Unpaused",
      "type": "event"
    },
    {
      "inputs": [],
      "name": "DEFAULT_ADMIN_ROLE",
      "outputs": [
        {
          "internalType": "bytes32",
          "name": "",
          "type": "bytes32"
        }
      ],
      "stateMutability": "view",
      "type": "function",
      "constant": true
    },
    {
      "inputs": [],
      "name": "MINTER_ROLE",
      "outputs": [
        {
          "internalType": "bytes32",
          "name": "",
          "type": "bytes32"
        }
      ],
      "stateMutability": "view",
      "type": "function",
      "constant": true
    },
    {
      "inputs": [],
      "name": "PAUSER_ROLE",
      "outputs": [
        {
          "internalType": "bytes32",
          "name": "",
          "type": "bytes32"
        }
      ],
      "stateMutability": "view",
      "type": "function",
      "constant": true
    },
    {
      "inputs": [
        {
          "internalType": "address",
          "name": "to",
          "type": "address"
        },
        {
          "internalType": "uint256",
          "name": "tokenId",
          "type": "uint256"
        }
      ],
      "name": "approve",
      "outputs": [],
      "stateMutability": "nonpayable",
      "type": "function"
    },
    {
      "inputs": [
        {
          "internalType": "address",
          "name": "owner",
          "type": "address"
        }
      ],
      "name": "balanceOf",
      "outputs": [
        {
          "internalType": "uint256",
          "name": "",
          "type": "uint256"
        }
      ],
      "stateMutability": "view",
      "type": "function",
      "constant": true
    },
    {
      "inputs": [
        {
          "internalType": "uint256",
          "name": "tokenId",
          "type": "uint256"
        }
      ],
      "name": "burn",
      "outputs": [],
      "stateMutability": "nonpayable",
      "type": "function"
    },
    {
      "inputs": [
        {
          "internalType": "uint256",
          "name": "tokenId",
          "type": "uint256"
        }
      ],
      "name": "getApproved",
      "outputs": [
        {
          "internalType": "address",
          "name": "",
          "type": "address"
        }
      ],
      "stateMutability": "view",
      "type": "function",
      "constant": true
    },
    {
      "inputs": [
        {
          "internalType": "bytes32",
          "name": "role",
          "type": "bytes32"
        }
      ],
      "name": "getRoleAdmin",
      "outputs": [
        {
          "internalType": "bytes32",
          "name": "",
          "type": "bytes32"
        }
      ],
      "stateMutability": "view",
      "type": "function",
      "constant": true
    },
    {
      "inputs": [
        {
          "internalType": "bytes32",
          "name": "role",
          "type": "bytes32"
        },
        {
          "internalType": "address",
          "name": "account",
          "type": "address"
        }
      ],
      "name": "grantRole",
      "outputs": [],
      "stateMutability": "nonpayable",
      "type": "function"
    },
    {
      "inputs": [
        {
          "internalType": "bytes32",
          "name": "role",
          "type": "bytes32"
        },
        {
          "internalType": "address",
          "name": "account",
          "type": "address"
        }
      ],
      "name": "hasRole",
      "outputs": [
        {
          "internalType": "bool",
          "name": "",
          "type": "bool"
        }
      ],
      "stateMutability": "view",
      "type": "function",
      "constant": true
    },
    {
      "inputs": [
        {
          "internalType": "address",
          "name": "owner",
          "type": "address"
        },
        {
          "internalType": "address",
          "name": "operator",
          "type": "address"
        }
      ],
      "name": "isApprovedForAll",
      "outputs": [
        {
          "internalType": "bool",
          "name": "",
          "type": "bool"
        }
      ],
      "stateMutability": "view",
      "type": "function",
      "constant": true
    },
    {
      "inputs": [],
      "name": "name",
      "outputs": [
        {
          "internalType": "string",
          "name": "",
          "type": "string"
        }
      ],
      "stateMutability": "view",
      "type": "function",
      "constant": true
    },
    {
      "inputs": [
        {
          "internalType": "uint256",
          "name": "tokenId",
          "type": "uint256"
        }
      ],
      "name": "ownerOf",
      "outputs": [
        {
          "internalType": "address",
          "name": "",
          "type": "address"
        }
      ],
      "stateMutability": "view",
      "type": "function",
      "constant": true
    },
    {
      "inputs": [],
      "name": "paused",
      "outputs": [
        {
          "internalType": "bool",
          "name": "",
          "type": "bool"
        }
      ],
      "stateMutability": "view",
      "type": "function",
      "constant": true
    },
    {
      "inputs": [
        {
          "internalType": "bytes32",
          "name": "role",
          "type": "bytes32"
        },
        {
          "internalType": "address",
          "name": "account",
          "type": "address"
        }
      ],
      "name": "renounceRole",
      "outputs": [],
      "stateMutability": "nonpayable",
      "type": "function"
    },
    {
      "inputs": [
        {
          "internalType": "bytes32",
          "name": "role",
          "type": "bytes32"
        },
        {
          "internalType": "address",
          "name": "account",
          "type": "address"
        }
      ],
      "name": "revokeRole",
      "outputs": [],
      "stateMutability": "nonpayable",
      "type": "function"
    },
    {
      "inputs": [
        {
          "internalType": "address",
          "name": "from",
          "type": "address"
        },
        {
          "internalType": "address",
          "name": "to",
          "type": "address"
        },
        {
          "internalType": "uint256",
          "name": "tokenId",
          "type": "uint256"
        }
      ],
      "name": "safeTransferFrom",
      "outputs": [],
      "stateMutability": "nonpayable",
      "type": "function"
    },
    {
      "inputs": [
        {
          "internalType": "address",
          "name": "from",
          "type": "address"
        },
        {
          "internalType": "address",
          "name": "to",
          "type": "address"
        },
        {
          "internalType": "uint256",
          "name": "tokenId",
          "type": "uint256"
        },
        {
          "internalType": "bytes",
          "name": "_data",
          "type": "bytes"
        }
      ],
      "name": "safeTransferFrom",
      "outputs": [],
      "stateMutability": "nonpayable",
      "type": "function"
    },
    {
      "inputs": [
        {
          "internalType": "address",
          "name": "operator",
          "type": "address"
        },
        {
          "internalType": "bool",
          "name": "approved",
          "type": "bool"
        }
      ],
      "name": "setApprovalForAll",
      "outputs": [],
      "stateMutability": "nonpayable",
      "type": "function"
    },
    {
      "inputs": [],
      "name": "symbol",
      "outputs": [
        {
          "internalType": "string",
          "name": "",
          "type": "string"
        }
      ],
      "stateMutability": "view",
      "type": "function",
      "constant": true
    },
    {
      "inputs": [
        {
          "internalType": "uint256",
          "name": "index",
          "type": "uint256"
        }
      ],
      "name": "tokenByIndex",
      "outputs": [
        {
          "internalType": "uint256",
          "name": "",
          "type": "uint256"
        }
      ],
      "stateMutability": "view",
      "type": "function",
      "constant": true
    },
    {
      "inputs": [
        {
          "internalType": "address",
          "name": "owner",
          "type": "address"
        },
        {
          "internalType": "uint256",
          "name": "index",
          "type": "uint256"
        }
      ],
      "name": "tokenOfOwnerByIndex",
      "outputs": [
        {
          "internalType": "uint256",
          "name": "",
          "type": "uint256"
        }
      ],
      "stateMutability": "view",
      "type": "function",
      "constant": true
    },
    {
      "inputs": [],
      "name": "totalSupply",
      "outputs": [
        {
          "internalType": "uint256",
          "name": "",
          "type": "uint256"
        }
      ],
      "stateMutability": "view",
      "type": "function",
      "constant": true
    },
    {
      "inputs": [
        {
          "internalType": "address",
          "name": "from",
          "type": "address"
        },
        {
          "internalType": "address",
          "name": "to",
          "type": "address"
        },
        {
          "internalType": "uint256",
          "name": "tokenId",
          "type": "uint256"
        }
      ],
      "name": "transferFrom",
      "outputs": [],
      "stateMutability": "nonpayable",
      "type": "function"
    },
    {
      "inputs": [
        {
          "internalType": "address",
          "name": "_issuer",
          "type": "address"
        },
        {
          "internalType": "string",
          "name": "_metadata",
          "type": "string"
        }
      ],
      "name": "mint",
      "outputs": [
        {
          "internalType": "uint256",
          "name": "",
          "type": "uint256"
        }
      ],
      "stateMutability": "nonpayable",
      "type": "function"
    },
    {
      "inputs": [
        {
          "internalType": "address",
          "name": "to",
          "type": "address"
        },
        {
          "internalType": "string",
          "name": "uri",
          "type": "string"
        }
      ],
      "name": "safeMint",
      "outputs": [],
      "stateMutability": "nonpayable",
      "type": "function"
    },
    {
      "inputs": [],
      "name": "pause",
      "outputs": [],
      "stateMutability": "nonpayable",
      "type": "function"
    },
    {
      "inputs": [],
      "name": "unpause",
      "outputs": [],
      "stateMutability": "nonpayable",
      "type": "function"
    },
    {
      "inputs": [
        {
          "internalType": "address",
          "name": "spender",
          "type": "address"
        },
        {
          "internalType": "uint256",
          "name": "tokenId",
          "type": "uint256"
        }
      ],
      "name": "isApprovedOrOwner",
      "outputs": [
        {
          "internalType": "bool",
          "name": "",
          "type": "bool"
        }
      ],
      "stateMutability": "view",
      "type": "function",
      "constant": true
    },
    {
      "inputs": [
        {
          "internalType": "uint256",
          "name": "tokenId",
          "type": "uint256"
        }
      ],
      "name": "tokenURI",
      "outputs": [
        {
          "internalType": "string",
          "name": "",
          "type": "string"
        }
      ],
      "stateMutability": "view",
      "type": "function",
      "constant": true
    },
    {
      "inputs": [
        {
          "internalType": "bytes4",
          "name": "interfaceId",
          "type": "bytes4"
        }
      ],
      "name": "supportsInterface",
      "outputs": [
        {
          "internalType": "bool",
          "name": "",
          "type": "bool"
        }
      ],
      "stateMutability": "view",
      "type": "function",
      "constant": true
    }
  ],
  "bytecode": "0x60806040523480156200001157600080fd5b506040518060400160405280601781526020017f466978656420496e636f6d6520426f6e6420546f6b656e0000000000000000008152506040518060400160405280600381526020017f4649420000000000000000000000000000000000000000000000000000000000815250816000908051906020019062000096929190620002b1565b508060019080519060200190620000af929190620002b1565b5050506000600b60006101000a81548160ff021916908315150217905550620000e26000801b336200014c60201b60201c565b620001147f65d7a28e3265b37a6474929f336521b332c1681b933f6cb9f3376673440d862a336200014c60201b60201c565b620001467f9f2df0fed2c77648de5860a4cc508cd0818c85b8b8a1ab4ceeef8d981c8956a6336200014c60201b60201c565b620003c6565b6200015e82826200023e60201b60201c565b6200023a576001600c600084815260200190815260200160002060000160008373ffffffffffffffffffffffffffffffffffffffff1673ffffffffffffffffffffffffffffffffffffffff16815260200190815260200160002060006101000a81548160ff021916908315150217905550620001df620002a960201b60201c565b73ffffffffffffffffffffffffffffffffffffffff168173ffffffffffffffffffffffffffffffffffffffff16837f2f8788117e7eff1d82e926ec794901d17c78024a50270940304540a733656f0d60405160405180910390a45b5050565b6000600c600084815260200190815260200160002060000160008373ffffffffffffffffffffffffffffffffffffffff1673ffffffffffffffffffffffffffffffffffffffff16815260200190815260200160002060009054906101000a900460ff16905092915050565b600033905090565b828054620002bf9062000390565b90600052602060002090601f016020900481019282620002e357600085556200032f565b82601f10620002fe57805160ff19168380011785556200032f565b828001600101855582156200032f579182015b828111156200032e57825182559160200191906001019062000311565b5b5090506200033e919062000342565b5090565b5b808211156200035d57600081600090555060010162000343565b5090565b7f4e487b7100000000000000000000000000000000000000000000000000000000600052602260045260246000fd5b60006002820490506001821680620003a957607f821691505b60208210811415620003c057620003bf62000361565b5b50919050565b61466480620003d66000396000f3fe608060405234801561001057600080fd5b50600436106101e55760003560e01c80635c975abb1161010f578063b88d4fde116100a2578063d539139311610071578063d5391393146105a0578063d547741f146105be578063e63ab1e9146105da578063e985e9c5146105f8576101e5565b8063b88d4fde14610508578063c87b56dd14610524578063d0def52114610554578063d204c45e14610584576101e5565b806391d14854116100de57806391d148541461048057806395d89b41146104b0578063a217fddf146104ce578063a22cb465146104ec576101e5565b80635c975abb146103f85780636352211e1461041657806370a08231146104465780638456cb5914610476576101e5565b80632f2ff15d1161018757806342842e0e1161015657806342842e0e1461036057806342966c681461037c578063430c2081146103985780634f6ccce7146103c8576101e5565b80632f2ff15d146102ee5780632f745c591461030a57806336568abe1461033a5780633f4ba83a14610356576101e5565b8063095ea7b3116101c3578063095ea7b31461026857806318160ddd1461028457806323b872dd146102a2578063248a9ca3146102be576101e5565b806301ffc9a7146101ea57806306fdde031461021a578063081812fc14610238575b600080fd5b61020460048036038101906101ff9190612de8565b610628565b6040516102119190612e30565b60405180910390f35b61022261063a565b60405161022f9190612ee4565b60405180910390f35b610252600480360381019061024d9190612f3c565b6106cc565b60405161025f9190612faa565b60405180910390f35b610282600480360381019061027d9190612ff1565b610751565b005b61028c610869565b6040516102999190613040565b60405180910390f35b6102bc60048036038101906102b7919061305b565b610876565b005b6102d860048036038101906102d391906130e4565b6108d6565b6040516102e59190613120565b60405180910390f35b6103086004803603810190610303919061313b565b6108f6565b005b610324600480360381019061031f9190612ff1565b61091f565b6040516103319190613040565b60405180910390f35b610354600480360381019061034f919061313b565b6109c4565b005b61035e610a47565b005b61037a6004803603810190610375919061305b565b610a84565b005b61039660048036038101906103919190612f3c565b610aa4565b005b6103b260048036038101906103ad9190612ff1565b610b00565b6040516103bf9190612e30565b60405180910390f35b6103e260048036038101906103dd9190612f3c565b610b19565b6040516103ef9190613040565b60405180910390f35b610400610b8a565b60405161040d9190612e30565b60405180910390f35b610430600480360381019061042b9190612f3c565b610ba1565b60405161043d9190612faa565b60405180910390f35b610460600480360381019061045b919061317b565b610c53565b60405161046d9190613040565b60405180910390f35b61047e610d0b565b005b61049a6004803603810190610495919061313b565b610d48565b6040516104a79190612e30565b60405180910390f35b6104b8610db3565b6040516104c59190612ee4565b60405180910390f35b6104d6610e45565b6040516104e39190613120565b60405180910390f35b610506600480360381019061050191906131d4565b610e4c565b005b610522600480360381019061051d9190613349565b610e62565b005b61053e60048036038101906105399190612f3c565b610ec4565b60405161054b9190612ee4565b60405180910390f35b61056e6004803603810190610569919061346d565b610ed6565b60405161057b9190613040565b60405180910390f35b61059e6004803603810190610599919061346d565b610f0d565b005b6105a8610f71565b6040516105b59190613120565b60405180910390f35b6105d860048036038101906105d3919061313b565b610f95565b005b6105e2610fbe565b6040516105ef9190613120565b60405180910390f35b610612600480360381019061060d91906134c9565b610fe2565b60405161061f9190612e30565b60405180910390f35b600061063382611076565b9050919050565b60606000805461064990613538565b80601f016020809104026020016040519081016040528092919081815260200182805461067590613538565b80156106c25780601f10610697576101008083540402835291602001916106c2565b820191906000526020600020905b8154815290600101906020018083116106a557829003601f168201915b5050505050905090565b60006106d7826110f0565b610716576040517f08c379a000000000000000000000000000000000000000000000000000000000815260040161070d906135dc565b60405180910390fd5b6004600083815260200190815260200160002060009054906101000a900473ffffffffffffffffffffffffffffffffffffffff169050919050565b600061075c82610ba1565b90508073ffffffffffffffffffffffffffffffffffffffff168373ffffffffffffffffffffffffffffffffffffffff1614156107cd576040517f08c379a00000000000000000000000000000000000000000000000000000000081526004016107c49061366e565b60405180910390fd5b8073ffffffffffffffffffffffffffffffffffffffff166107ec61115c565b73ffffffffffffffffffffffffffffffffffffffff16148061081b575061081a8161081561115c565b610fe2565b5b61085a576040517f08c379a000000000000000000000000000000000000000000000000000000000815260040161085190613700565b60405180910390fd5b6108648383611164565b505050565b6000600880549050905090565b61088761088161115c565b8261121d565b6108c6576040517f08c379a00000000000000000000000000000000000000000000000000000000081526004016108bd90613792565b60405180910390fd5b6108d18383836112fb565b505050565b6000600c6000838152602001908152602001600020600101549050919050565b6108ff826108d6565b6109108161090b61115c565b611557565b61091a83836115f4565b505050565b600061092a83610c53565b821061096b576040517f08c379a000000000000000000000000000000000000000000000000000000000815260040161096290613824565b60405180910390fd5b600660008473ffffffffffffffffffffffffffffffffffffffff1673ffffffffffffffffffffffffffffffffffffffff168152602001908152602001600020600083815260200190815260200160002054905092915050565b6109cc61115c565b73ffffffffffffffffffffffffffffffffffffffff168173ffffffffffffffffffffffffffffffffffffffff1614610a39576040517f08c379a0000000000000000000000000000000000000000000000000000000008152600401610a30906138b6565b60405180910390fd5b610a4382826116d5565b5050565b7f65d7a28e3265b37a6474929f336521b332c1681b933f6cb9f3376673440d862a610a7981610a7461115c565b611557565b610a816117b7565b50565b610a9f83838360405180602001604052806000815250610e62565b505050565b610ab5610aaf61115c565b8261121d565b610af4576040517f08c379a0000000000000000000000000000000000000000000000000000000008152600401610aeb90613948565b60405180910390fd5b610afd81611859565b50565b600080610b0d848461121d565b90508091505092915050565b6000610b23610869565b8210610b64576040517f08c379a0000000000000000000000000000000000000000000000000000000008152600401610b5b906139da565b60405180910390fd5b60088281548110610b7857610b776139fa565b5b90600052602060002001549050919050565b6000600b60009054906101000a900460ff16905090565b6000806002600084815260200190815260200160002060009054906101000a900473ffffffffffffffffffffffffffffffffffffffff169050600073ffffffffffffffffffffffffffffffffffffffff168173ffffffffffffffffffffffffffffffffffffffff161415610c4a576040517f08c379a0000000000000000000000000000000000000000000000000000000008152600401610c4190613a9b565b60405180910390fd5b80915050919050565b60008073ffffffffffffffffffffffffffffffffffffffff168273ffffffffffffffffffffffffffffffffffffffff161415610cc4576040517f08c379a0000000000000000000000000000000000000000000000000000000008152600401610cbb90613b2d565b60405180910390fd5b600360008373ffffffffffffffffffffffffffffffffffffffff1673ffffffffffffffffffffffffffffffffffffffff168152602001908152602001600020549050919050565b7f65d7a28e3265b37a6474929f336521b332c1681b933f6cb9f3376673440d862a610d3d81610d3861115c565b611557565b610d45611865565b50565b6000600c600084815260200190815260200160002060000160008373ffffffffffffffffffffffffffffffffffffffff1673ffffffffffffffffffffffffffffffffffffffff16815260200190815260200160002060009054906101000a900460ff16905092915050565b606060018054610dc290613538565b80601f0160208091040260200160405190810160405280929190818152602001828054610dee90613538565b8015610e3b5780601f10610e1057610100808354040283529160200191610e3b565b820191906000526020600020905b815481529060010190602001808311610e1e57829003601f168201915b5050505050905090565b6000801b81565b610e5e610e5761115c565b8383611908565b5050565b610e73610e6d61115c565b8361121d565b610eb2576040517f08c379a0000000000000000000000000000000000000000000000000000000008152600401610ea990613792565b60405180910390fd5b610ebe84848484611a75565b50505050565b6060610ecf82611ad1565b9050919050565b600080610ee3600d611c23565b9050610eef600d611c31565b610ef98482611c47565b610f038184611c65565b8091505092915050565b7f9f2df0fed2c77648de5860a4cc508cd0818c85b8b8a1ab4ceeef8d981c8956a6610f3f81610f3a61115c565b611557565b6000610f4b600d611c23565b9050610f57600d611c31565b610f618482611c47565b610f6b8184611c65565b50505050565b7f9f2df0fed2c77648de5860a4cc508cd0818c85b8b8a1ab4ceeef8d981c8956a681565b610f9e826108d6565b610faf81610faa61115c565b611557565b610fb983836116d5565b505050565b7f65d7a28e3265b37a6474929f336521b332c1681b933f6cb9f3376673440d862a81565b6000600560008473ffffffffffffffffffffffffffffffffffffffff1673ffffffffffffffffffffffffffffffffffffffff16815260200190815260200160002060008373ffffffffffffffffffffffffffffffffffffffff1673ffffffffffffffffffffffffffffffffffffffff16815260200190815260200160002060009054906101000a900460ff16905092915050565b60007f7965db0b000000000000000000000000000000000000000000000000000000007bffffffffffffffffffffffffffffffffffffffffffffffffffffffff1916827bffffffffffffffffffffffffffffffffffffffffffffffffffffffff191614806110e957506110e882611cd9565b5b9050919050565b60008073ffffffffffffffffffffffffffffffffffffffff166002600084815260200190815260200160002060009054906101000a900473ffffffffffffffffffffffffffffffffffffffff1673ffffffffffffffffffffffffffffffffffffffff1614159050919050565b600033905090565b816004600083815260200190815260200160002060006101000a81548173ffffffffffffffffffffffffffffffffffffffff021916908373ffffffffffffffffffffffffffffffffffffffff160217905550808273ffffffffffffffffffffffffffffffffffffffff166111d783610ba1565b73ffffffffffffffffffffffffffffffffffffffff167f8c5be1e5ebec7d5bd14f71427d1e84f3dd0314c0f7b2291e5b200ac8c7c3b92560405160405180910390a45050565b6000611228826110f0565b611267576040517f08c379a000000000000000000000000000000000000000000000000000000000815260040161125e90613bbf565b60405180910390fd5b600061127283610ba1565b90508073ffffffffffffffffffffffffffffffffffffffff168473ffffffffffffffffffffffffffffffffffffffff1614806112e157508373ffffffffffffffffffffffffffffffffffffffff166112c9846106cc565b73ffffffffffffffffffffffffffffffffffffffff16145b806112f257506112f18185610fe2565b5b91505092915050565b8273ffffffffffffffffffffffffffffffffffffffff1661131b82610ba1565b73ffffffffffffffffffffffffffffffffffffffff1614611371576040517f08c379a000000000000000000000000000000000000000000000000000000000815260040161136890613c51565b60405180910390fd5b600073ffffffffffffffffffffffffffffffffffffffff168273ffffffffffffffffffffffffffffffffffffffff1614156113e1576040517f08c379a00000000000000000000000000000000000000000000000000000000081526004016113d890613ce3565b60405180910390fd5b6113ec838383611d53565b6113f7600082611164565b6001600360008573ffffffffffffffffffffffffffffffffffffffff1673ffffffffffffffffffffffffffffffffffffffff16815260200190815260200160002060008282546114479190613d32565b925050819055506001600360008473ffffffffffffffffffffffffffffffffffffffff1673ffffffffffffffffffffffffffffffffffffffff168152602001908152602001600020600082825461149e9190613d66565b92505081905550816002600083815260200190815260200160002060006101000a81548173ffffffffffffffffffffffffffffffffffffffff021916908373ffffffffffffffffffffffffffffffffffffffff160217905550808273ffffffffffffffffffffffffffffffffffffffff168473ffffffffffffffffffffffffffffffffffffffff167fddf252ad1be2c89b69c2b068fc378daa952ba7f163c4a11628f55a4df523b3ef60405160405180910390a4505050565b6115618282610d48565b6115f0576115868173ffffffffffffffffffffffffffffffffffffffff166014611dab565b6115948360001c6020611dab565b6040516020016115a5929190613e90565b6040516020818303038152906040526040517f08c379a00000000000000000000000000000000000000000000000000000000081526004016115e79190612ee4565b60405180910390fd5b5050565b6115fe8282610d48565b6116d1576001600c600084815260200190815260200160002060000160008373ffffffffffffffffffffffffffffffffffffffff1673ffffffffffffffffffffffffffffffffffffffff16815260200190815260200160002060006101000a81548160ff02191690831515021790555061167661115c565b73ffffffffffffffffffffffffffffffffffffffff168173ffffffffffffffffffffffffffffffffffffffff16837f2f8788117e7eff1d82e926ec794901d17c78024a50270940304540a733656f0d60405160405180910390a45b5050565b6116df8282610d48565b156117b3576000600c600084815260200190815260200160002060000160008373ffffffffffffffffffffffffffffffffffffffff1673ffffffffffffffffffffffffffffffffffffffff16815260200190815260200160002060006101000a81548160ff02191690831515021790555061175861115c565b73ffffffffffffffffffffffffffffffffffffffff168173ffffffffffffffffffffffffffffffffffffffff16837ff6391f5c32d9c69d2a47ea670b442974b53935d1edc7fd64eb21e047a839171b60405160405180910390a45b5050565b6117bf610b8a565b6117fe576040517f08c379a00000000000000000000000000000000000000000000000000000000081526004016117f590613f16565b60405180910390fd5b6000600b60006101000a81548160ff0219169083151502179055507f5db9ee0a495bf2e6ff9c91a7834c1ba4fdd244a5e8aa4e537bd38aeae4b073aa61184261115c565b60405161184f9190612faa565b60405180910390a1565b61186281611fe7565b50565b61186d610b8a565b156118ad576040517f08c379a00000000000000000000000000000000000000000000000000000000081526004016118a490613f82565b60405180910390fd5b6001600b60006101000a81548160ff0219169083151502179055507f62e78cea01bee320cd4e420270b5ea74000d11b0c9f74754ebdbfc544b05a2586118f161115c565b6040516118fe9190612faa565b60405180910390a1565b8173ffffffffffffffffffffffffffffffffffffffff168373ffffffffffffffffffffffffffffffffffffffff161415611977576040517f08c379a000000000000000000000000000000000000000000000000000000000815260040161196e90613fee565b60405180910390fd5b80600560008573ffffffffffffffffffffffffffffffffffffffff1673ffffffffffffffffffffffffffffffffffffffff16815260200190815260200160002060008473ffffffffffffffffffffffffffffffffffffffff1673ffffffffffffffffffffffffffffffffffffffff16815260200190815260200160002060006101000a81548160ff0219169083151502179055508173ffffffffffffffffffffffffffffffffffffffff168373ffffffffffffffffffffffffffffffffffffffff167f17307eab39ab6107e8899845ad3d59bd9653f200f220920489ca2b5937696c3183604051611a689190612e30565b60405180910390a3505050565b611a808484846112fb565b611a8c8484848461203a565b611acb576040517f08c379a0000000000000000000000000000000000000000000000000000000008152600401611ac290614080565b60405180910390fd5b50505050565b6060611adc826110f0565b611b1b576040517f08c379a0000000000000000000000000000000000000000000000000000000008152600401611b1290614112565b60405180910390fd5b6000600a60008481526020019081526020016000208054611b3b90613538565b80601f0160208091040260200160405190810160405280929190818152602001828054611b6790613538565b8015611bb45780601f10611b8957610100808354040283529160200191611bb4565b820191906000526020600020905b815481529060010190602001808311611b9757829003601f168201915b505050505090506000611bc56121c2565b9050600081511415611bdb578192505050611c1e565b600082511115611c10578082604051602001611bf8929190614132565b60405160208183030381529060405292505050611c1e565b611c19846121d9565b925050505b919050565b600081600001549050919050565b6001816000016000828254019250508190555050565b611c61828260405180602001604052806000815250612280565b5050565b611c6e826110f0565b611cad576040517f08c379a0000000000000000000000000000000000000000000000000000000008152600401611ca4906141c8565b60405180910390fd5b80600a60008481526020019081526020016000209080519060200190611cd4929190612c99565b505050565b60007f780e9d63000000000000000000000000000000000000000000000000000000007bffffffffffffffffffffffffffffffffffffffffffffffffffffffff1916827bffffffffffffffffffffffffffffffffffffffffffffffffffffffff19161480611d4c5750611d4b826122db565b5b9050919050565b611d5b610b8a565b15611d9b576040517f08c379a0000000000000000000000000000000000000000000000000000000008152600401611d9290613f82565b60405180910390fd5b611da68383836123bd565b505050565b606060006002836002611dbe91906141e8565b611dc89190613d66565b67ffffffffffffffff811115611de157611de061321e565b5b6040519080825280601f01601f191660200182016040528015611e135781602001600182028036833780820191505090505b5090507f300000000000000000000000000000000000000000000000000000000000000081600081518110611e4b57611e4a6139fa565b5b60200101907effffffffffffffffffffffffffffffffffffffffffffffffffffffffffffff1916908160001a9053507f780000000000000000000000000000000000000000000000000000000000000081600181518110611eaf57611eae6139fa565b5b60200101907effffffffffffffffffffffffffffffffffffffffffffffffffffffffffffff1916908160001a90535060006001846002611eef91906141e8565b611ef99190613d66565b90505b6001811115611f99577f3031323334353637383961626364656600000000000000000000000000000000600f861660108110611f3b57611f3a6139fa565b5b1a60f81b828281518110611f5257611f516139fa565b5b60200101907effffffffffffffffffffffffffffffffffffffffffffffffffffffffffffff1916908160001a905350600485901c945080611f9290614242565b9050611efc565b5060008414611fdd576040517f08c379a0000000000000000000000000000000000000000000000000000000008152600401611fd4906142b8565b60405180910390fd5b8091505092915050565b611ff0816124d1565b6000600a6000838152602001908152602001600020805461201090613538565b90501461203757600a600082815260200190815260200160002060006120369190612d1f565b5b50565b600061205b8473ffffffffffffffffffffffffffffffffffffffff166125e2565b156121b5578373ffffffffffffffffffffffffffffffffffffffff1663150b7a0261208461115c565b8786866040518563ffffffff1660e01b81526004016120a6949392919061432d565b6020604051808303816000875af19250505080156120e257506040513d601f19601f820116820180604052508101906120df919061438e565b60015b612165573d8060008114612112576040519150601f19603f3d011682016040523d82523d6000602084013e612117565b606091505b5060008151141561215d576040517f08c379a000000000000000000000000000000000000000000000000000000000815260040161215490614080565b60405180910390fd5b805181602001fd5b63150b7a0260e01b7bffffffffffffffffffffffffffffffffffffffffffffffffffffffff1916817bffffffffffffffffffffffffffffffffffffffffffffffffffffffff1916149150506121ba565b600190505b949350505050565b606060405180602001604052806000815250905090565b60606121e4826110f0565b612223576040517f08c379a000000000000000000000000000000000000000000000000000000000815260040161221a9061442d565b60405180910390fd5b600061222d6121c2565b9050600081511161224d5760405180602001604052806000815250612278565b80612257846125f5565b604051602001612268929190614132565b6040516020818303038152906040525b915050919050565b61228a8383612756565b612297600084848461203a565b6122d6576040517f08c379a00000000000000000000000000000000000000000000000000000000081526004016122cd90614080565b60405180910390fd5b505050565b60007f80ac58cd000000000000000000000000000000000000000000000000000000007bffffffffffffffffffffffffffffffffffffffffffffffffffffffff1916827bffffffffffffffffffffffffffffffffffffffffffffffffffffffff191614806123a657507f5b5e139f000000000000000000000000000000000000000000000000000000007bffffffffffffffffffffffffffffffffffffffffffffffffffffffff1916827bffffffffffffffffffffffffffffffffffffffffffffffffffffffff1916145b806123b657506123b582612924565b5b9050919050565b6123c883838361298e565b600073ffffffffffffffffffffffffffffffffffffffff168373ffffffffffffffffffffffffffffffffffffffff16141561240b5761240681612993565b61244a565b8173ffffffffffffffffffffffffffffffffffffffff168373ffffffffffffffffffffffffffffffffffffffff16146124495761244883826129dc565b5b5b600073ffffffffffffffffffffffffffffffffffffffff168273ffffffffffffffffffffffffffffffffffffffff16141561248d5761248881612b49565b6124cc565b8273ffffffffffffffffffffffffffffffffffffffff168273ffffffffffffffffffffffffffffffffffffffff16146124cb576124ca8282612c1a565b5b5b505050565b60006124dc82610ba1565b90506124ea81600084611d53565b6124f5600083611164565b6001600360008373ffffffffffffffffffffffffffffffffffffffff1673ffffffffffffffffffffffffffffffffffffffff16815260200190815260200160002060008282546125459190613d32565b925050819055506002600083815260200190815260200160002060006101000a81549073ffffffffffffffffffffffffffffffffffffffff021916905581600073ffffffffffffffffffffffffffffffffffffffff168273ffffffffffffffffffffffffffffffffffffffff167fddf252ad1be2c89b69c2b068fc378daa952ba7f163c4a11628f55a4df523b3ef60405160405180910390a45050565b600080823b905060008111915050919050565b6060600082141561263d576040518060400160405280600181526020017f30000000000000000000000000000000000000000000000000000000000000008152509050612751565b600082905060005b6000821461266f5780806126589061444d565b915050600a8261266891906144c5565b9150612645565b60008167ffffffffffffffff81111561268b5761268a61321e565b5b6040519080825280601f01601f1916602001820160405280156126bd5781602001600182028036833780820191505090505b5090505b6000851461274a576001826126d69190613d32565b9150600a856126e591906144f6565b60306126f19190613d66565b60f81b818381518110612707576127066139fa565b5b60200101907effffffffffffffffffffffffffffffffffffffffffffffffffffffffffffff1916908160001a905350600a8561274391906144c5565b94506126c1565b8093505050505b919050565b600073ffffffffffffffffffffffffffffffffffffffff168273ffffffffffffffffffffffffffffffffffffffff1614156127c6576040517f08c379a00000000000000000000000000000000000000000000000000000000081526004016127bd90614573565b60405180910390fd5b6127cf816110f0565b1561280f576040517f08c379a0000000000000000000000000000000000000000000000000000000008152600401612806906145df565b60405180910390fd5b61281b60008383611d53565b6001600360008473ffffffffffffffffffffffffffffffffffffffff1673ffffffffffffffffffffffffffffffffffffffff168152602001908152602001600020600082825461286b9190613d66565b92505081905550816002600083815260200190815260200160002060006101000a81548173ffffffffffffffffffffffffffffffffffffffff021916908373ffffffffffffffffffffffffffffffffffffffff160217905550808273ffffffffffffffffffffffffffffffffffffffff16600073ffffffffffffffffffffffffffffffffffffffff167fddf252ad1be2c89b69c2b068fc378daa952ba7f163c4a11628f55a4df523b3ef60405160405180910390a45050565b60007f01ffc9a7000000000000000000000000000000000000000000000000000000007bffffffffffffffffffffffffffffffffffffffffffffffffffffffff1916827bffffffffffffffffffffffffffffffffffffffffffffffffffffffff1916149050919050565b505050565b6008805490506009600083815260200190815260200160002081905550600881908060018154018082558091505060019003906000526020600020016000909190919091505550565b600060016129e984610c53565b6129f39190613d32565b9050600060076000848152602001908152602001600020549050818114612ad8576000600660008673ffffffffffffffffffffffffffffffffffffffff1673ffffffffffffffffffffffffffffffffffffffff168152602001908152602001600020600084815260200190815260200160002054905080600660008773ffffffffffffffffffffffffffffffffffffffff1673ffffffffffffffffffffffffffffffffffffffff168152602001908152602001600020600084815260200190815260200160002081905550816007600083815260200190815260200160002081905550505b6007600084815260200190815260200160002060009055600660008573ffffffffffffffffffffffffffffffffffffffff1673ffffffffffffffffffffffffffffffffffffffff16815260200190815260200160002060008381526020019081526020016000206000905550505050565b60006001600880549050612b5d9190613d32565b9050600060096000848152602001908152602001600020549050600060088381548110612b8d57612b8c6139fa565b5b906000526020600020015490508060088381548110612baf57612bae6139fa565b5b906000526020600020018190555081600960008381526020019081526020016000208190555060096000858152602001908152602001600020600090556008805480612bfe57612bfd6145ff565b5b6001900381819060005260206000200160009055905550505050565b6000612c2583610c53565b905081600660008573ffffffffffffffffffffffffffffffffffffffff1673ffffffffffffffffffffffffffffffffffffffff168152602001908152602001600020600083815260200190815260200160002081905550806007600084815260200190815260200160002081905550505050565b828054612ca590613538565b90600052602060002090601f016020900481019282612cc75760008555612d0e565b82601f10612ce057805160ff1916838001178555612d0e565b82800160010185558215612d0e579182015b82811115612d0d578251825591602001919060010190612cf2565b5b509050612d1b9190612d5f565b5090565b508054612d2b90613538565b6000825580601f10612d3d5750612d5c565b601f016020900490600052602060002090810190612d5b9190612d5f565b5b50565b5b80821115612d78576000816000905550600101612d60565b5090565b6000604051905090565b600080fd5b600080fd5b60007fffffffff0000000000000000000000000000000000000000000000000000000082169050919050565b612dc581612d90565b8114612dd057600080fd5b50565b600081359050612de281612dbc565b92915050565b600060208284031215612dfe57612dfd612d86565b5b6000612e0c84828501612dd3565b91505092915050565b60008115159050919050565b612e2a81612e15565b82525050565b6000602082019050612e456000830184612e21565b92915050565b600081519050919050565b600082825260208201905092915050565b60005b83811015612e85578082015181840152602081019050612e6a565b83811115612e94576000848401525b50505050565b6000601f19601f8301169050919050565b6000612eb682612e4b565b612ec08185612e56565b9350612ed0818560208601612e67565b612ed981612e9a565b840191505092915050565b60006020820190508181036000830152612efe8184612eab565b905092915050565b6000819050919050565b612f1981612f06565b8114612f2457600080fd5b50565b600081359050612f3681612f10565b92915050565b600060208284031215612f5257612f51612d86565b5b6000612f6084828501612f27565b91505092915050565b600073ffffffffffffffffffffffffffffffffffffffff82169050919050565b6000612f9482612f69565b9050919050565b612fa481612f89565b82525050565b6000602082019050612fbf6000830184612f9b565b92915050565b612fce81612f89565b8114612fd957600080fd5b50565b600081359050612feb81612fc5565b92915050565b6000806040838503121561300857613007612d86565b5b600061301685828601612fdc565b925050602061302785828601612f27565b9150509250929050565b61303a81612f06565b82525050565b60006020820190506130556000830184613031565b92915050565b60008060006060848603121561307457613073612d86565b5b600061308286828701612fdc565b935050602061309386828701612fdc565b92505060406130a486828701612f27565b9150509250925092565b6000819050919050565b6130c1816130ae565b81146130cc57600080fd5b50565b6000813590506130de816130b8565b92915050565b6000602082840312156130fa576130f9612d86565b5b6000613108848285016130cf565b91505092915050565b61311a816130ae565b82525050565b60006020820190506131356000830184613111565b92915050565b6000806040838503121561315257613151612d86565b5b6000613160858286016130cf565b925050602061317185828601612fdc565b9150509250929050565b60006020828403121561319157613190612d86565b5b600061319f84828501612fdc565b91505092915050565b6131b181612e15565b81146131bc57600080fd5b50565b6000813590506131ce816131a8565b92915050565b600080604083850312156131eb576131ea612d86565b5b60006131f985828601612fdc565b925050602061320a858286016131bf565b9150509250929050565b600080fd5b600080fd5b7f4e487b7100000000000000000000000000000000000000000000000000000000600052604160045260246000fd5b61325682612e9a565b810181811067ffffffffffffffff821117156132755761327461321e565b5b80604052505050565b6000613288612d7c565b9050613294828261324d565b919050565b600067ffffffffffffffff8211156132b4576132b361321e565b5b6132bd82612e9a565b9050602081019050919050565b82818337600083830152505050565b60006132ec6132e784613299565b61327e565b90508281526020810184848401111561330857613307613219565b5b6133138482856132ca565b509392505050565b600082601f8301126133305761332f613214565b5b81356133408482602086016132d9565b91505092915050565b6000806000806080858703121561336357613362612d86565b5b600061337187828801612fdc565b945050602061338287828801612fdc565b935050604061339387828801612f27565b925050606085013567ffffffffffffffff8111156133b4576133b3612d8b565b5b6133c08782880161331b565b91505092959194509250565b600067ffffffffffffffff8211156133e7576133e661321e565b5b6133f082612e9a565b9050602081019050919050565b600061341061340b846133cc565b61327e565b90508281526020810184848401111561342c5761342b613219565b5b6134378482856132ca565b509392505050565b600082601f83011261345457613453613214565b5b81356134648482602086016133fd565b91505092915050565b6000806040838503121561348457613483612d86565b5b600061349285828601612fdc565b925050602083013567ffffffffffffffff8111156134b3576134b2612d8b565b5b6134bf8582860161343f565b9150509250929050565b600080604083850312156134e0576134df612d86565b5b60006134ee85828601612fdc565b92505060206134ff85828601612fdc565b9150509250929050565b7f4e487b7100000000000000000000000000000000000000000000000000000000600052602260045260246000fd5b6000600282049050600182168061355057607f821691505b6020821081141561356457613563613509565b5b50919050565b7f4552433732313a20617070726f76656420717565727920666f72206e6f6e657860008201527f697374656e7420746f6b656e0000000000000000000000000000000000000000602082015250565b60006135c6602c83612e56565b91506135d18261356a565b604082019050919050565b600060208201905081810360008301526135f5816135b9565b9050919050565b7f4552433732313a20617070726f76616c20746f2063757272656e74206f776e6560008201527f7200000000000000000000000000000000000000000000000000000000000000602082015250565b6000613658602183612e56565b9150613663826135fc565b604082019050919050565b600060208201905081810360008301526136878161364b565b9050919050565b7f4552433732313a20617070726f76652063616c6c6572206973206e6f74206f7760008201527f6e6572206e6f7220617070726f76656420666f7220616c6c0000000000000000602082015250565b60006136ea603883612e56565b91506136f58261368e565b604082019050919050565b60006020820190508181036000830152613719816136dd565b9050919050565b7f4552433732313a207472616e736665722063616c6c6572206973206e6f74206f60008201527f776e6572206e6f7220617070726f766564000000000000000000000000000000602082015250565b600061377c603183612e56565b915061378782613720565b604082019050919050565b600060208201905081810360008301526137ab8161376f565b9050919050565b7f455243373231456e756d657261626c653a206f776e657220696e646578206f7560008201527f74206f6620626f756e6473000000000000000000000000000000000000000000602082015250565b600061380e602b83612e56565b9150613819826137b2565b604082019050919050565b6000602082019050818103600083015261383d81613801565b9050919050565b7f416363657373436f6e74726f6c3a2063616e206f6e6c792072656e6f756e636560008201527f20726f6c657320666f722073656c660000000000000000000000000000000000602082015250565b60006138a0602f83612e56565b91506138ab82613844565b604082019050919050565b600060208201905081810360008301526138cf81613893565b9050919050565b7f4552433732314275726e61626c653a2063616c6c6572206973206e6f74206f7760008201527f6e6572206e6f7220617070726f76656400000000000000000000000000000000602082015250565b6000613932603083612e56565b915061393d826138d6565b604082019050919050565b6000602082019050818103600083015261396181613925565b9050919050565b7f455243373231456e756d657261626c653a20676c6f62616c20696e646578206f60008201527f7574206f6620626f756e64730000000000000000000000000000000000000000602082015250565b60006139c4602c83612e56565b91506139cf82613968565b604082019050919050565b600060208201905081810360008301526139f3816139b7565b9050919050565b7f4e487b7100000000000000000000000000000000000000000000000000000000600052603260045260246000fd5b7f4552433732313a206f776e657220717565727920666f72206e6f6e657869737460008201527f656e7420746f6b656e0000000000000000000000000000000000000000000000602082015250565b6000613a85602983612e56565b9150613a9082613a29565b604082019050919050565b60006020820190508181036000830152613ab481613a78565b9050919050565b7f4552433732313a2062616c616e636520717565727920666f7220746865207a6560008201527f726f206164647265737300000000000000000000000000000000000000000000602082015250565b6000613b17602a83612e56565b9150613b2282613abb565b604082019050919050565b60006020820190508181036000830152613b4681613b0a565b9050919050565b7f4552433732313a206f70657261746f7220717565727920666f72206e6f6e657860008201527f697374656e7420746f6b656e0000000000000000000000000000000000000000602082015250565b6000613ba9602c83612e56565b9150613bb482613b4d565b604082019050919050565b60006020820190508181036000830152613bd881613b9c565b9050919050565b7f4552433732313a207472616e73666572206f6620746f6b656e2074686174206960008201527f73206e6f74206f776e0000000000000000000000000000000000000000000000602082015250565b6000613c3b602983612e56565b9150613c4682613bdf565b604082019050919050565b60006020820190508181036000830152613c6a81613c2e565b9050919050565b7f4552433732313a207472616e7366657220746f20746865207a65726f2061646460008201527f7265737300000000000000000000000000000000000000000000000000000000602082015250565b6000613ccd602483612e56565b9150613cd882613c71565b604082019050919050565b60006020820190508181036000830152613cfc81613cc0565b9050919050565b7f4e487b7100000000000000000000000000000000000000000000000000000000600052601160045260246000fd5b6000613d3d82612f06565b9150613d4883612f06565b925082821015613d5b57613d5a613d03565b5b828203905092915050565b6000613d7182612f06565b9150613d7c83612f06565b9250827fffffffffffffffffffffffffffffffffffffffffffffffffffffffffffffffff03821115613db157613db0613d03565b5b828201905092915050565b600081905092915050565b7f416363657373436f6e74726f6c3a206163636f756e7420000000000000000000600082015250565b6000613dfd601783613dbc565b9150613e0882613dc7565b601782019050919050565b6000613e1e82612e4b565b613e288185613dbc565b9350613e38818560208601612e67565b80840191505092915050565b7f206973206d697373696e6720726f6c6520000000000000000000000000000000600082015250565b6000613e7a601183613dbc565b9150613e8582613e44565b601182019050919050565b6000613e9b82613df0565b9150613ea78285613e13565b9150613eb282613e6d565b9150613ebe8284613e13565b91508190509392505050565b7f5061757361626c653a206e6f7420706175736564000000000000000000000000600082015250565b6000613f00601483612e56565b9150613f0b82613eca565b602082019050919050565b60006020820190508181036000830152613f2f81613ef3565b9050919050565b7f5061757361626c653a2070617573656400000000000000000000000000000000600082015250565b6000613f6c601083612e56565b9150613f7782613f36565b602082019050919050565b60006020820190508181036000830152613f9b81613f5f565b9050919050565b7f4552433732313a20617070726f766520746f2063616c6c657200000000000000600082015250565b6000613fd8601983612e56565b9150613fe382613fa2565b602082019050919050565b6000602082019050818103600083015261400781613fcb565b9050919050565b7f4552433732313a207472616e7366657220746f206e6f6e20455243373231526560008201527f63656976657220696d706c656d656e7465720000000000000000000000000000602082015250565b600061406a603283612e56565b91506140758261400e565b604082019050919050565b600060208201905081810360008301526140998161405d565b9050919050565b7f45524337323155524953746f726167653a2055524920717565727920666f722060008201527f6e6f6e6578697374656e7420746f6b656e000000000000000000000000000000602082015250565b60006140fc603183612e56565b9150614107826140a0565b604082019050919050565b6000602082019050818103600083015261412b816140ef565b9050919050565b600061413e8285613e13565b915061414a8284613e13565b91508190509392505050565b7f45524337323155524953746f726167653a2055524920736574206f66206e6f6e60008201527f6578697374656e7420746f6b656e000000000000000000000000000000000000602082015250565b60006141b2602e83612e56565b91506141bd82614156565b604082019050919050565b600060208201905081810360008301526141e1816141a5565b9050919050565b60006141f382612f06565b91506141fe83612f06565b9250817fffffffffffffffffffffffffffffffffffffffffffffffffffffffffffffffff048311821515161561423757614236613d03565b5b828202905092915050565b600061424d82612f06565b9150600082141561426157614260613d03565b5b600182039050919050565b7f537472696e67733a20686578206c656e67746820696e73756666696369656e74600082015250565b60006142a2602083612e56565b91506142ad8261426c565b602082019050919050565b600060208201905081810360008301526142d181614295565b9050919050565b600081519050919050565b600082825260208201905092915050565b60006142ff826142d8565b61430981856142e3565b9350614319818560208601612e67565b61432281612e9a565b840191505092915050565b60006080820190506143426000830187612f9b565b61434f6020830186612f9b565b61435c6040830185613031565b818103606083015261436e81846142f4565b905095945050505050565b60008151905061438881612dbc565b92915050565b6000602082840312156143a4576143a3612d86565b5b60006143b284828501614379565b91505092915050565b7f4552433732314d657461646174613a2055524920717565727920666f72206e6f60008201527f6e6578697374656e7420746f6b656e0000000000000000000000000000000000602082015250565b6000614417602f83612e56565b9150614422826143bb565b604082019050919050565b600060208201905081810360008301526144468161440a565b9050919050565b600061445882612f06565b91507fffffffffffffffffffffffffffffffffffffffffffffffffffffffffffffffff82141561448b5761448a613d03565b5b600182019050919050565b7f4e487b7100000000000000000000000000000000000000000000000000000000600052601260045260246000fd5b60006144d082612f06565b91506144db83612f06565b9250826144eb576144ea614496565b5b828204905092915050565b600061450182612f06565b915061450c83612f06565b92508261451c5761451b614496565b5b828206905092915050565b7f4552433732313a206d696e7420746f20746865207a65726f2061646472657373600082015250565b600061455d602083612e56565b915061456882614527565b602082019050919050565b6000602082019050818103600083015261458c81614550565b9050919050565b7f4552433732313a20746f6b656e20616c7265616479206d696e74656400000000600082015250565b60006145c9601c83612e56565b91506145d482614593565b602082019050919050565b600060208201905081810360008301526145f8816145bc565b9050919050565b7f4e487b7100000000000000000000000000000000000000000000000000000000600052603160045260246000fdfea26469706673582212203751144247d919a566a0068f086d5d131bb6eafe5d496f38be480248b8f2db3364736f6c634300080a0033",
  "immutableReferences": {},
  "source": "// SPDX-License-Identifier: MIT\npragma solidity 0.8.10;\n\n// @author Simon Roope\n// @title  Fixed Income Bond NFT -- interface\n// @description The contract used to tokenise Fixed Income Bonds.\n\nimport \"@openzeppelin/contracts/token/ERC721/ERC721.sol\";\nimport \"@openzeppelin/contracts/token/ERC721/extensions/ERC721Enumerable.sol\";\nimport \"@openzeppelin/contracts/token/ERC721/extensions/ERC721URIStorage.sol\";\nimport \"@openzeppelin/contracts/security/Pausable.sol\";\nimport \"@openzeppelin/contracts/access/AccessControl.sol\";\nimport \"@openzeppelin/contracts/token/ERC721/extensions/ERC721Burnable.sol\";\nimport \"@openzeppelin/contracts/utils/Counters.sol\";\n\ncontract BondToken is ERC721, ERC721Enumerable, ERC721URIStorage, Pausable, AccessControl, ERC721Burnable {\n\n    using Counters for Counters.Counter;\n\n    bytes32 public constant PAUSER_ROLE = keccak256(\"PAUSER_ROLE\");\n    bytes32 public constant MINTER_ROLE = keccak256(\"MINTER_ROLE\");\n    Counters.Counter private _tokenIdCounter;\n\n    constructor() ERC721(\"Fixed Income Bond Token\", \"FIB\") {\n\n      _grantRole(DEFAULT_ADMIN_ROLE, msg.sender);\n      _grantRole(PAUSER_ROLE, msg.sender);\n      _grantRole(MINTER_ROLE, msg.sender);\n    }\n\n    /*\n    * Function used to mint a new NFT.\n    * Contract address & uint256 tokenId must be globally unique.\n    *\n    * _issuer: Issuer's wallet address who will receive the NFT.\n    * _hash: IPFS hash associated with the content we are creating the NFT for.\n    * _metadata: Link to bond certificate. Includes the issuer name, price, coupon rate & dates and maturity date.\n    */\n\n    function mint(address _issuer, string memory _metadata) public returns (uint) {\n\n      uint256 tokenId = _tokenIdCounter.current();\n      _tokenIdCounter.increment();\n      _safeMint(_issuer, tokenId);\n      _setTokenURI(tokenId, _metadata);\n      \n      return tokenId;\n    }\n\n    function safeMint(address to, string memory uri) public onlyRole(MINTER_ROLE) {\n\n        uint256 tokenId = _tokenIdCounter.current();\n        _tokenIdCounter.increment();\n        _safeMint(to, tokenId);\n        _setTokenURI(tokenId, uri);\n    }\n\n    function pause() public onlyRole(PAUSER_ROLE) {\n      _pause();\n    }\n\n    function unpause() public onlyRole(PAUSER_ROLE) {\n      _unpause();\n    }\n\n    function _beforeTokenTransfer(address from, address to, uint256 tokenId)\n        internal\n        whenNotPaused\n        override(ERC721, ERC721Enumerable)\n    {\n        super._beforeTokenTransfer(from, to, tokenId);\n    }\n\n    function isApprovedOrOwner(address spender, uint256 tokenId) public view returns (bool) {\n      bool isAppr = _isApprovedOrOwner(spender, tokenId);\n\n      return isAppr;\n    }\n\n\n    // The following functions are overrides required by Solidity.\n\n    function _burn(uint256 tokenId) internal override(ERC721, ERC721URIStorage) {\n        super._burn(tokenId);\n    }\n\n    function tokenURI(uint256 tokenId)\n        public\n        view\n        override(ERC721, ERC721URIStorage)\n        returns (string memory)\n    {\n        return super.tokenURI(tokenId);\n    }\n\n    function supportsInterface(bytes4 interfaceId)\n        public\n        view\n        override(ERC721, ERC721Enumerable, AccessControl)\n        returns (bool)\n    {\n        return super.supportsInterface(interfaceId);\n    }\n\n}\n",
  "sourcePath": "/Users/simonroope/Documents/scr/blockchain/consensys/projectFinal/bondv12/contracts/BondToken.sol",
  "compiler": {
    "name": "solc",
    "version": "0.8.10+commit.fc410830.Emscripten.clang"
  },
  "schemaVersion": "3.4.3",
  "updatedAt": "2022-01-11T17:48:20.236Z",
  "networkType": "ethereum",
  "devdoc": {
    "kind": "dev",
    "methods": {
      "approve(address,uint256)": {
        "details": "See {IERC721-approve}."
      },
      "balanceOf(address)": {
        "details": "See {IERC721-balanceOf}."
      },
      "burn(uint256)": {
        "details": "Burns `tokenId`. See {ERC721-_burn}. Requirements: - The caller must own `tokenId` or be an approved operator."
      },
      "getApproved(uint256)": {
        "details": "See {IERC721-getApproved}."
      },
      "getRoleAdmin(bytes32)": {
        "details": "Returns the admin role that controls `role`. See {grantRole} and {revokeRole}. To change a role's admin, use {_setRoleAdmin}."
      },
      "grantRole(bytes32,address)": {
        "details": "Grants `role` to `account`. If `account` had not been already granted `role`, emits a {RoleGranted} event. Requirements: - the caller must have ``role``'s admin role."
      },
      "hasRole(bytes32,address)": {
        "details": "Returns `true` if `account` has been granted `role`."
      },
      "isApprovedForAll(address,address)": {
        "details": "See {IERC721-isApprovedForAll}."
      },
      "name()": {
        "details": "See {IERC721Metadata-name}."
      },
      "ownerOf(uint256)": {
        "details": "See {IERC721-ownerOf}."
      },
      "paused()": {
        "details": "Returns true if the contract is paused, and false otherwise."
      },
      "renounceRole(bytes32,address)": {
        "details": "Revokes `role` from the calling account. Roles are often managed via {grantRole} and {revokeRole}: this function's purpose is to provide a mechanism for accounts to lose their privileges if they are compromised (such as when a trusted device is misplaced). If the calling account had been revoked `role`, emits a {RoleRevoked} event. Requirements: - the caller must be `account`."
      },
      "revokeRole(bytes32,address)": {
        "details": "Revokes `role` from `account`. If `account` had been granted `role`, emits a {RoleRevoked} event. Requirements: - the caller must have ``role``'s admin role."
      },
      "safeTransferFrom(address,address,uint256)": {
        "details": "See {IERC721-safeTransferFrom}."
      },
      "safeTransferFrom(address,address,uint256,bytes)": {
        "details": "See {IERC721-safeTransferFrom}."
      },
      "setApprovalForAll(address,bool)": {
        "details": "See {IERC721-setApprovalForAll}."
      },
      "symbol()": {
        "details": "See {IERC721Metadata-symbol}."
      },
      "tokenByIndex(uint256)": {
        "details": "See {IERC721Enumerable-tokenByIndex}."
      },
      "tokenOfOwnerByIndex(address,uint256)": {
        "details": "See {IERC721Enumerable-tokenOfOwnerByIndex}."
      },
      "totalSupply()": {
        "details": "See {IERC721Enumerable-totalSupply}."
      },
      "transferFrom(address,address,uint256)": {
        "details": "See {IERC721-transferFrom}."
      }
    },
    "version": 1
  },
  "userdoc": {
    "kind": "user",
    "methods": {},
    "version": 1
  }
}