{
  "contractName": "BondToken",
  "abi": [
    {
      "inputs": [],
      "stateMutability": "nonpayable",
      "type": "constructor"
    },
    {
      "anonymous": false,
      "inputs": [
        {
          "indexed": true,
          "internalType": "address",
          "name": "owner",
          "type": "address"
        },
        {
          "indexed": true,
          "internalType": "address",
          "name": "approved",
          "type": "address"
        },
        {
          "indexed": true,
          "internalType": "uint256",
          "name": "tokenId",
          "type": "uint256"
        }
      ],
      "name": "Approval",
      "type": "event"
    },
    {
      "anonymous": false,
      "inputs": [
        {
          "indexed": true,
          "internalType": "address",
          "name": "owner",
          "type": "address"
        },
        {
          "indexed": true,
          "internalType": "address",
          "name": "operator",
          "type": "address"
        },
        {
          "indexed": false,
          "internalType": "bool",
          "name": "approved",
          "type": "bool"
        }
      ],
      "name": "ApprovalForAll",
      "type": "event"
    },
    {
      "anonymous": false,
      "inputs": [
        {
          "indexed": false,
          "internalType": "address",
          "name": "account",
          "type": "address"
        }
      ],
      "name": "Paused",
      "type": "event"
    },
    {
      "anonymous": false,
      "inputs": [
        {
          "indexed": true,
          "internalType": "bytes32",
          "name": "role",
          "type": "bytes32"
        },
        {
          "indexed": true,
          "internalType": "bytes32",
          "name": "previousAdminRole",
          "type": "bytes32"
        },
        {
          "indexed": true,
          "internalType": "bytes32",
          "name": "newAdminRole",
          "type": "bytes32"
        }
      ],
      "name": "RoleAdminChanged",
      "type": "event"
    },
    {
      "anonymous": false,
      "inputs": [
        {
          "indexed": true,
          "internalType": "bytes32",
          "name": "role",
          "type": "bytes32"
        },
        {
          "indexed": true,
          "internalType": "address",
          "name": "account",
          "type": "address"
        },
        {
          "indexed": true,
          "internalType": "address",
          "name": "sender",
          "type": "address"
        }
      ],
      "name": "RoleGranted",
      "type": "event"
    },
    {
      "anonymous": false,
      "inputs": [
        {
          "indexed": true,
          "internalType": "bytes32",
          "name": "role",
          "type": "bytes32"
        },
        {
          "indexed": true,
          "internalType": "address",
          "name": "account",
          "type": "address"
        },
        {
          "indexed": true,
          "internalType": "address",
          "name": "sender",
          "type": "address"
        }
      ],
      "name": "RoleRevoked",
      "type": "event"
    },
    {
      "anonymous": false,
      "inputs": [
        {
          "indexed": true,
          "internalType": "address",
          "name": "from",
          "type": "address"
        },
        {
          "indexed": true,
          "internalType": "address",
          "name": "to",
          "type": "address"
        },
        {
          "indexed": true,
          "internalType": "uint256",
          "name": "tokenId",
          "type": "uint256"
        }
      ],
      "name": "Transfer",
      "type": "event"
    },
    {
      "anonymous": false,
      "inputs": [
        {
          "indexed": false,
          "internalType": "address",
          "name": "account",
          "type": "address"
        }
      ],
      "name": "Unpaused",
      "type": "event"
    },
    {
      "inputs": [],
      "name": "DEFAULT_ADMIN_ROLE",
      "outputs": [
        {
          "internalType": "bytes32",
          "name": "",
          "type": "bytes32"
        }
      ],
      "stateMutability": "view",
      "type": "function",
      "constant": true
    },
    {
      "inputs": [],
      "name": "MINTER_ROLE",
      "outputs": [
        {
          "internalType": "bytes32",
          "name": "",
          "type": "bytes32"
        }
      ],
      "stateMutability": "view",
      "type": "function",
      "constant": true
    },
    {
      "inputs": [],
      "name": "PAUSER_ROLE",
      "outputs": [
        {
          "internalType": "bytes32",
          "name": "",
          "type": "bytes32"
        }
      ],
      "stateMutability": "view",
      "type": "function",
      "constant": true
    },
    {
      "inputs": [
        {
          "internalType": "address",
          "name": "to",
          "type": "address"
        },
        {
          "internalType": "uint256",
          "name": "tokenId",
          "type": "uint256"
        }
      ],
      "name": "approve",
      "outputs": [],
      "stateMutability": "nonpayable",
      "type": "function"
    },
    {
      "inputs": [
        {
          "internalType": "address",
          "name": "owner",
          "type": "address"
        }
      ],
      "name": "balanceOf",
      "outputs": [
        {
          "internalType": "uint256",
          "name": "",
          "type": "uint256"
        }
      ],
      "stateMutability": "view",
      "type": "function",
      "constant": true
    },
    {
      "inputs": [
        {
          "internalType": "uint256",
          "name": "tokenId",
          "type": "uint256"
        }
      ],
      "name": "burn",
      "outputs": [],
      "stateMutability": "nonpayable",
      "type": "function"
    },
    {
      "inputs": [
        {
          "internalType": "uint256",
          "name": "tokenId",
          "type": "uint256"
        }
      ],
      "name": "getApproved",
      "outputs": [
        {
          "internalType": "address",
          "name": "",
          "type": "address"
        }
      ],
      "stateMutability": "view",
      "type": "function",
      "constant": true
    },
    {
      "inputs": [
        {
          "internalType": "bytes32",
          "name": "role",
          "type": "bytes32"
        }
      ],
      "name": "getRoleAdmin",
      "outputs": [
        {
          "internalType": "bytes32",
          "name": "",
          "type": "bytes32"
        }
      ],
      "stateMutability": "view",
      "type": "function",
      "constant": true
    },
    {
      "inputs": [
        {
          "internalType": "bytes32",
          "name": "role",
          "type": "bytes32"
        },
        {
          "internalType": "address",
          "name": "account",
          "type": "address"
        }
      ],
      "name": "grantRole",
      "outputs": [],
      "stateMutability": "nonpayable",
      "type": "function"
    },
    {
      "inputs": [
        {
          "internalType": "bytes32",
          "name": "role",
          "type": "bytes32"
        },
        {
          "internalType": "address",
          "name": "account",
          "type": "address"
        }
      ],
      "name": "hasRole",
      "outputs": [
        {
          "internalType": "bool",
          "name": "",
          "type": "bool"
        }
      ],
      "stateMutability": "view",
      "type": "function",
      "constant": true
    },
    {
      "inputs": [
        {
          "internalType": "address",
          "name": "owner",
          "type": "address"
        },
        {
          "internalType": "address",
          "name": "operator",
          "type": "address"
        }
      ],
      "name": "isApprovedForAll",
      "outputs": [
        {
          "internalType": "bool",
          "name": "",
          "type": "bool"
        }
      ],
      "stateMutability": "view",
      "type": "function",
      "constant": true
    },
    {
      "inputs": [],
      "name": "name",
      "outputs": [
        {
          "internalType": "string",
          "name": "",
          "type": "string"
        }
      ],
      "stateMutability": "view",
      "type": "function",
      "constant": true
    },
    {
      "inputs": [
        {
          "internalType": "uint256",
          "name": "tokenId",
          "type": "uint256"
        }
      ],
      "name": "ownerOf",
      "outputs": [
        {
          "internalType": "address",
          "name": "",
          "type": "address"
        }
      ],
      "stateMutability": "view",
      "type": "function",
      "constant": true
    },
    {
      "inputs": [],
      "name": "paused",
      "outputs": [
        {
          "internalType": "bool",
          "name": "",
          "type": "bool"
        }
      ],
      "stateMutability": "view",
      "type": "function",
      "constant": true
    },
    {
      "inputs": [
        {
          "internalType": "bytes32",
          "name": "role",
          "type": "bytes32"
        },
        {
          "internalType": "address",
          "name": "account",
          "type": "address"
        }
      ],
      "name": "renounceRole",
      "outputs": [],
      "stateMutability": "nonpayable",
      "type": "function"
    },
    {
      "inputs": [
        {
          "internalType": "bytes32",
          "name": "role",
          "type": "bytes32"
        },
        {
          "internalType": "address",
          "name": "account",
          "type": "address"
        }
      ],
      "name": "revokeRole",
      "outputs": [],
      "stateMutability": "nonpayable",
      "type": "function"
    },
    {
      "inputs": [
        {
          "internalType": "address",
          "name": "from",
          "type": "address"
        },
        {
          "internalType": "address",
          "name": "to",
          "type": "address"
        },
        {
          "internalType": "uint256",
          "name": "tokenId",
          "type": "uint256"
        }
      ],
      "name": "safeTransferFrom",
      "outputs": [],
      "stateMutability": "nonpayable",
      "type": "function"
    },
    {
      "inputs": [
        {
          "internalType": "address",
          "name": "from",
          "type": "address"
        },
        {
          "internalType": "address",
          "name": "to",
          "type": "address"
        },
        {
          "internalType": "uint256",
          "name": "tokenId",
          "type": "uint256"
        },
        {
          "internalType": "bytes",
          "name": "data",
          "type": "bytes"
        }
      ],
      "name": "safeTransferFrom",
      "outputs": [],
      "stateMutability": "nonpayable",
      "type": "function"
    },
    {
      "inputs": [
        {
          "internalType": "address",
          "name": "operator",
          "type": "address"
        },
        {
          "internalType": "bool",
          "name": "approved",
          "type": "bool"
        }
      ],
      "name": "setApprovalForAll",
      "outputs": [],
      "stateMutability": "nonpayable",
      "type": "function"
    },
    {
      "inputs": [],
      "name": "symbol",
      "outputs": [
        {
          "internalType": "string",
          "name": "",
          "type": "string"
        }
      ],
      "stateMutability": "view",
      "type": "function",
      "constant": true
    },
    {
      "inputs": [
        {
          "internalType": "uint256",
          "name": "index",
          "type": "uint256"
        }
      ],
      "name": "tokenByIndex",
      "outputs": [
        {
          "internalType": "uint256",
          "name": "",
          "type": "uint256"
        }
      ],
      "stateMutability": "view",
      "type": "function",
      "constant": true
    },
    {
      "inputs": [
        {
          "internalType": "address",
          "name": "owner",
          "type": "address"
        },
        {
          "internalType": "uint256",
          "name": "index",
          "type": "uint256"
        }
      ],
      "name": "tokenOfOwnerByIndex",
      "outputs": [
        {
          "internalType": "uint256",
          "name": "",
          "type": "uint256"
        }
      ],
      "stateMutability": "view",
      "type": "function",
      "constant": true
    },
    {
      "inputs": [],
      "name": "totalSupply",
      "outputs": [
        {
          "internalType": "uint256",
          "name": "",
          "type": "uint256"
        }
      ],
      "stateMutability": "view",
      "type": "function",
      "constant": true
    },
    {
      "inputs": [
        {
          "internalType": "address",
          "name": "from",
          "type": "address"
        },
        {
          "internalType": "address",
          "name": "to",
          "type": "address"
        },
        {
          "internalType": "uint256",
          "name": "tokenId",
          "type": "uint256"
        }
      ],
      "name": "transferFrom",
      "outputs": [],
      "stateMutability": "nonpayable",
      "type": "function"
    },
    {
      "inputs": [
        {
          "internalType": "address",
          "name": "_issuer",
          "type": "address"
        },
        {
          "internalType": "string",
          "name": "_metadata",
          "type": "string"
        }
      ],
      "name": "mint",
      "outputs": [
        {
          "internalType": "uint256",
          "name": "",
          "type": "uint256"
        }
      ],
      "stateMutability": "nonpayable",
      "type": "function"
    },
    {
      "inputs": [
        {
          "internalType": "address",
          "name": "to",
          "type": "address"
        },
        {
          "internalType": "string",
          "name": "uri",
          "type": "string"
        }
      ],
      "name": "safeMint",
      "outputs": [],
      "stateMutability": "nonpayable",
      "type": "function"
    },
    {
      "inputs": [],
      "name": "pause",
      "outputs": [],
      "stateMutability": "nonpayable",
      "type": "function"
    },
    {
      "inputs": [],
      "name": "unpause",
      "outputs": [],
      "stateMutability": "nonpayable",
      "type": "function"
    },
    {
      "inputs": [
        {
          "internalType": "address",
          "name": "spender",
          "type": "address"
        },
        {
          "internalType": "uint256",
          "name": "tokenId",
          "type": "uint256"
        }
      ],
      "name": "isApprovedOrOwner",
      "outputs": [
        {
          "internalType": "bool",
          "name": "",
          "type": "bool"
        }
      ],
      "stateMutability": "view",
      "type": "function",
      "constant": true
    },
    {
      "inputs": [
        {
          "internalType": "uint256",
          "name": "tokenId",
          "type": "uint256"
        }
      ],
      "name": "tokenURI",
      "outputs": [
        {
          "internalType": "string",
          "name": "",
          "type": "string"
        }
      ],
      "stateMutability": "view",
      "type": "function",
      "constant": true
    },
    {
      "inputs": [
        {
          "internalType": "bytes4",
          "name": "interfaceId",
          "type": "bytes4"
        }
      ],
      "name": "supportsInterface",
      "outputs": [
        {
          "internalType": "bool",
          "name": "",
          "type": "bool"
        }
      ],
      "stateMutability": "view",
      "type": "function",
      "constant": true
    }
  ],
  "bytecode": "0x60806040523480156200001157600080fd5b506040518060400160405280601781526020017f466978656420496e636f6d6520426f6e6420546f6b656e0000000000000000008152506040518060400160405280600381526020017f4649420000000000000000000000000000000000000000000000000000000000815250816000908051906020019062000096929190620002b1565b508060019080519060200190620000af929190620002b1565b5050506000600b60006101000a81548160ff021916908315150217905550620000e26000801b336200014c60201b60201c565b620001147f65d7a28e3265b37a6474929f336521b332c1681b933f6cb9f3376673440d862a336200014c60201b60201c565b620001467f9f2df0fed2c77648de5860a4cc508cd0818c85b8b8a1ab4ceeef8d981c8956a6336200014c60201b60201c565b620003c6565b6200015e82826200023e60201b60201c565b6200023a576001600c600084815260200190815260200160002060000160008373ffffffffffffffffffffffffffffffffffffffff1673ffffffffffffffffffffffffffffffffffffffff16815260200190815260200160002060006101000a81548160ff021916908315150217905550620001df620002a960201b60201c565b73ffffffffffffffffffffffffffffffffffffffff168173ffffffffffffffffffffffffffffffffffffffff16837f2f8788117e7eff1d82e926ec794901d17c78024a50270940304540a733656f0d60405160405180910390a45b5050565b6000600c600084815260200190815260200160002060000160008373ffffffffffffffffffffffffffffffffffffffff1673ffffffffffffffffffffffffffffffffffffffff16815260200190815260200160002060009054906101000a900460ff16905092915050565b600033905090565b828054620002bf9062000390565b90600052602060002090601f016020900481019282620002e357600085556200032f565b82601f10620002fe57805160ff19168380011785556200032f565b828001600101855582156200032f579182015b828111156200032e57825182559160200191906001019062000311565b5b5090506200033e919062000342565b5090565b5b808211156200035d57600081600090555060010162000343565b5090565b7f4e487b7100000000000000000000000000000000000000000000000000000000600052602260045260246000fd5b60006002820490506001821680620003a957607f821691505b60208210811415620003c057620003bf62000361565b5b50919050565b6145c680620003d66000396000f3fe608060405234801561001057600080fd5b50600436106101e55760003560e01c80635c975abb1161010f578063b88d4fde116100a2578063d539139311610071578063d5391393146105a0578063d547741f146105be578063e63ab1e9146105da578063e985e9c5146105f8576101e5565b8063b88d4fde14610508578063c87b56dd14610524578063d0def52114610554578063d204c45e14610584576101e5565b806391d14854116100de57806391d148541461048057806395d89b41146104b0578063a217fddf146104ce578063a22cb465146104ec576101e5565b80635c975abb146103f85780636352211e1461041657806370a08231146104465780638456cb5914610476576101e5565b80632f2ff15d1161018757806342842e0e1161015657806342842e0e1461036057806342966c681461037c578063430c2081146103985780634f6ccce7146103c8576101e5565b80632f2ff15d146102ee5780632f745c591461030a57806336568abe1461033a5780633f4ba83a14610356576101e5565b8063095ea7b3116101c3578063095ea7b31461026857806318160ddd1461028457806323b872dd146102a2578063248a9ca3146102be576101e5565b806301ffc9a7146101ea57806306fdde031461021a578063081812fc14610238575b600080fd5b61020460048036038101906101ff9190613063565b610628565b60405161021191906130ab565b60405180910390f35b61022261063a565b60405161022f919061315f565b60405180910390f35b610252600480360381019061024d91906131b7565b6106cc565b60405161025f9190613225565b60405180910390f35b610282600480360381019061027d919061326c565b610712565b005b61028c61082a565b60405161029991906132bb565b60405180910390f35b6102bc60048036038101906102b791906132d6565b610837565b005b6102d860048036038101906102d3919061335f565b610897565b6040516102e5919061339b565b60405180910390f35b610308600480360381019061030391906133b6565b6108b7565b005b610324600480360381019061031f919061326c565b6108d8565b60405161033191906132bb565b60405180910390f35b610354600480360381019061034f91906133b6565b61097d565b005b61035e610a00565b005b61037a600480360381019061037591906132d6565b610a35565b005b610396600480360381019061039191906131b7565b610a55565b005b6103b260048036038101906103ad919061326c565b610ab1565b6040516103bf91906130ab565b60405180910390f35b6103e260048036038101906103dd91906131b7565b610aca565b6040516103ef91906132bb565b60405180910390f35b610400610b3b565b60405161040d91906130ab565b60405180910390f35b610430600480360381019061042b91906131b7565b610b52565b60405161043d9190613225565b60405180910390f35b610460600480360381019061045b91906133f6565b610bd9565b60405161046d91906132bb565b60405180910390f35b61047e610c91565b005b61049a600480360381019061049591906133b6565b610cc6565b6040516104a791906130ab565b60405180910390f35b6104b8610d31565b6040516104c5919061315f565b60405180910390f35b6104d6610dc3565b6040516104e3919061339b565b60405180910390f35b6105066004803603810190610501919061344f565b610dca565b005b610522600480360381019061051d91906135c4565b610de0565b005b61053e600480360381019061053991906131b7565b610e42565b60405161054b919061315f565b60405180910390f35b61056e600480360381019061056991906136e8565b610e54565b60405161057b91906132bb565b60405180910390f35b61059e600480360381019061059991906136e8565b610e8b565b005b6105a8610ee7565b6040516105b5919061339b565b60405180910390f35b6105d860048036038101906105d391906133b6565b610f0b565b005b6105e2610f2c565b6040516105ef919061339b565b60405180910390f35b610612600480360381019061060d9190613744565b610f50565b60405161061f91906130ab565b60405180910390f35b600061063382610fe4565b9050919050565b606060008054610649906137b3565b80601f0160208091040260200160405190810160405280929190818152602001828054610675906137b3565b80156106c25780601f10610697576101008083540402835291602001916106c2565b820191906000526020600020905b8154815290600101906020018083116106a557829003601f168201915b5050505050905090565b60006106d78261105e565b6004600083815260200190815260200160002060009054906101000a900473ffffffffffffffffffffffffffffffffffffffff169050919050565b600061071d82610b52565b90508073ffffffffffffffffffffffffffffffffffffffff168373ffffffffffffffffffffffffffffffffffffffff16141561078e576040517f08c379a000000000000000000000000000000000000000000000000000000000815260040161078590613857565b60405180910390fd5b8073ffffffffffffffffffffffffffffffffffffffff166107ad6110a9565b73ffffffffffffffffffffffffffffffffffffffff1614806107dc57506107db816107d66110a9565b610f50565b5b61081b576040517f08c379a0000000000000000000000000000000000000000000000000000000008152600401610812906138e9565b60405180910390fd5b61082583836110b1565b505050565b6000600880549050905090565b6108486108426110a9565b8261116a565b610887576040517f08c379a000000000000000000000000000000000000000000000000000000000815260040161087e9061397b565b60405180910390fd5b6108928383836111ff565b505050565b6000600c6000838152602001908152602001600020600101549050919050565b6108c082610897565b6108c9816114f9565b6108d3838361150d565b505050565b60006108e383610bd9565b8210610924576040517f08c379a000000000000000000000000000000000000000000000000000000000815260040161091b90613a0d565b60405180910390fd5b600660008473ffffffffffffffffffffffffffffffffffffffff1673ffffffffffffffffffffffffffffffffffffffff168152602001908152602001600020600083815260200190815260200160002054905092915050565b6109856110a9565b73ffffffffffffffffffffffffffffffffffffffff168173ffffffffffffffffffffffffffffffffffffffff16146109f2576040517f08c379a00000000000000000000000000000000000000000000000000000000081526004016109e990613a9f565b60405180910390fd5b6109fc82826115ee565b5050565b7f65d7a28e3265b37a6474929f336521b332c1681b933f6cb9f3376673440d862a610a2a816114f9565b610a326116d0565b50565b610a5083838360405180602001604052806000815250610de0565b505050565b610a66610a606110a9565b8261116a565b610aa5576040517f08c379a0000000000000000000000000000000000000000000000000000000008152600401610a9c9061397b565b60405180910390fd5b610aae81611733565b50565b600080610abe848461116a565b90508091505092915050565b6000610ad461082a565b8210610b15576040517f08c379a0000000000000000000000000000000000000000000000000000000008152600401610b0c90613b31565b60405180910390fd5b60088281548110610b2957610b28613b51565b5b90600052602060002001549050919050565b6000600b60009054906101000a900460ff16905090565b600080610b5e8361173f565b9050600073ffffffffffffffffffffffffffffffffffffffff168173ffffffffffffffffffffffffffffffffffffffff161415610bd0576040517f08c379a0000000000000000000000000000000000000000000000000000000008152600401610bc790613bcc565b60405180910390fd5b80915050919050565b60008073ffffffffffffffffffffffffffffffffffffffff168273ffffffffffffffffffffffffffffffffffffffff161415610c4a576040517f08c379a0000000000000000000000000000000000000000000000000000000008152600401610c4190613c5e565b60405180910390fd5b600360008373ffffffffffffffffffffffffffffffffffffffff1673ffffffffffffffffffffffffffffffffffffffff168152602001908152602001600020549050919050565b7f65d7a28e3265b37a6474929f336521b332c1681b933f6cb9f3376673440d862a610cbb816114f9565b610cc361177c565b50565b6000600c600084815260200190815260200160002060000160008373ffffffffffffffffffffffffffffffffffffffff1673ffffffffffffffffffffffffffffffffffffffff16815260200190815260200160002060009054906101000a900460ff16905092915050565b606060018054610d40906137b3565b80601f0160208091040260200160405190810160405280929190818152602001828054610d6c906137b3565b8015610db95780601f10610d8e57610100808354040283529160200191610db9565b820191906000526020600020905b815481529060010190602001808311610d9c57829003601f168201915b5050505050905090565b6000801b81565b610ddc610dd56110a9565b83836117df565b5050565b610df1610deb6110a9565b8361116a565b610e30576040517f08c379a0000000000000000000000000000000000000000000000000000000008152600401610e279061397b565b60405180910390fd5b610e3c8484848461194c565b50505050565b6060610e4d826119a8565b9050919050565b600080610e61600d611abb565b9050610e6d600d611ac9565b610e778482611adf565b610e818184611afd565b8091505092915050565b7f9f2df0fed2c77648de5860a4cc508cd0818c85b8b8a1ab4ceeef8d981c8956a6610eb5816114f9565b6000610ec1600d611abb565b9050610ecd600d611ac9565b610ed78482611adf565b610ee18184611afd565b50505050565b7f9f2df0fed2c77648de5860a4cc508cd0818c85b8b8a1ab4ceeef8d981c8956a681565b610f1482610897565b610f1d816114f9565b610f2783836115ee565b505050565b7f65d7a28e3265b37a6474929f336521b332c1681b933f6cb9f3376673440d862a81565b6000600560008473ffffffffffffffffffffffffffffffffffffffff1673ffffffffffffffffffffffffffffffffffffffff16815260200190815260200160002060008373ffffffffffffffffffffffffffffffffffffffff1673ffffffffffffffffffffffffffffffffffffffff16815260200190815260200160002060009054906101000a900460ff16905092915050565b60007f7965db0b000000000000000000000000000000000000000000000000000000007bffffffffffffffffffffffffffffffffffffffffffffffffffffffff1916827bffffffffffffffffffffffffffffffffffffffffffffffffffffffff19161480611057575061105682611b71565b5b9050919050565b61106781611beb565b6110a6576040517f08c379a000000000000000000000000000000000000000000000000000000000815260040161109d90613bcc565b60405180910390fd5b50565b600033905090565b816004600083815260200190815260200160002060006101000a81548173ffffffffffffffffffffffffffffffffffffffff021916908373ffffffffffffffffffffffffffffffffffffffff160217905550808273ffffffffffffffffffffffffffffffffffffffff1661112483610b52565b73ffffffffffffffffffffffffffffffffffffffff167f8c5be1e5ebec7d5bd14f71427d1e84f3dd0314c0f7b2291e5b200ac8c7c3b92560405160405180910390a45050565b60008061117683610b52565b90508073ffffffffffffffffffffffffffffffffffffffff168473ffffffffffffffffffffffffffffffffffffffff1614806111b857506111b78185610f50565b5b806111f657508373ffffffffffffffffffffffffffffffffffffffff166111de846106cc565b73ffffffffffffffffffffffffffffffffffffffff16145b91505092915050565b8273ffffffffffffffffffffffffffffffffffffffff1661121f82610b52565b73ffffffffffffffffffffffffffffffffffffffff1614611275576040517f08c379a000000000000000000000000000000000000000000000000000000000815260040161126c90613cf0565b60405180910390fd5b600073ffffffffffffffffffffffffffffffffffffffff168273ffffffffffffffffffffffffffffffffffffffff1614156112e5576040517f08c379a00000000000000000000000000000000000000000000000000000000081526004016112dc90613d82565b60405180910390fd5b6112f28383836001611c2c565b8273ffffffffffffffffffffffffffffffffffffffff1661131282610b52565b73ffffffffffffffffffffffffffffffffffffffff1614611368576040517f08c379a000000000000000000000000000000000000000000000000000000000815260040161135f90613cf0565b60405180910390fd5b6004600082815260200190815260200160002060006101000a81549073ffffffffffffffffffffffffffffffffffffffff02191690556001600360008573ffffffffffffffffffffffffffffffffffffffff1673ffffffffffffffffffffffffffffffffffffffff168152602001908152602001600020600082825403925050819055506001600360008473ffffffffffffffffffffffffffffffffffffffff1673ffffffffffffffffffffffffffffffffffffffff16815260200190815260200160002060008282540192505081905550816002600083815260200190815260200160002060006101000a81548173ffffffffffffffffffffffffffffffffffffffff021916908373ffffffffffffffffffffffffffffffffffffffff160217905550808273ffffffffffffffffffffffffffffffffffffffff168473ffffffffffffffffffffffffffffffffffffffff167fddf252ad1be2c89b69c2b068fc378daa952ba7f163c4a11628f55a4df523b3ef60405160405180910390a46114f48383836001611c46565b505050565b61150a816115056110a9565b611c4c565b50565b6115178282610cc6565b6115ea576001600c600084815260200190815260200160002060000160008373ffffffffffffffffffffffffffffffffffffffff1673ffffffffffffffffffffffffffffffffffffffff16815260200190815260200160002060006101000a81548160ff02191690831515021790555061158f6110a9565b73ffffffffffffffffffffffffffffffffffffffff168173ffffffffffffffffffffffffffffffffffffffff16837f2f8788117e7eff1d82e926ec794901d17c78024a50270940304540a733656f0d60405160405180910390a45b5050565b6115f88282610cc6565b156116cc576000600c600084815260200190815260200160002060000160008373ffffffffffffffffffffffffffffffffffffffff1673ffffffffffffffffffffffffffffffffffffffff16815260200190815260200160002060006101000a81548160ff0219169083151502179055506116716110a9565b73ffffffffffffffffffffffffffffffffffffffff168173ffffffffffffffffffffffffffffffffffffffff16837ff6391f5c32d9c69d2a47ea670b442974b53935d1edc7fd64eb21e047a839171b60405160405180910390a45b5050565b6116d8611cd1565b6000600b60006101000a81548160ff0219169083151502179055507f5db9ee0a495bf2e6ff9c91a7834c1ba4fdd244a5e8aa4e537bd38aeae4b073aa61171c6110a9565b6040516117299190613225565b60405180910390a1565b61173c81611d1a565b50565b60006002600083815260200190815260200160002060009054906101000a900473ffffffffffffffffffffffffffffffffffffffff169050919050565b611784611d6d565b6001600b60006101000a81548160ff0219169083151502179055507f62e78cea01bee320cd4e420270b5ea74000d11b0c9f74754ebdbfc544b05a2586117c86110a9565b6040516117d59190613225565b60405180910390a1565b8173ffffffffffffffffffffffffffffffffffffffff168373ffffffffffffffffffffffffffffffffffffffff16141561184e576040517f08c379a000000000000000000000000000000000000000000000000000000000815260040161184590613dee565b60405180910390fd5b80600560008573ffffffffffffffffffffffffffffffffffffffff1673ffffffffffffffffffffffffffffffffffffffff16815260200190815260200160002060008473ffffffffffffffffffffffffffffffffffffffff1673ffffffffffffffffffffffffffffffffffffffff16815260200190815260200160002060006101000a81548160ff0219169083151502179055508173ffffffffffffffffffffffffffffffffffffffff168373ffffffffffffffffffffffffffffffffffffffff167f17307eab39ab6107e8899845ad3d59bd9653f200f220920489ca2b5937696c318360405161193f91906130ab565b60405180910390a3505050565b6119578484846111ff565b61196384848484611db7565b6119a2576040517f08c379a000000000000000000000000000000000000000000000000000000000815260040161199990613e80565b60405180910390fd5b50505050565b60606119b38261105e565b6000600a600084815260200190815260200160002080546119d3906137b3565b80601f01602080910402602001604051908101604052809291908181526020018280546119ff906137b3565b8015611a4c5780601f10611a2157610100808354040283529160200191611a4c565b820191906000526020600020905b815481529060010190602001808311611a2f57829003601f168201915b505050505090506000611a5d611f3f565b9050600081511415611a73578192505050611ab6565b600082511115611aa8578082604051602001611a90929190613edc565b60405160208183030381529060405292505050611ab6565b611ab184611f56565b925050505b919050565b600081600001549050919050565b6001816000016000828254019250508190555050565b611af9828260405180602001604052806000815250611fbe565b5050565b611b0682611beb565b611b45576040517f08c379a0000000000000000000000000000000000000000000000000000000008152600401611b3c90613f72565b60405180910390fd5b80600a60008481526020019081526020016000209080519060200190611b6c929190612f14565b505050565b60007f780e9d63000000000000000000000000000000000000000000000000000000007bffffffffffffffffffffffffffffffffffffffffffffffffffffffff1916827bffffffffffffffffffffffffffffffffffffffffffffffffffffffff19161480611be45750611be382612019565b5b9050919050565b60008073ffffffffffffffffffffffffffffffffffffffff16611c0d8361173f565b73ffffffffffffffffffffffffffffffffffffffff1614159050919050565b611c34611d6d565b611c40848484846120fb565b50505050565b50505050565b611c568282610cc6565b611ccd57611c638161225b565b611c718360001c6020612288565b604051602001611c8292919061402a565b6040516020818303038152906040526040517f08c379a0000000000000000000000000000000000000000000000000000000008152600401611cc4919061315f565b60405180910390fd5b5050565b611cd9610b3b565b611d18576040517f08c379a0000000000000000000000000000000000000000000000000000000008152600401611d0f906140b0565b60405180910390fd5b565b611d23816124c4565b6000600a60008381526020019081526020016000208054611d43906137b3565b905014611d6a57600a60008281526020019081526020016000206000611d699190612f9a565b5b50565b611d75610b3b565b15611db5576040517f08c379a0000000000000000000000000000000000000000000000000000000008152600401611dac9061411c565b60405180910390fd5b565b6000611dd88473ffffffffffffffffffffffffffffffffffffffff16612612565b15611f32578373ffffffffffffffffffffffffffffffffffffffff1663150b7a02611e016110a9565b8786866040518563ffffffff1660e01b8152600401611e239493929190614191565b6020604051808303816000875af1925050508015611e5f57506040513d601f19601f82011682018060405250810190611e5c91906141f2565b60015b611ee2573d8060008114611e8f576040519150601f19603f3d011682016040523d82523d6000602084013e611e94565b606091505b50600081511415611eda576040517f08c379a0000000000000000000000000000000000000000000000000000000008152600401611ed190613e80565b60405180910390fd5b805181602001fd5b63150b7a0260e01b7bffffffffffffffffffffffffffffffffffffffffffffffffffffffff1916817bffffffffffffffffffffffffffffffffffffffffffffffffffffffff191614915050611f37565b600190505b949350505050565b606060405180602001604052806000815250905090565b6060611f618261105e565b6000611f6b611f3f565b90506000815111611f8b5760405180602001604052806000815250611fb6565b80611f9584612635565b604051602001611fa6929190613edc565b6040516020818303038152906040525b915050919050565b611fc8838361270d565b611fd56000848484611db7565b612014576040517f08c379a000000000000000000000000000000000000000000000000000000000815260040161200b90613e80565b60405180910390fd5b505050565b60007f80ac58cd000000000000000000000000000000000000000000000000000000007bffffffffffffffffffffffffffffffffffffffffffffffffffffffff1916827bffffffffffffffffffffffffffffffffffffffffffffffffffffffff191614806120e457507f5b5e139f000000000000000000000000000000000000000000000000000000007bffffffffffffffffffffffffffffffffffffffffffffffffffffffff1916827bffffffffffffffffffffffffffffffffffffffffffffffffffffffff1916145b806120f457506120f38261292b565b5b9050919050565b61210784848484612995565b600181111561214b576040517f08c379a000000000000000000000000000000000000000000000000000000000815260040161214290614291565b60405180910390fd5b6000829050600073ffffffffffffffffffffffffffffffffffffffff168573ffffffffffffffffffffffffffffffffffffffff1614156121935761218e81612abb565b6121d2565b8373ffffffffffffffffffffffffffffffffffffffff168573ffffffffffffffffffffffffffffffffffffffff16146121d1576121d08582612b04565b5b5b600073ffffffffffffffffffffffffffffffffffffffff168473ffffffffffffffffffffffffffffffffffffffff1614156122155761221081612c71565b612254565b8473ffffffffffffffffffffffffffffffffffffffff168473ffffffffffffffffffffffffffffffffffffffff1614612253576122528482612d42565b5b5b5050505050565b60606122818273ffffffffffffffffffffffffffffffffffffffff16601460ff16612288565b9050919050565b60606000600283600261229b91906142e0565b6122a5919061433a565b67ffffffffffffffff8111156122be576122bd613499565b5b6040519080825280601f01601f1916602001820160405280156122f05781602001600182028036833780820191505090505b5090507f30000000000000000000000000000000000000000000000000000000000000008160008151811061232857612327613b51565b5b60200101907effffffffffffffffffffffffffffffffffffffffffffffffffffffffffffff1916908160001a9053507f78000000000000000000000000000000000000000000000000000000000000008160018151811061238c5761238b613b51565b5b60200101907effffffffffffffffffffffffffffffffffffffffffffffffffffffffffffff1916908160001a905350600060018460026123cc91906142e0565b6123d6919061433a565b90505b6001811115612476577f3031323334353637383961626364656600000000000000000000000000000000600f86166010811061241857612417613b51565b5b1a60f81b82828151811061242f5761242e613b51565b5b60200101907effffffffffffffffffffffffffffffffffffffffffffffffffffffffffffff1916908160001a905350600485901c94508061246f90614390565b90506123d9565b50600084146124ba576040517f08c379a00000000000000000000000000000000000000000000000000000000081526004016124b190614406565b60405180910390fd5b8091505092915050565b60006124cf82610b52565b90506124df816000846001611c2c565b6124e882610b52565b90506004600083815260200190815260200160002060006101000a81549073ffffffffffffffffffffffffffffffffffffffff02191690556001600360008373ffffffffffffffffffffffffffffffffffffffff1673ffffffffffffffffffffffffffffffffffffffff168152602001908152602001600020600082825403925050819055506002600083815260200190815260200160002060006101000a81549073ffffffffffffffffffffffffffffffffffffffff021916905581600073ffffffffffffffffffffffffffffffffffffffff168273ffffffffffffffffffffffffffffffffffffffff167fddf252ad1be2c89b69c2b068fc378daa952ba7f163c4a11628f55a4df523b3ef60405160405180910390a461260e816000846001611c46565b5050565b6000808273ffffffffffffffffffffffffffffffffffffffff163b119050919050565b60606000600161264484612dc1565b01905060008167ffffffffffffffff81111561266357612662613499565b5b6040519080825280601f01601f1916602001820160405280156126955781602001600182028036833780820191505090505b509050600082602001820190505b600115612702578080600190039150507f3031323334353637383961626364656600000000000000000000000000000000600a86061a8153600a85816126ec576126eb614426565b5b04945060008514156126fd57612702565b6126a3565b819350505050919050565b600073ffffffffffffffffffffffffffffffffffffffff168273ffffffffffffffffffffffffffffffffffffffff16141561277d576040517f08c379a0000000000000000000000000000000000000000000000000000000008152600401612774906144a1565b60405180910390fd5b61278681611beb565b156127c6576040517f08c379a00000000000000000000000000000000000000000000000000000000081526004016127bd9061450d565b60405180910390fd5b6127d4600083836001611c2c565b6127dd81611beb565b1561281d576040517f08c379a00000000000000000000000000000000000000000000000000000000081526004016128149061450d565b60405180910390fd5b6001600360008473ffffffffffffffffffffffffffffffffffffffff1673ffffffffffffffffffffffffffffffffffffffff16815260200190815260200160002060008282540192505081905550816002600083815260200190815260200160002060006101000a81548173ffffffffffffffffffffffffffffffffffffffff021916908373ffffffffffffffffffffffffffffffffffffffff160217905550808273ffffffffffffffffffffffffffffffffffffffff16600073ffffffffffffffffffffffffffffffffffffffff167fddf252ad1be2c89b69c2b068fc378daa952ba7f163c4a11628f55a4df523b3ef60405160405180910390a4612927600083836001611c46565b5050565b60007f01ffc9a7000000000000000000000000000000000000000000000000000000007bffffffffffffffffffffffffffffffffffffffffffffffffffffffff1916827bffffffffffffffffffffffffffffffffffffffffffffffffffffffff1916149050919050565b6001811115612ab557600073ffffffffffffffffffffffffffffffffffffffff168473ffffffffffffffffffffffffffffffffffffffff1614612a295780600360008673ffffffffffffffffffffffffffffffffffffffff1673ffffffffffffffffffffffffffffffffffffffff1681526020019081526020016000206000828254612a21919061452d565b925050819055505b600073ffffffffffffffffffffffffffffffffffffffff168373ffffffffffffffffffffffffffffffffffffffff1614612ab45780600360008573ffffffffffffffffffffffffffffffffffffffff1673ffffffffffffffffffffffffffffffffffffffff1681526020019081526020016000206000828254612aac919061433a565b925050819055505b5b50505050565b6008805490506009600083815260200190815260200160002081905550600881908060018154018082558091505060019003906000526020600020016000909190919091505550565b60006001612b1184610bd9565b612b1b919061452d565b9050600060076000848152602001908152602001600020549050818114612c00576000600660008673ffffffffffffffffffffffffffffffffffffffff1673ffffffffffffffffffffffffffffffffffffffff168152602001908152602001600020600084815260200190815260200160002054905080600660008773ffffffffffffffffffffffffffffffffffffffff1673ffffffffffffffffffffffffffffffffffffffff168152602001908152602001600020600084815260200190815260200160002081905550816007600083815260200190815260200160002081905550505b6007600084815260200190815260200160002060009055600660008573ffffffffffffffffffffffffffffffffffffffff1673ffffffffffffffffffffffffffffffffffffffff16815260200190815260200160002060008381526020019081526020016000206000905550505050565b60006001600880549050612c85919061452d565b9050600060096000848152602001908152602001600020549050600060088381548110612cb557612cb4613b51565b5b906000526020600020015490508060088381548110612cd757612cd6613b51565b5b906000526020600020018190555081600960008381526020019081526020016000208190555060096000858152602001908152602001600020600090556008805480612d2657612d25614561565b5b6001900381819060005260206000200160009055905550505050565b6000612d4d83610bd9565b905081600660008573ffffffffffffffffffffffffffffffffffffffff1673ffffffffffffffffffffffffffffffffffffffff168152602001908152602001600020600083815260200190815260200160002081905550806007600084815260200190815260200160002081905550505050565b600080600090507a184f03e93ff9f4daa797ed6e38ed64bf6a1f0100000000000000008310612e1f577a184f03e93ff9f4daa797ed6e38ed64bf6a1f0100000000000000008381612e1557612e14614426565b5b0492506040810190505b6d04ee2d6d415b85acef81000000008310612e5c576d04ee2d6d415b85acef81000000008381612e5257612e51614426565b5b0492506020810190505b662386f26fc100008310612e8b57662386f26fc100008381612e8157612e80614426565b5b0492506010810190505b6305f5e1008310612eb4576305f5e1008381612eaa57612ea9614426565b5b0492506008810190505b6127108310612ed9576127108381612ecf57612ece614426565b5b0492506004810190505b60648310612efc5760648381612ef257612ef1614426565b5b0492506002810190505b600a8310612f0b576001810190505b80915050919050565b828054612f20906137b3565b90600052602060002090601f016020900481019282612f425760008555612f89565b82601f10612f5b57805160ff1916838001178555612f89565b82800160010185558215612f89579182015b82811115612f88578251825591602001919060010190612f6d565b5b509050612f969190612fda565b5090565b508054612fa6906137b3565b6000825580601f10612fb85750612fd7565b601f016020900490600052602060002090810190612fd69190612fda565b5b50565b5b80821115612ff3576000816000905550600101612fdb565b5090565b6000604051905090565b600080fd5b600080fd5b60007fffffffff0000000000000000000000000000000000000000000000000000000082169050919050565b6130408161300b565b811461304b57600080fd5b50565b60008135905061305d81613037565b92915050565b60006020828403121561307957613078613001565b5b60006130878482850161304e565b91505092915050565b60008115159050919050565b6130a581613090565b82525050565b60006020820190506130c0600083018461309c565b92915050565b600081519050919050565b600082825260208201905092915050565b60005b838110156131005780820151818401526020810190506130e5565b8381111561310f576000848401525b50505050565b6000601f19601f8301169050919050565b6000613131826130c6565b61313b81856130d1565b935061314b8185602086016130e2565b61315481613115565b840191505092915050565b600060208201905081810360008301526131798184613126565b905092915050565b6000819050919050565b61319481613181565b811461319f57600080fd5b50565b6000813590506131b18161318b565b92915050565b6000602082840312156131cd576131cc613001565b5b60006131db848285016131a2565b91505092915050565b600073ffffffffffffffffffffffffffffffffffffffff82169050919050565b600061320f826131e4565b9050919050565b61321f81613204565b82525050565b600060208201905061323a6000830184613216565b92915050565b61324981613204565b811461325457600080fd5b50565b60008135905061326681613240565b92915050565b6000806040838503121561328357613282613001565b5b600061329185828601613257565b92505060206132a2858286016131a2565b9150509250929050565b6132b581613181565b82525050565b60006020820190506132d060008301846132ac565b92915050565b6000806000606084860312156132ef576132ee613001565b5b60006132fd86828701613257565b935050602061330e86828701613257565b925050604061331f868287016131a2565b9150509250925092565b6000819050919050565b61333c81613329565b811461334757600080fd5b50565b60008135905061335981613333565b92915050565b60006020828403121561337557613374613001565b5b60006133838482850161334a565b91505092915050565b61339581613329565b82525050565b60006020820190506133b0600083018461338c565b92915050565b600080604083850312156133cd576133cc613001565b5b60006133db8582860161334a565b92505060206133ec85828601613257565b9150509250929050565b60006020828403121561340c5761340b613001565b5b600061341a84828501613257565b91505092915050565b61342c81613090565b811461343757600080fd5b50565b60008135905061344981613423565b92915050565b6000806040838503121561346657613465613001565b5b600061347485828601613257565b92505060206134858582860161343a565b9150509250929050565b600080fd5b600080fd5b7f4e487b7100000000000000000000000000000000000000000000000000000000600052604160045260246000fd5b6134d182613115565b810181811067ffffffffffffffff821117156134f0576134ef613499565b5b80604052505050565b6000613503612ff7565b905061350f82826134c8565b919050565b600067ffffffffffffffff82111561352f5761352e613499565b5b61353882613115565b9050602081019050919050565b82818337600083830152505050565b600061356761356284613514565b6134f9565b90508281526020810184848401111561358357613582613494565b5b61358e848285613545565b509392505050565b600082601f8301126135ab576135aa61348f565b5b81356135bb848260208601613554565b91505092915050565b600080600080608085870312156135de576135dd613001565b5b60006135ec87828801613257565b94505060206135fd87828801613257565b935050604061360e878288016131a2565b925050606085013567ffffffffffffffff81111561362f5761362e613006565b5b61363b87828801613596565b91505092959194509250565b600067ffffffffffffffff82111561366257613661613499565b5b61366b82613115565b9050602081019050919050565b600061368b61368684613647565b6134f9565b9050828152602081018484840111156136a7576136a6613494565b5b6136b2848285613545565b509392505050565b600082601f8301126136cf576136ce61348f565b5b81356136df848260208601613678565b91505092915050565b600080604083850312156136ff576136fe613001565b5b600061370d85828601613257565b925050602083013567ffffffffffffffff81111561372e5761372d613006565b5b61373a858286016136ba565b9150509250929050565b6000806040838503121561375b5761375a613001565b5b600061376985828601613257565b925050602061377a85828601613257565b9150509250929050565b7f4e487b7100000000000000000000000000000000000000000000000000000000600052602260045260246000fd5b600060028204905060018216806137cb57607f821691505b602082108114156137df576137de613784565b5b50919050565b7f4552433732313a20617070726f76616c20746f2063757272656e74206f776e6560008201527f7200000000000000000000000000000000000000000000000000000000000000602082015250565b60006138416021836130d1565b915061384c826137e5565b604082019050919050565b6000602082019050818103600083015261387081613834565b9050919050565b7f4552433732313a20617070726f76652063616c6c6572206973206e6f7420746f60008201527f6b656e206f776e6572206f7220617070726f76656420666f7220616c6c000000602082015250565b60006138d3603d836130d1565b91506138de82613877565b604082019050919050565b60006020820190508181036000830152613902816138c6565b9050919050565b7f4552433732313a2063616c6c6572206973206e6f7420746f6b656e206f776e6560008201527f72206f7220617070726f76656400000000000000000000000000000000000000602082015250565b6000613965602d836130d1565b915061397082613909565b604082019050919050565b6000602082019050818103600083015261399481613958565b9050919050565b7f455243373231456e756d657261626c653a206f776e657220696e646578206f7560008201527f74206f6620626f756e6473000000000000000000000000000000000000000000602082015250565b60006139f7602b836130d1565b9150613a028261399b565b604082019050919050565b60006020820190508181036000830152613a26816139ea565b9050919050565b7f416363657373436f6e74726f6c3a2063616e206f6e6c792072656e6f756e636560008201527f20726f6c657320666f722073656c660000000000000000000000000000000000602082015250565b6000613a89602f836130d1565b9150613a9482613a2d565b604082019050919050565b60006020820190508181036000830152613ab881613a7c565b9050919050565b7f455243373231456e756d657261626c653a20676c6f62616c20696e646578206f60008201527f7574206f6620626f756e64730000000000000000000000000000000000000000602082015250565b6000613b1b602c836130d1565b9150613b2682613abf565b604082019050919050565b60006020820190508181036000830152613b4a81613b0e565b9050919050565b7f4e487b7100000000000000000000000000000000000000000000000000000000600052603260045260246000fd5b7f4552433732313a20696e76616c696420746f6b656e2049440000000000000000600082015250565b6000613bb66018836130d1565b9150613bc182613b80565b602082019050919050565b60006020820190508181036000830152613be581613ba9565b9050919050565b7f4552433732313a2061646472657373207a65726f206973206e6f74206120766160008201527f6c6964206f776e65720000000000000000000000000000000000000000000000602082015250565b6000613c486029836130d1565b9150613c5382613bec565b604082019050919050565b60006020820190508181036000830152613c7781613c3b565b9050919050565b7f4552433732313a207472616e736665722066726f6d20696e636f72726563742060008201527f6f776e6572000000000000000000000000000000000000000000000000000000602082015250565b6000613cda6025836130d1565b9150613ce582613c7e565b604082019050919050565b60006020820190508181036000830152613d0981613ccd565b9050919050565b7f4552433732313a207472616e7366657220746f20746865207a65726f2061646460008201527f7265737300000000000000000000000000000000000000000000000000000000602082015250565b6000613d6c6024836130d1565b9150613d7782613d10565b604082019050919050565b60006020820190508181036000830152613d9b81613d5f565b9050919050565b7f4552433732313a20617070726f766520746f2063616c6c657200000000000000600082015250565b6000613dd86019836130d1565b9150613de382613da2565b602082019050919050565b60006020820190508181036000830152613e0781613dcb565b9050919050565b7f4552433732313a207472616e7366657220746f206e6f6e20455243373231526560008201527f63656976657220696d706c656d656e7465720000000000000000000000000000602082015250565b6000613e6a6032836130d1565b9150613e7582613e0e565b604082019050919050565b60006020820190508181036000830152613e9981613e5d565b9050919050565b600081905092915050565b6000613eb6826130c6565b613ec08185613ea0565b9350613ed08185602086016130e2565b80840191505092915050565b6000613ee88285613eab565b9150613ef48284613eab565b91508190509392505050565b7f45524337323155524953746f726167653a2055524920736574206f66206e6f6e60008201527f6578697374656e7420746f6b656e000000000000000000000000000000000000602082015250565b6000613f5c602e836130d1565b9150613f6782613f00565b604082019050919050565b60006020820190508181036000830152613f8b81613f4f565b9050919050565b7f416363657373436f6e74726f6c3a206163636f756e7420000000000000000000600082015250565b6000613fc8601783613ea0565b9150613fd382613f92565b601782019050919050565b7f206973206d697373696e6720726f6c6520000000000000000000000000000000600082015250565b6000614014601183613ea0565b915061401f82613fde565b601182019050919050565b600061403582613fbb565b91506140418285613eab565b915061404c82614007565b91506140588284613eab565b91508190509392505050565b7f5061757361626c653a206e6f7420706175736564000000000000000000000000600082015250565b600061409a6014836130d1565b91506140a582614064565b602082019050919050565b600060208201905081810360008301526140c98161408d565b9050919050565b7f5061757361626c653a2070617573656400000000000000000000000000000000600082015250565b60006141066010836130d1565b9150614111826140d0565b602082019050919050565b60006020820190508181036000830152614135816140f9565b9050919050565b600081519050919050565b600082825260208201905092915050565b60006141638261413c565b61416d8185614147565b935061417d8185602086016130e2565b61418681613115565b840191505092915050565b60006080820190506141a66000830187613216565b6141b36020830186613216565b6141c060408301856132ac565b81810360608301526141d28184614158565b905095945050505050565b6000815190506141ec81613037565b92915050565b60006020828403121561420857614207613001565b5b6000614216848285016141dd565b91505092915050565b7f455243373231456e756d657261626c653a20636f6e736563757469766520747260008201527f616e7366657273206e6f7420737570706f727465640000000000000000000000602082015250565b600061427b6035836130d1565b91506142868261421f565b604082019050919050565b600060208201905081810360008301526142aa8161426e565b9050919050565b7f4e487b7100000000000000000000000000000000000000000000000000000000600052601160045260246000fd5b60006142eb82613181565b91506142f683613181565b9250817fffffffffffffffffffffffffffffffffffffffffffffffffffffffffffffffff048311821515161561432f5761432e6142b1565b5b828202905092915050565b600061434582613181565b915061435083613181565b9250827fffffffffffffffffffffffffffffffffffffffffffffffffffffffffffffffff03821115614385576143846142b1565b5b828201905092915050565b600061439b82613181565b915060008214156143af576143ae6142b1565b5b600182039050919050565b7f537472696e67733a20686578206c656e67746820696e73756666696369656e74600082015250565b60006143f06020836130d1565b91506143fb826143ba565b602082019050919050565b6000602082019050818103600083015261441f816143e3565b9050919050565b7f4e487b7100000000000000000000000000000000000000000000000000000000600052601260045260246000fd5b7f4552433732313a206d696e7420746f20746865207a65726f2061646472657373600082015250565b600061448b6020836130d1565b915061449682614455565b602082019050919050565b600060208201905081810360008301526144ba8161447e565b9050919050565b7f4552433732313a20746f6b656e20616c7265616479206d696e74656400000000600082015250565b60006144f7601c836130d1565b9150614502826144c1565b602082019050919050565b60006020820190508181036000830152614526816144ea565b9050919050565b600061453882613181565b915061454383613181565b925082821015614556576145556142b1565b5b828203905092915050565b7f4e487b7100000000000000000000000000000000000000000000000000000000600052603160045260246000fdfea26469706673582212208eb6301b8725d7c7e09d06cb3c1d24e015e7664f4dfcf777282c0a3229e2a70564736f6c634300080a0033",
  "immutableReferences": {},
  "source": "// SPDX-License-Identifier: MIT\npragma solidity 0.8.10;\n\n// @author Simon Roope\n// @title  Fixed Income Bond NFT -- interface\n// @description The contract used to tokenise Fixed Income Bonds.\n\nimport \"@openzeppelin/contracts/token/ERC721/ERC721.sol\";\nimport \"@openzeppelin/contracts/token/ERC721/extensions/ERC721Enumerable.sol\";\nimport \"@openzeppelin/contracts/token/ERC721/extensions/ERC721URIStorage.sol\";\nimport \"@openzeppelin/contracts/security/Pausable.sol\";\nimport \"@openzeppelin/contracts/access/AccessControl.sol\";\nimport \"@openzeppelin/contracts/token/ERC721/extensions/ERC721Burnable.sol\";\nimport \"@openzeppelin/contracts/utils/Counters.sol\";\n\ncontract BondToken is ERC721, ERC721Enumerable, ERC721URIStorage, Pausable, AccessControl, ERC721Burnable {\n\n    using Counters for Counters.Counter;\n\n    bytes32 public constant PAUSER_ROLE = keccak256(\"PAUSER_ROLE\");\n    bytes32 public constant MINTER_ROLE = keccak256(\"MINTER_ROLE\");\n    Counters.Counter private _tokenIdCounter;\n\n    constructor() ERC721(\"Fixed Income Bond Token\", \"FIB\") {\n\n      _grantRole(DEFAULT_ADMIN_ROLE, msg.sender);\n      _grantRole(PAUSER_ROLE, msg.sender);\n      _grantRole(MINTER_ROLE, msg.sender);\n    }\n\n    /*\n    * Function used to mint a new NFT.\n    * Contract address & uint256 tokenId must be globally unique.\n    *\n    * _issuer: Issuer's wallet address who will receive the NFT.\n    * _hash: IPFS hash associated with the content we are creating the NFT for.\n    * _metadata: Link to bond certificate. Includes the issuer name, price, coupon rate & dates and maturity date.\n    */\n\n    function mint(address _issuer, string memory _metadata) public returns (uint) {\n\n      uint256 tokenId = _tokenIdCounter.current();\n      _tokenIdCounter.increment();\n      _safeMint(_issuer, tokenId);\n      _setTokenURI(tokenId, _metadata);\n      \n      return tokenId;\n    }\n\n    function safeMint(address to, string memory uri) public onlyRole(MINTER_ROLE) {\n\n        uint256 tokenId = _tokenIdCounter.current();\n        _tokenIdCounter.increment();\n        _safeMint(to, tokenId);\n        _setTokenURI(tokenId, uri);\n    }\n\n    function pause() public onlyRole(PAUSER_ROLE) {\n      _pause();\n    }\n\n    function unpause() public onlyRole(PAUSER_ROLE) {\n      _unpause();\n    }\n\n    function _beforeTokenTransfer(address from, address to, uint256 tokenId, uint256 batchSize)\n        internal\n        whenNotPaused\n        override(ERC721, ERC721Enumerable)\n    {\n        super._beforeTokenTransfer(from, to, tokenId, batchSize);\n    }\n\n    function isApprovedOrOwner(address spender, uint256 tokenId) public view returns (bool) {\n      bool isAppr = _isApprovedOrOwner(spender, tokenId);\n\n      return isAppr;\n    }\n\n\n    // The following functions are overrides required by Solidity.\n\n    function _burn(uint256 tokenId) internal override(ERC721, ERC721URIStorage) {\n        super._burn(tokenId);\n    }\n\n    function tokenURI(uint256 tokenId)\n        public\n        view\n        override(ERC721, ERC721URIStorage)\n        returns (string memory)\n    {\n        return super.tokenURI(tokenId);\n    }\n\n    function supportsInterface(bytes4 interfaceId)\n        public\n        view\n        override(ERC721, ERC721Enumerable, AccessControl)\n        returns (bool)\n    {\n        return super.supportsInterface(interfaceId);\n    }\n\n}\n",
  "sourcePath": "/Users/simonroope/Documents/scr/blockchain/consensys/projectFinal/blockchain-developer-bootcamp-final-project/contracts/BondToken.sol",
  "compiler": {
    "name": "solc",
    "version": "0.8.10+commit.fc410830.Emscripten.clang"
  },
  "schemaVersion": "3.4.11",
  "updatedAt": "2023-01-11T11:56:02.183Z",
  "networkType": "ethereum",
  "devdoc": {
    "kind": "dev",
    "methods": {
      "approve(address,uint256)": {
        "details": "See {IERC721-approve}."
      },
      "balanceOf(address)": {
        "details": "See {IERC721-balanceOf}."
      },
      "burn(uint256)": {
        "details": "Burns `tokenId`. See {ERC721-_burn}. Requirements: - The caller must own `tokenId` or be an approved operator."
      },
      "getApproved(uint256)": {
        "details": "See {IERC721-getApproved}."
      },
      "getRoleAdmin(bytes32)": {
        "details": "Returns the admin role that controls `role`. See {grantRole} and {revokeRole}. To change a role's admin, use {_setRoleAdmin}."
      },
      "grantRole(bytes32,address)": {
        "details": "Grants `role` to `account`. If `account` had not been already granted `role`, emits a {RoleGranted} event. Requirements: - the caller must have ``role``'s admin role. May emit a {RoleGranted} event."
      },
      "hasRole(bytes32,address)": {
        "details": "Returns `true` if `account` has been granted `role`."
      },
      "isApprovedForAll(address,address)": {
        "details": "See {IERC721-isApprovedForAll}."
      },
      "name()": {
        "details": "See {IERC721Metadata-name}."
      },
      "ownerOf(uint256)": {
        "details": "See {IERC721-ownerOf}."
      },
      "paused()": {
        "details": "Returns true if the contract is paused, and false otherwise."
      },
      "renounceRole(bytes32,address)": {
        "details": "Revokes `role` from the calling account. Roles are often managed via {grantRole} and {revokeRole}: this function's purpose is to provide a mechanism for accounts to lose their privileges if they are compromised (such as when a trusted device is misplaced). If the calling account had been revoked `role`, emits a {RoleRevoked} event. Requirements: - the caller must be `account`. May emit a {RoleRevoked} event."
      },
      "revokeRole(bytes32,address)": {
        "details": "Revokes `role` from `account`. If `account` had been granted `role`, emits a {RoleRevoked} event. Requirements: - the caller must have ``role``'s admin role. May emit a {RoleRevoked} event."
      },
      "safeTransferFrom(address,address,uint256)": {
        "details": "See {IERC721-safeTransferFrom}."
      },
      "safeTransferFrom(address,address,uint256,bytes)": {
        "details": "See {IERC721-safeTransferFrom}."
      },
      "setApprovalForAll(address,bool)": {
        "details": "See {IERC721-setApprovalForAll}."
      },
      "symbol()": {
        "details": "See {IERC721Metadata-symbol}."
      },
      "tokenByIndex(uint256)": {
        "details": "See {IERC721Enumerable-tokenByIndex}."
      },
      "tokenOfOwnerByIndex(address,uint256)": {
        "details": "See {IERC721Enumerable-tokenOfOwnerByIndex}."
      },
      "totalSupply()": {
        "details": "See {IERC721Enumerable-totalSupply}."
      },
      "transferFrom(address,address,uint256)": {
        "details": "See {IERC721-transferFrom}."
      }
    },
    "version": 1
  },
  "userdoc": {
    "kind": "user",
    "methods": {},
    "version": 1
  }
}