{
  "contractName": "BondToken",
  "abi": [
    {
      "inputs": [],
      "stateMutability": "nonpayable",
      "type": "constructor"
    },
    {
      "anonymous": false,
      "inputs": [
        {
          "indexed": true,
          "internalType": "address",
          "name": "owner",
          "type": "address"
        },
        {
          "indexed": true,
          "internalType": "address",
          "name": "approved",
          "type": "address"
        },
        {
          "indexed": true,
          "internalType": "uint256",
          "name": "tokenId",
          "type": "uint256"
        }
      ],
      "name": "Approval",
      "type": "event"
    },
    {
      "anonymous": false,
      "inputs": [
        {
          "indexed": true,
          "internalType": "address",
          "name": "owner",
          "type": "address"
        },
        {
          "indexed": true,
          "internalType": "address",
          "name": "operator",
          "type": "address"
        },
        {
          "indexed": false,
          "internalType": "bool",
          "name": "approved",
          "type": "bool"
        }
      ],
      "name": "ApprovalForAll",
      "type": "event"
    },
    {
      "anonymous": false,
      "inputs": [
        {
          "indexed": true,
          "internalType": "address",
          "name": "from",
          "type": "address"
        },
        {
          "indexed": true,
          "internalType": "address",
          "name": "to",
          "type": "address"
        },
        {
          "indexed": true,
          "internalType": "uint256",
          "name": "tokenId",
          "type": "uint256"
        }
      ],
      "name": "Transfer",
      "type": "event"
    },
    {
      "inputs": [
        {
          "internalType": "address",
          "name": "to",
          "type": "address"
        },
        {
          "internalType": "uint256",
          "name": "tokenId",
          "type": "uint256"
        }
      ],
      "name": "approve",
      "outputs": [],
      "stateMutability": "nonpayable",
      "type": "function"
    },
    {
      "inputs": [
        {
          "internalType": "address",
          "name": "owner",
          "type": "address"
        }
      ],
      "name": "balanceOf",
      "outputs": [
        {
          "internalType": "uint256",
          "name": "",
          "type": "uint256"
        }
      ],
      "stateMutability": "view",
      "type": "function",
      "constant": true
    },
    {
      "inputs": [
        {
          "internalType": "uint256",
          "name": "tokenId",
          "type": "uint256"
        }
      ],
      "name": "getApproved",
      "outputs": [
        {
          "internalType": "address",
          "name": "",
          "type": "address"
        }
      ],
      "stateMutability": "view",
      "type": "function",
      "constant": true
    },
    {
      "inputs": [
        {
          "internalType": "address",
          "name": "owner",
          "type": "address"
        },
        {
          "internalType": "address",
          "name": "operator",
          "type": "address"
        }
      ],
      "name": "isApprovedForAll",
      "outputs": [
        {
          "internalType": "bool",
          "name": "",
          "type": "bool"
        }
      ],
      "stateMutability": "view",
      "type": "function",
      "constant": true
    },
    {
      "inputs": [],
      "name": "name",
      "outputs": [
        {
          "internalType": "string",
          "name": "",
          "type": "string"
        }
      ],
      "stateMutability": "view",
      "type": "function",
      "constant": true
    },
    {
      "inputs": [
        {
          "internalType": "uint256",
          "name": "tokenId",
          "type": "uint256"
        }
      ],
      "name": "ownerOf",
      "outputs": [
        {
          "internalType": "address",
          "name": "",
          "type": "address"
        }
      ],
      "stateMutability": "view",
      "type": "function",
      "constant": true
    },
    {
      "inputs": [
        {
          "internalType": "address",
          "name": "from",
          "type": "address"
        },
        {
          "internalType": "address",
          "name": "to",
          "type": "address"
        },
        {
          "internalType": "uint256",
          "name": "tokenId",
          "type": "uint256"
        }
      ],
      "name": "safeTransferFrom",
      "outputs": [],
      "stateMutability": "nonpayable",
      "type": "function"
    },
    {
      "inputs": [
        {
          "internalType": "address",
          "name": "from",
          "type": "address"
        },
        {
          "internalType": "address",
          "name": "to",
          "type": "address"
        },
        {
          "internalType": "uint256",
          "name": "tokenId",
          "type": "uint256"
        },
        {
          "internalType": "bytes",
          "name": "_data",
          "type": "bytes"
        }
      ],
      "name": "safeTransferFrom",
      "outputs": [],
      "stateMutability": "nonpayable",
      "type": "function"
    },
    {
      "inputs": [
        {
          "internalType": "address",
          "name": "operator",
          "type": "address"
        },
        {
          "internalType": "bool",
          "name": "approved",
          "type": "bool"
        }
      ],
      "name": "setApprovalForAll",
      "outputs": [],
      "stateMutability": "nonpayable",
      "type": "function"
    },
    {
      "inputs": [],
      "name": "symbol",
      "outputs": [
        {
          "internalType": "string",
          "name": "",
          "type": "string"
        }
      ],
      "stateMutability": "view",
      "type": "function",
      "constant": true
    },
    {
      "inputs": [
        {
          "internalType": "uint256",
          "name": "index",
          "type": "uint256"
        }
      ],
      "name": "tokenByIndex",
      "outputs": [
        {
          "internalType": "uint256",
          "name": "",
          "type": "uint256"
        }
      ],
      "stateMutability": "view",
      "type": "function",
      "constant": true
    },
    {
      "inputs": [
        {
          "internalType": "address",
          "name": "owner",
          "type": "address"
        },
        {
          "internalType": "uint256",
          "name": "index",
          "type": "uint256"
        }
      ],
      "name": "tokenOfOwnerByIndex",
      "outputs": [
        {
          "internalType": "uint256",
          "name": "",
          "type": "uint256"
        }
      ],
      "stateMutability": "view",
      "type": "function",
      "constant": true
    },
    {
      "inputs": [],
      "name": "totalSupply",
      "outputs": [
        {
          "internalType": "uint256",
          "name": "",
          "type": "uint256"
        }
      ],
      "stateMutability": "view",
      "type": "function",
      "constant": true
    },
    {
      "inputs": [
        {
          "internalType": "address",
          "name": "from",
          "type": "address"
        },
        {
          "internalType": "address",
          "name": "to",
          "type": "address"
        },
        {
          "internalType": "uint256",
          "name": "tokenId",
          "type": "uint256"
        }
      ],
      "name": "transferFrom",
      "outputs": [],
      "stateMutability": "nonpayable",
      "type": "function"
    },
    {
      "inputs": [
        {
          "internalType": "address",
          "name": "_issuer",
          "type": "address"
        },
        {
          "internalType": "string",
          "name": "_metadata",
          "type": "string"
        }
      ],
      "name": "mint",
      "outputs": [
        {
          "internalType": "uint256",
          "name": "",
          "type": "uint256"
        }
      ],
      "stateMutability": "nonpayable",
      "type": "function"
    },
    {
      "inputs": [
        {
          "internalType": "uint256",
          "name": "tokenId",
          "type": "uint256"
        }
      ],
      "name": "tokenURI",
      "outputs": [
        {
          "internalType": "string",
          "name": "",
          "type": "string"
        }
      ],
      "stateMutability": "view",
      "type": "function",
      "constant": true
    },
    {
      "inputs": [
        {
          "internalType": "bytes4",
          "name": "interfaceId",
          "type": "bytes4"
        }
      ],
      "name": "supportsInterface",
      "outputs": [
        {
          "internalType": "bool",
          "name": "",
          "type": "bool"
        }
      ],
      "stateMutability": "view",
      "type": "function",
      "constant": true
    },
    {
      "inputs": [
        {
          "internalType": "address",
          "name": "spender",
          "type": "address"
        },
        {
          "internalType": "uint256",
          "name": "tokenId",
          "type": "uint256"
        }
      ],
      "name": "isApprovedOrOwner",
      "outputs": [
        {
          "internalType": "bool",
          "name": "",
          "type": "bool"
        }
      ],
      "stateMutability": "view",
      "type": "function",
      "constant": true
    }
  ],
  "bytecode": "0x60806040523480156200001157600080fd5b506040518060400160405280601781526020017f466978656420496e636f6d6520426f6e6420546f6b656e0000000000000000008152506040518060400160405280600381526020017f4649420000000000000000000000000000000000000000000000000000000000815250816000908051906020019062000096929190620000b8565b508060019080519060200190620000af929190620000b8565b505050620001cd565b828054620000c69062000168565b90600052602060002090601f016020900481019282620000ea576000855562000136565b82601f106200010557805160ff191683800117855562000136565b8280016001018555821562000136579182015b828111156200013557825182559160200191906001019062000118565b5b50905062000145919062000149565b5090565b5b80821115620001645760008160009055506001016200014a565b5090565b600060028204905060018216806200018157607f821691505b602082108114156200019857620001976200019e565b5b50919050565b7f4e487b7100000000000000000000000000000000000000000000000000000000600052602260045260246000fd5b61336380620001dd6000396000f3fe608060405234801561001057600080fd5b50600436106101165760003560e01c80634f6ccce7116100a2578063a22cb46511610071578063a22cb46514610319578063b88d4fde14610335578063c87b56dd14610351578063d0def52114610381578063e985e9c5146103b157610116565b80634f6ccce71461026b5780636352211e1461029b57806370a08231146102cb57806395d89b41146102fb57610116565b806318160ddd116100e957806318160ddd146101b557806323b872dd146101d35780632f745c59146101ef57806342842e0e1461021f578063430c20811461023b57610116565b806301ffc9a71461011b57806306fdde031461014b578063081812fc14610169578063095ea7b314610199575b600080fd5b610135600480360381019061013091906123eb565b6103e1565b6040516101429190612c7b565b60405180910390f35b6101536103f3565b6040516101609190612c96565b60405180910390f35b610183600480360381019061017e919061243d565b610485565b6040516101909190612c14565b60405180910390f35b6101b360048036038101906101ae91906123af565b61050a565b005b6101bd610622565b6040516101ca9190612ef8565b60405180910390f35b6101ed60048036038101906101e89190612255565b61062f565b005b610209600480360381019061020491906123af565b61068f565b6040516102169190612ef8565b60405180910390f35b61023960048036038101906102349190612255565b610734565b005b610255600480360381019061025091906123af565b610754565b6040516102629190612c7b565b60405180910390f35b6102856004803603810190610280919061243d565b61076d565b6040516102929190612ef8565b60405180910390f35b6102b560048036038101906102b0919061243d565b610804565b6040516102c29190612c14565b60405180910390f35b6102e560048036038101906102e091906121f0565b6108b6565b6040516102f29190612ef8565b60405180910390f35b61030361096e565b6040516103109190612c96565b60405180910390f35b610333600480360381019061032e919061231f565b610a00565b005b61034f600480360381019061034a91906122a4565b610a16565b005b61036b6004803603810190610366919061243d565b610a78565b6040516103789190612c96565b60405180910390f35b61039b6004803603810190610396919061235b565b610a8a565b6040516103a89190612ef8565b60405180910390f35b6103cb60048036038101906103c69190612219565b610ac7565b6040516103d89190612c7b565b60405180910390f35b60006103ec82610b5b565b9050919050565b60606000805461040290613158565b80601f016020809104026020016040519081016040528092919081815260200182805461042e90613158565b801561047b5780601f106104505761010080835404028352916020019161047b565b820191906000526020600020905b81548152906001019060200180831161045e57829003601f168201915b5050505050905090565b600061049082610bd5565b6104cf576040517f08c379a00000000000000000000000000000000000000000000000000000000081526004016104c690612e38565b60405180910390fd5b6004600083815260200190815260200160002060009054906101000a900473ffffffffffffffffffffffffffffffffffffffff169050919050565b600061051582610804565b90508073ffffffffffffffffffffffffffffffffffffffff168373ffffffffffffffffffffffffffffffffffffffff161415610586576040517f08c379a000000000000000000000000000000000000000000000000000000000815260040161057d90612e98565b60405180910390fd5b8073ffffffffffffffffffffffffffffffffffffffff166105a5610c41565b73ffffffffffffffffffffffffffffffffffffffff1614806105d457506105d3816105ce610c41565b610ac7565b5b610613576040517f08c379a000000000000000000000000000000000000000000000000000000000815260040161060a90612d78565b60405180910390fd5b61061d8383610c49565b505050565b6000600880549050905090565b61064061063a610c41565b82610d02565b61067f576040517f08c379a000000000000000000000000000000000000000000000000000000000815260040161067690612eb8565b60405180910390fd5b61068a838383610de0565b505050565b600061069a836108b6565b82106106db576040517f08c379a00000000000000000000000000000000000000000000000000000000081526004016106d290612cb8565b60405180910390fd5b600660008473ffffffffffffffffffffffffffffffffffffffff1673ffffffffffffffffffffffffffffffffffffffff168152602001908152602001600020600083815260200190815260200160002054905092915050565b61074f83838360405180602001604052806000815250610a16565b505050565b6000806107618484610d02565b90508091505092915050565b6000610777610622565b82106107b8576040517f08c379a00000000000000000000000000000000000000000000000000000000081526004016107af90612ed8565b60405180910390fd5b600882815481106107f2577f4e487b7100000000000000000000000000000000000000000000000000000000600052603260045260246000fd5b90600052602060002001549050919050565b6000806002600084815260200190815260200160002060009054906101000a900473ffffffffffffffffffffffffffffffffffffffff169050600073ffffffffffffffffffffffffffffffffffffffff168173ffffffffffffffffffffffffffffffffffffffff1614156108ad576040517f08c379a00000000000000000000000000000000000000000000000000000000081526004016108a490612db8565b60405180910390fd5b80915050919050565b60008073ffffffffffffffffffffffffffffffffffffffff168273ffffffffffffffffffffffffffffffffffffffff161415610927576040517f08c379a000000000000000000000000000000000000000000000000000000000815260040161091e90612d98565b60405180910390fd5b600360008373ffffffffffffffffffffffffffffffffffffffff1673ffffffffffffffffffffffffffffffffffffffff168152602001908152602001600020549050919050565b60606001805461097d90613158565b80601f01602080910402602001604051908101604052809291908181526020018280546109a990613158565b80156109f65780601f106109cb576101008083540402835291602001916109f6565b820191906000526020600020905b8154815290600101906020018083116109d957829003601f168201915b5050505050905090565b610a12610a0b610c41565b838361103c565b5050565b610a27610a21610c41565b83610d02565b610a66576040517f08c379a0000000000000000000000000000000000000000000000000000000008152600401610a5d90612eb8565b60405180910390fd5b610a72848484846111a9565b50505050565b6060610a8382611205565b9050919050565b6000600b6000815480929190610a9f9061318a565b9190505550610ab083600b54611357565b610abc600b5483611375565b600b54905092915050565b6000600560008473ffffffffffffffffffffffffffffffffffffffff1673ffffffffffffffffffffffffffffffffffffffff16815260200190815260200160002060008373ffffffffffffffffffffffffffffffffffffffff1673ffffffffffffffffffffffffffffffffffffffff16815260200190815260200160002060009054906101000a900460ff16905092915050565b60007f780e9d63000000000000000000000000000000000000000000000000000000007bffffffffffffffffffffffffffffffffffffffffffffffffffffffff1916827bffffffffffffffffffffffffffffffffffffffffffffffffffffffff19161480610bce5750610bcd826113e9565b5b9050919050565b60008073ffffffffffffffffffffffffffffffffffffffff166002600084815260200190815260200160002060009054906101000a900473ffffffffffffffffffffffffffffffffffffffff1673ffffffffffffffffffffffffffffffffffffffff1614159050919050565b600033905090565b816004600083815260200190815260200160002060006101000a81548173ffffffffffffffffffffffffffffffffffffffff021916908373ffffffffffffffffffffffffffffffffffffffff160217905550808273ffffffffffffffffffffffffffffffffffffffff16610cbc83610804565b73ffffffffffffffffffffffffffffffffffffffff167f8c5be1e5ebec7d5bd14f71427d1e84f3dd0314c0f7b2291e5b200ac8c7c3b92560405160405180910390a45050565b6000610d0d82610bd5565b610d4c576040517f08c379a0000000000000000000000000000000000000000000000000000000008152600401610d4390612d58565b60405180910390fd5b6000610d5783610804565b90508073ffffffffffffffffffffffffffffffffffffffff168473ffffffffffffffffffffffffffffffffffffffff161480610dc657508373ffffffffffffffffffffffffffffffffffffffff16610dae84610485565b73ffffffffffffffffffffffffffffffffffffffff16145b80610dd75750610dd68185610ac7565b5b91505092915050565b8273ffffffffffffffffffffffffffffffffffffffff16610e0082610804565b73ffffffffffffffffffffffffffffffffffffffff1614610e56576040517f08c379a0000000000000000000000000000000000000000000000000000000008152600401610e4d90612e58565b60405180910390fd5b600073ffffffffffffffffffffffffffffffffffffffff168273ffffffffffffffffffffffffffffffffffffffff161415610ec6576040517f08c379a0000000000000000000000000000000000000000000000000000000008152600401610ebd90612d18565b60405180910390fd5b610ed18383836114cb565b610edc600082610c49565b6001600360008573ffffffffffffffffffffffffffffffffffffffff1673ffffffffffffffffffffffffffffffffffffffff1681526020019081526020016000206000828254610f2c919061306e565b925050819055506001600360008473ffffffffffffffffffffffffffffffffffffffff1673ffffffffffffffffffffffffffffffffffffffff1681526020019081526020016000206000828254610f839190612fe7565b92505081905550816002600083815260200190815260200160002060006101000a81548173ffffffffffffffffffffffffffffffffffffffff021916908373ffffffffffffffffffffffffffffffffffffffff160217905550808273ffffffffffffffffffffffffffffffffffffffff168473ffffffffffffffffffffffffffffffffffffffff167fddf252ad1be2c89b69c2b068fc378daa952ba7f163c4a11628f55a4df523b3ef60405160405180910390a4505050565b8173ffffffffffffffffffffffffffffffffffffffff168373ffffffffffffffffffffffffffffffffffffffff1614156110ab576040517f08c379a00000000000000000000000000000000000000000000000000000000081526004016110a290612d38565b60405180910390fd5b80600560008573ffffffffffffffffffffffffffffffffffffffff1673ffffffffffffffffffffffffffffffffffffffff16815260200190815260200160002060008473ffffffffffffffffffffffffffffffffffffffff1673ffffffffffffffffffffffffffffffffffffffff16815260200190815260200160002060006101000a81548160ff0219169083151502179055508173ffffffffffffffffffffffffffffffffffffffff168373ffffffffffffffffffffffffffffffffffffffff167f17307eab39ab6107e8899845ad3d59bd9653f200f220920489ca2b5937696c318360405161119c9190612c7b565b60405180910390a3505050565b6111b4848484610de0565b6111c0848484846114db565b6111ff576040517f08c379a00000000000000000000000000000000000000000000000000000000081526004016111f690612cd8565b60405180910390fd5b50505050565b606061121082610bd5565b61124f576040517f08c379a000000000000000000000000000000000000000000000000000000000815260040161124690612e18565b60405180910390fd5b6000600a6000848152602001908152602001600020805461126f90613158565b80601f016020809104026020016040519081016040528092919081815260200182805461129b90613158565b80156112e85780601f106112bd576101008083540402835291602001916112e8565b820191906000526020600020905b8154815290600101906020018083116112cb57829003601f168201915b5050505050905060006112f9611672565b905060008151141561130f578192505050611352565b60008251111561134457808260405160200161132c929190612bf0565b60405160208183030381529060405292505050611352565b61134d84611689565b925050505b919050565b611371828260405180602001604052806000815250611730565b5050565b61137e82610bd5565b6113bd576040517f08c379a00000000000000000000000000000000000000000000000000000000081526004016113b490612dd8565b60405180910390fd5b80600a600084815260200190815260200160002090805190602001906113e4929190612014565b505050565b60007f80ac58cd000000000000000000000000000000000000000000000000000000007bffffffffffffffffffffffffffffffffffffffffffffffffffffffff1916827bffffffffffffffffffffffffffffffffffffffffffffffffffffffff191614806114b457507f5b5e139f000000000000000000000000000000000000000000000000000000007bffffffffffffffffffffffffffffffffffffffffffffffffffffffff1916827bffffffffffffffffffffffffffffffffffffffffffffffffffffffff1916145b806114c457506114c38261178b565b5b9050919050565b6114d68383836117f5565b505050565b60006114fc8473ffffffffffffffffffffffffffffffffffffffff16611909565b15611665578373ffffffffffffffffffffffffffffffffffffffff1663150b7a02611525610c41565b8786866040518563ffffffff1660e01b81526004016115479493929190612c2f565b602060405180830381600087803b15801561156157600080fd5b505af192505050801561159257506040513d601f19601f8201168201806040525081019061158f9190612414565b60015b611615573d80600081146115c2576040519150601f19603f3d011682016040523d82523d6000602084013e6115c7565b606091505b5060008151141561160d576040517f08c379a000000000000000000000000000000000000000000000000000000000815260040161160490612cd8565b60405180910390fd5b805181602001fd5b63150b7a0260e01b7bffffffffffffffffffffffffffffffffffffffffffffffffffffffff1916817bffffffffffffffffffffffffffffffffffffffffffffffffffffffff19161491505061166a565b600190505b949350505050565b606060405180602001604052806000815250905090565b606061169482610bd5565b6116d3576040517f08c379a00000000000000000000000000000000000000000000000000000000081526004016116ca90612e78565b60405180910390fd5b60006116dd611672565b905060008151116116fd5760405180602001604052806000815250611728565b806117078461191c565b604051602001611718929190612bf0565b6040516020818303038152906040525b915050919050565b61173a8383611ac9565b61174760008484846114db565b611786576040517f08c379a000000000000000000000000000000000000000000000000000000000815260040161177d90612cd8565b60405180910390fd5b505050565b60007f01ffc9a7000000000000000000000000000000000000000000000000000000007bffffffffffffffffffffffffffffffffffffffffffffffffffffffff1916827bffffffffffffffffffffffffffffffffffffffffffffffffffffffff1916149050919050565b611800838383611c97565b600073ffffffffffffffffffffffffffffffffffffffff168373ffffffffffffffffffffffffffffffffffffffff1614156118435761183e81611c9c565b611882565b8173ffffffffffffffffffffffffffffffffffffffff168373ffffffffffffffffffffffffffffffffffffffff1614611881576118808382611ce5565b5b5b600073ffffffffffffffffffffffffffffffffffffffff168273ffffffffffffffffffffffffffffffffffffffff1614156118c5576118c081611e52565b611904565b8273ffffffffffffffffffffffffffffffffffffffff168273ffffffffffffffffffffffffffffffffffffffff1614611903576119028282611f95565b5b5b505050565b600080823b905060008111915050919050565b60606000821415611964576040518060400160405280600181526020017f30000000000000000000000000000000000000000000000000000000000000008152509050611ac4565b600082905060005b6000821461199657808061197f9061318a565b915050600a8261198f919061303d565b915061196c565b60008167ffffffffffffffff8111156119d8577f4e487b7100000000000000000000000000000000000000000000000000000000600052604160045260246000fd5b6040519080825280601f01601f191660200182016040528015611a0a5781602001600182028036833780820191505090505b5090505b60008514611abd57600182611a23919061306e565b9150600a85611a3291906131d3565b6030611a3e9190612fe7565b60f81b818381518110611a7a577f4e487b7100000000000000000000000000000000000000000000000000000000600052603260045260246000fd5b60200101907effffffffffffffffffffffffffffffffffffffffffffffffffffffffffffff1916908160001a905350600a85611ab6919061303d565b9450611a0e565b8093505050505b919050565b600073ffffffffffffffffffffffffffffffffffffffff168273ffffffffffffffffffffffffffffffffffffffff161415611b39576040517f08c379a0000000000000000000000000000000000000000000000000000000008152600401611b3090612df8565b60405180910390fd5b611b4281610bd5565b15611b82576040517f08c379a0000000000000000000000000000000000000000000000000000000008152600401611b7990612cf8565b60405180910390fd5b611b8e600083836114cb565b6001600360008473ffffffffffffffffffffffffffffffffffffffff1673ffffffffffffffffffffffffffffffffffffffff1681526020019081526020016000206000828254611bde9190612fe7565b92505081905550816002600083815260200190815260200160002060006101000a81548173ffffffffffffffffffffffffffffffffffffffff021916908373ffffffffffffffffffffffffffffffffffffffff160217905550808273ffffffffffffffffffffffffffffffffffffffff16600073ffffffffffffffffffffffffffffffffffffffff167fddf252ad1be2c89b69c2b068fc378daa952ba7f163c4a11628f55a4df523b3ef60405160405180910390a45050565b505050565b6008805490506009600083815260200190815260200160002081905550600881908060018154018082558091505060019003906000526020600020016000909190919091505550565b60006001611cf2846108b6565b611cfc919061306e565b9050600060076000848152602001908152602001600020549050818114611de1576000600660008673ffffffffffffffffffffffffffffffffffffffff1673ffffffffffffffffffffffffffffffffffffffff168152602001908152602001600020600084815260200190815260200160002054905080600660008773ffffffffffffffffffffffffffffffffffffffff1673ffffffffffffffffffffffffffffffffffffffff168152602001908152602001600020600084815260200190815260200160002081905550816007600083815260200190815260200160002081905550505b6007600084815260200190815260200160002060009055600660008573ffffffffffffffffffffffffffffffffffffffff1673ffffffffffffffffffffffffffffffffffffffff16815260200190815260200160002060008381526020019081526020016000206000905550505050565b60006001600880549050611e66919061306e565b9050600060096000848152602001908152602001600020549050600060088381548110611ebc577f4e487b7100000000000000000000000000000000000000000000000000000000600052603260045260246000fd5b906000526020600020015490508060088381548110611f04577f4e487b7100000000000000000000000000000000000000000000000000000000600052603260045260246000fd5b906000526020600020018190555081600960008381526020019081526020016000208190555060096000858152602001908152602001600020600090556008805480611f79577f4e487b7100000000000000000000000000000000000000000000000000000000600052603160045260246000fd5b6001900381819060005260206000200160009055905550505050565b6000611fa0836108b6565b905081600660008573ffffffffffffffffffffffffffffffffffffffff1673ffffffffffffffffffffffffffffffffffffffff168152602001908152602001600020600083815260200190815260200160002081905550806007600084815260200190815260200160002081905550505050565b82805461202090613158565b90600052602060002090601f0160209004810192826120425760008555612089565b82601f1061205b57805160ff1916838001178555612089565b82800160010185558215612089579182015b8281111561208857825182559160200191906001019061206d565b5b509050612096919061209a565b5090565b5b808211156120b357600081600090555060010161209b565b5090565b60006120ca6120c584612f44565b612f13565b9050828152602081018484840111156120e257600080fd5b6120ed848285613116565b509392505050565b600061210861210384612f74565b612f13565b90508281526020810184848401111561212057600080fd5b61212b848285613116565b509392505050565b600081359050612142816132d1565b92915050565b600081359050612157816132e8565b92915050565b60008135905061216c816132ff565b92915050565b600081519050612181816132ff565b92915050565b600082601f83011261219857600080fd5b81356121a88482602086016120b7565b91505092915050565b600082601f8301126121c257600080fd5b81356121d28482602086016120f5565b91505092915050565b6000813590506121ea81613316565b92915050565b60006020828403121561220257600080fd5b600061221084828501612133565b91505092915050565b6000806040838503121561222c57600080fd5b600061223a85828601612133565b925050602061224b85828601612133565b9150509250929050565b60008060006060848603121561226a57600080fd5b600061227886828701612133565b935050602061228986828701612133565b925050604061229a868287016121db565b9150509250925092565b600080600080608085870312156122ba57600080fd5b60006122c887828801612133565b94505060206122d987828801612133565b93505060406122ea878288016121db565b925050606085013567ffffffffffffffff81111561230757600080fd5b61231387828801612187565b91505092959194509250565b6000806040838503121561233257600080fd5b600061234085828601612133565b925050602061235185828601612148565b9150509250929050565b6000806040838503121561236e57600080fd5b600061237c85828601612133565b925050602083013567ffffffffffffffff81111561239957600080fd5b6123a5858286016121b1565b9150509250929050565b600080604083850312156123c257600080fd5b60006123d085828601612133565b92505060206123e1858286016121db565b9150509250929050565b6000602082840312156123fd57600080fd5b600061240b8482850161215d565b91505092915050565b60006020828403121561242657600080fd5b600061243484828501612172565b91505092915050565b60006020828403121561244f57600080fd5b600061245d848285016121db565b91505092915050565b61246f816130a2565b82525050565b61247e816130b4565b82525050565b600061248f82612fa4565b6124998185612fba565b93506124a9818560208601613125565b6124b2816132c0565b840191505092915050565b60006124c882612faf565b6124d28185612fcb565b93506124e2818560208601613125565b6124eb816132c0565b840191505092915050565b600061250182612faf565b61250b8185612fdc565b935061251b818560208601613125565b80840191505092915050565b6000612534602b83612fcb565b91507f455243373231456e756d657261626c653a206f776e657220696e646578206f7560008301527f74206f6620626f756e64730000000000000000000000000000000000000000006020830152604082019050919050565b600061259a603283612fcb565b91507f4552433732313a207472616e7366657220746f206e6f6e20455243373231526560008301527f63656976657220696d706c656d656e74657200000000000000000000000000006020830152604082019050919050565b6000612600601c83612fcb565b91507f4552433732313a20746f6b656e20616c7265616479206d696e746564000000006000830152602082019050919050565b6000612640602483612fcb565b91507f4552433732313a207472616e7366657220746f20746865207a65726f2061646460008301527f72657373000000000000000000000000000000000000000000000000000000006020830152604082019050919050565b60006126a6601983612fcb565b91507f4552433732313a20617070726f766520746f2063616c6c6572000000000000006000830152602082019050919050565b60006126e6602c83612fcb565b91507f4552433732313a206f70657261746f7220717565727920666f72206e6f6e657860008301527f697374656e7420746f6b656e00000000000000000000000000000000000000006020830152604082019050919050565b600061274c603883612fcb565b91507f4552433732313a20617070726f76652063616c6c6572206973206e6f74206f7760008301527f6e6572206e6f7220617070726f76656420666f7220616c6c00000000000000006020830152604082019050919050565b60006127b2602a83612fcb565b91507f4552433732313a2062616c616e636520717565727920666f7220746865207a6560008301527f726f2061646472657373000000000000000000000000000000000000000000006020830152604082019050919050565b6000612818602983612fcb565b91507f4552433732313a206f776e657220717565727920666f72206e6f6e657869737460008301527f656e7420746f6b656e00000000000000000000000000000000000000000000006020830152604082019050919050565b600061287e602e83612fcb565b91507f45524337323155524953746f726167653a2055524920736574206f66206e6f6e60008301527f6578697374656e7420746f6b656e0000000000000000000000000000000000006020830152604082019050919050565b60006128e4602083612fcb565b91507f4552433732313a206d696e7420746f20746865207a65726f20616464726573736000830152602082019050919050565b6000612924603183612fcb565b91507f45524337323155524953746f726167653a2055524920717565727920666f722060008301527f6e6f6e6578697374656e7420746f6b656e0000000000000000000000000000006020830152604082019050919050565b600061298a602c83612fcb565b91507f4552433732313a20617070726f76656420717565727920666f72206e6f6e657860008301527f697374656e7420746f6b656e00000000000000000000000000000000000000006020830152604082019050919050565b60006129f0602983612fcb565b91507f4552433732313a207472616e73666572206f6620746f6b656e2074686174206960008301527f73206e6f74206f776e00000000000000000000000000000000000000000000006020830152604082019050919050565b6000612a56602f83612fcb565b91507f4552433732314d657461646174613a2055524920717565727920666f72206e6f60008301527f6e6578697374656e7420746f6b656e00000000000000000000000000000000006020830152604082019050919050565b6000612abc602183612fcb565b91507f4552433732313a20617070726f76616c20746f2063757272656e74206f776e6560008301527f72000000000000000000000000000000000000000000000000000000000000006020830152604082019050919050565b6000612b22603183612fcb565b91507f4552433732313a207472616e736665722063616c6c6572206973206e6f74206f60008301527f776e6572206e6f7220617070726f7665640000000000000000000000000000006020830152604082019050919050565b6000612b88602c83612fcb565b91507f455243373231456e756d657261626c653a20676c6f62616c20696e646578206f60008301527f7574206f6620626f756e647300000000000000000000000000000000000000006020830152604082019050919050565b612bea8161310c565b82525050565b6000612bfc82856124f6565b9150612c0882846124f6565b91508190509392505050565b6000602082019050612c296000830184612466565b92915050565b6000608082019050612c446000830187612466565b612c516020830186612466565b612c5e6040830185612be1565b8181036060830152612c708184612484565b905095945050505050565b6000602082019050612c906000830184612475565b92915050565b60006020820190508181036000830152612cb081846124bd565b905092915050565b60006020820190508181036000830152612cd181612527565b9050919050565b60006020820190508181036000830152612cf18161258d565b9050919050565b60006020820190508181036000830152612d11816125f3565b9050919050565b60006020820190508181036000830152612d3181612633565b9050919050565b60006020820190508181036000830152612d5181612699565b9050919050565b60006020820190508181036000830152612d71816126d9565b9050919050565b60006020820190508181036000830152612d918161273f565b9050919050565b60006020820190508181036000830152612db1816127a5565b9050919050565b60006020820190508181036000830152612dd18161280b565b9050919050565b60006020820190508181036000830152612df181612871565b9050919050565b60006020820190508181036000830152612e11816128d7565b9050919050565b60006020820190508181036000830152612e3181612917565b9050919050565b60006020820190508181036000830152612e518161297d565b9050919050565b60006020820190508181036000830152612e71816129e3565b9050919050565b60006020820190508181036000830152612e9181612a49565b9050919050565b60006020820190508181036000830152612eb181612aaf565b9050919050565b60006020820190508181036000830152612ed181612b15565b9050919050565b60006020820190508181036000830152612ef181612b7b565b9050919050565b6000602082019050612f0d6000830184612be1565b92915050565b6000604051905081810181811067ffffffffffffffff82111715612f3a57612f39613291565b5b8060405250919050565b600067ffffffffffffffff821115612f5f57612f5e613291565b5b601f19601f8301169050602081019050919050565b600067ffffffffffffffff821115612f8f57612f8e613291565b5b601f19601f8301169050602081019050919050565b600081519050919050565b600081519050919050565b600082825260208201905092915050565b600082825260208201905092915050565b600081905092915050565b6000612ff28261310c565b9150612ffd8361310c565b9250827fffffffffffffffffffffffffffffffffffffffffffffffffffffffffffffffff0382111561303257613031613204565b5b828201905092915050565b60006130488261310c565b91506130538361310c565b92508261306357613062613233565b5b828204905092915050565b60006130798261310c565b91506130848361310c565b92508282101561309757613096613204565b5b828203905092915050565b60006130ad826130ec565b9050919050565b60008115159050919050565b60007fffffffff0000000000000000000000000000000000000000000000000000000082169050919050565b600073ffffffffffffffffffffffffffffffffffffffff82169050919050565b6000819050919050565b82818337600083830152505050565b60005b83811015613143578082015181840152602081019050613128565b83811115613152576000848401525b50505050565b6000600282049050600182168061317057607f821691505b6020821081141561318457613183613262565b5b50919050565b60006131958261310c565b91507fffffffffffffffffffffffffffffffffffffffffffffffffffffffffffffffff8214156131c8576131c7613204565b5b600182019050919050565b60006131de8261310c565b91506131e98361310c565b9250826131f9576131f8613233565b5b828206905092915050565b7f4e487b7100000000000000000000000000000000000000000000000000000000600052601160045260246000fd5b7f4e487b7100000000000000000000000000000000000000000000000000000000600052601260045260246000fd5b7f4e487b7100000000000000000000000000000000000000000000000000000000600052602260045260246000fd5b7f4e487b7100000000000000000000000000000000000000000000000000000000600052604160045260246000fd5b6000601f19601f8301169050919050565b6132da816130a2565b81146132e557600080fd5b50565b6132f1816130b4565b81146132fc57600080fd5b50565b613308816130c0565b811461331357600080fd5b50565b61331f8161310c565b811461332a57600080fd5b5056fea264697066735822122073d983ae163d45e0199651360d2f0044151dbc52e31d0d7b03e5404d7161531c64736f6c63430008000033",
  "immutableReferences": {},
  "source": "// SPDX-License-Identifier: MIT\npragma solidity 0.8.0;\n\n// @author Simon Roope\n// @title  Fixed Income Bond NFT -- interface\n// @description The contract used to tokenise Fixed Income Bonds.\n\nimport \"@openzeppelin/contracts/token/ERC721/extensions/ERC721Enumerable.sol\";\nimport \"@openzeppelin/contracts/token/ERC721/extensions/ERC721URIStorage.sol\";\n\ncontract BondToken is ERC721Enumerable, ERC721URIStorage {\n\n  /**\n   * Contract constructor.\n   */\n  constructor() ERC721(\"Fixed Income Bond Token\", \"FIB\") {}\n\n  /* \n  * Function used to mint a new NFT.\n  * Contract address & uint256 tokenId must be globally unique.\n  *\n  * _issuer: Issuer's wallet address who will receive the NFT.\n  * _hash: IPFS hash associated with the content we are creating the NFT for.\n  * _metadata: Link to bond certificate. Includes the issuer name, price, coupon rate & dates and maturity date. \n  */\n\n  uint bondTokenId;    \n\n  function mint(address _issuer, string memory _metadata) public returns (uint) {\n    \n    bondTokenId++;        \n\n    _safeMint(_issuer, bondTokenId);\n    _setTokenURI(bondTokenId, _metadata);\n\n    return bondTokenId;\n  }\n\n  function tokenURI( uint256 tokenId) public view virtual override(ERC721, ERC721URIStorage) returns (string memory) {\n        return ERC721URIStorage.tokenURI(tokenId);\n  }\n\n  function _beforeTokenTransfer(\n        address from,\n        address to,\n        uint256 tokenId\n    ) internal virtual override(ERC721, ERC721Enumerable) {\n        ERC721Enumerable._beforeTokenTransfer(from, to, tokenId);\n  }\n\n  function _burn(uint256 tokenId) internal virtual override(ERC721, ERC721URIStorage) {\n      ERC721URIStorage._burn(tokenId);\n  }\n\n  function supportsInterface(\n      bytes4 interfaceId\n    ) public view virtual override(ERC721, ERC721Enumerable) returns (bool) {\n        return ERC721Enumerable.supportsInterface(interfaceId);\n  }\n\n  function isApprovedOrOwner(address spender, uint256 tokenId) public view returns (bool) {\n    bool isAppr = _isApprovedOrOwner(spender, tokenId);\n    return isAppr;\n  }\n\n}\n",
  "sourcePath": "/Users/simonroope/Documents/scr/blockchain/consensys/projectFinal/bondv12/contracts/BondToken.sol",
  "compiler": {
    "name": "solc",
    "version": "0.8.0+commit.c7dfd78e.Emscripten.clang"
  },
  "schemaVersion": "3.4.3",
  "updatedAt": "2021-12-15T22:09:57.459Z",
  "networkType": "ethereum",
  "devdoc": {
    "kind": "dev",
    "methods": {
      "approve(address,uint256)": {
        "details": "See {IERC721-approve}."
      },
      "balanceOf(address)": {
        "details": "See {IERC721-balanceOf}."
      },
      "getApproved(uint256)": {
        "details": "See {IERC721-getApproved}."
      },
      "isApprovedForAll(address,address)": {
        "details": "See {IERC721-isApprovedForAll}."
      },
      "name()": {
        "details": "See {IERC721Metadata-name}."
      },
      "ownerOf(uint256)": {
        "details": "See {IERC721-ownerOf}."
      },
      "safeTransferFrom(address,address,uint256)": {
        "details": "See {IERC721-safeTransferFrom}."
      },
      "safeTransferFrom(address,address,uint256,bytes)": {
        "details": "See {IERC721-safeTransferFrom}."
      },
      "setApprovalForAll(address,bool)": {
        "details": "See {IERC721-setApprovalForAll}."
      },
      "symbol()": {
        "details": "See {IERC721Metadata-symbol}."
      },
      "tokenByIndex(uint256)": {
        "details": "See {IERC721Enumerable-tokenByIndex}."
      },
      "tokenOfOwnerByIndex(address,uint256)": {
        "details": "See {IERC721Enumerable-tokenOfOwnerByIndex}."
      },
      "totalSupply()": {
        "details": "See {IERC721Enumerable-totalSupply}."
      },
      "transferFrom(address,address,uint256)": {
        "details": "See {IERC721-transferFrom}."
      }
    },
    "version": 1
  },
  "userdoc": {
    "kind": "user",
    "methods": {
      "constructor": {
        "notice": "Contract constructor."
      }
    },
    "version": 1
  }
}