{
  "contractName": "BondMarket",
  "abi": [
    {
      "inputs": [
        {
          "internalType": "address",
          "name": "_bondTokenAddress",
          "type": "address"
        },
        {
          "internalType": "address",
          "name": "_daiAddress",
          "type": "address"
        }
      ],
      "stateMutability": "nonpayable",
      "type": "constructor"
    },
    {
      "anonymous": false,
      "inputs": [
        {
          "indexed": true,
          "internalType": "address",
          "name": "issuer",
          "type": "address"
        },
        {
          "indexed": true,
          "internalType": "uint256",
          "name": "bondId",
          "type": "uint256"
        },
        {
          "indexed": false,
          "internalType": "uint256",
          "name": "issueDate",
          "type": "uint256"
        },
        {
          "indexed": false,
          "internalType": "bytes32",
          "name": "_name",
          "type": "bytes32"
        },
        {
          "indexed": false,
          "internalType": "uint256",
          "name": "issuePrice",
          "type": "uint256"
        },
        {
          "indexed": false,
          "internalType": "uint256",
          "name": "couponRate",
          "type": "uint256"
        },
        {
          "indexed": false,
          "internalType": "uint256",
          "name": "couponInterval",
          "type": "uint256"
        },
        {
          "indexed": false,
          "internalType": "uint256",
          "name": "maturityDate",
          "type": "uint256"
        },
        {
          "indexed": false,
          "internalType": "uint256",
          "name": "faceValue",
          "type": "uint256"
        }
      ],
      "name": "BondIssued",
      "type": "event"
    },
    {
      "anonymous": false,
      "inputs": [
        {
          "indexed": true,
          "internalType": "uint256",
          "name": "bondId",
          "type": "uint256"
        },
        {
          "indexed": false,
          "internalType": "address",
          "name": "from",
          "type": "address"
        },
        {
          "indexed": false,
          "internalType": "address",
          "name": "to",
          "type": "address"
        },
        {
          "indexed": false,
          "internalType": "uint256",
          "name": "maturityDate",
          "type": "uint256"
        },
        {
          "indexed": false,
          "internalType": "uint256",
          "name": "faceValue",
          "type": "uint256"
        }
      ],
      "name": "BondMatured",
      "type": "event"
    },
    {
      "anonymous": false,
      "inputs": [
        {
          "indexed": true,
          "internalType": "uint256",
          "name": "bondId",
          "type": "uint256"
        },
        {
          "indexed": false,
          "internalType": "address",
          "name": "from",
          "type": "address"
        },
        {
          "indexed": false,
          "internalType": "address",
          "name": "to",
          "type": "address"
        },
        {
          "indexed": false,
          "internalType": "uint256",
          "name": "salePrice",
          "type": "uint256"
        }
      ],
      "name": "BondSold",
      "type": "event"
    },
    {
      "anonymous": false,
      "inputs": [
        {
          "indexed": true,
          "internalType": "uint256",
          "name": "bondId",
          "type": "uint256"
        },
        {
          "indexed": false,
          "internalType": "address",
          "name": "from",
          "type": "address"
        },
        {
          "indexed": false,
          "internalType": "address",
          "name": "to",
          "type": "address"
        },
        {
          "indexed": false,
          "internalType": "uint256",
          "name": "couponAmount",
          "type": "uint256"
        }
      ],
      "name": "CouponPaid",
      "type": "event"
    },
    {
      "anonymous": false,
      "inputs": [
        {
          "indexed": true,
          "internalType": "uint256",
          "name": "bondId",
          "type": "uint256"
        },
        {
          "indexed": false,
          "internalType": "bytes32",
          "name": "toRating",
          "type": "bytes32"
        },
        {
          "indexed": false,
          "internalType": "uint256",
          "name": "ratingDate",
          "type": "uint256"
        }
      ],
      "name": "RatingChanged",
      "type": "event"
    },
    {
      "inputs": [],
      "name": "admin",
      "outputs": [
        {
          "internalType": "address",
          "name": "",
          "type": "address"
        }
      ],
      "stateMutability": "view",
      "type": "function",
      "constant": true
    },
    {
      "inputs": [
        {
          "internalType": "uint256",
          "name": "",
          "type": "uint256"
        }
      ],
      "name": "allBondRatings",
      "outputs": [
        {
          "internalType": "bytes32",
          "name": "rating",
          "type": "bytes32"
        },
        {
          "internalType": "uint256",
          "name": "ratingDate",
          "type": "uint256"
        }
      ],
      "stateMutability": "view",
      "type": "function",
      "constant": true
    },
    {
      "inputs": [
        {
          "internalType": "uint256",
          "name": "",
          "type": "uint256"
        }
      ],
      "name": "allBondTransactions",
      "outputs": [
        {
          "internalType": "address",
          "name": "from",
          "type": "address"
        },
        {
          "internalType": "address",
          "name": "to",
          "type": "address"
        },
        {
          "internalType": "uint256",
          "name": "transPrice",
          "type": "uint256"
        },
        {
          "internalType": "uint256",
          "name": "transDate",
          "type": "uint256"
        }
      ],
      "stateMutability": "view",
      "type": "function",
      "constant": true
    },
    {
      "inputs": [
        {
          "internalType": "uint256",
          "name": "",
          "type": "uint256"
        }
      ],
      "name": "allBonds",
      "outputs": [
        {
          "internalType": "address",
          "name": "issuer",
          "type": "address"
        },
        {
          "internalType": "uint256",
          "name": "issueDate",
          "type": "uint256"
        },
        {
          "internalType": "bytes32",
          "name": "name",
          "type": "bytes32"
        },
        {
          "internalType": "uint256",
          "name": "salePrice",
          "type": "uint256"
        },
        {
          "internalType": "uint256",
          "name": "couponRate",
          "type": "uint256"
        },
        {
          "internalType": "uint256",
          "name": "couponInterval",
          "type": "uint256"
        },
        {
          "internalType": "uint256",
          "name": "maturityDate",
          "type": "uint256"
        },
        {
          "internalType": "uint256",
          "name": "faceValue",
          "type": "uint256"
        },
        {
          "internalType": "bool",
          "name": "forSale",
          "type": "bool"
        },
        {
          "internalType": "address",
          "name": "holder",
          "type": "address"
        }
      ],
      "stateMutability": "view",
      "type": "function",
      "constant": true
    },
    {
      "inputs": [],
      "name": "bondId",
      "outputs": [
        {
          "internalType": "uint256",
          "name": "",
          "type": "uint256"
        }
      ],
      "stateMutability": "view",
      "type": "function",
      "constant": true
    },
    {
      "inputs": [
        {
          "internalType": "uint256",
          "name": "",
          "type": "uint256"
        },
        {
          "internalType": "uint256",
          "name": "",
          "type": "uint256"
        }
      ],
      "name": "bondRatings",
      "outputs": [
        {
          "internalType": "bytes32",
          "name": "rating",
          "type": "bytes32"
        },
        {
          "internalType": "uint256",
          "name": "ratingDate",
          "type": "uint256"
        }
      ],
      "stateMutability": "view",
      "type": "function",
      "constant": true
    },
    {
      "inputs": [],
      "name": "bondToken",
      "outputs": [
        {
          "internalType": "contract BondToken",
          "name": "",
          "type": "address"
        }
      ],
      "stateMutability": "view",
      "type": "function",
      "constant": true
    },
    {
      "inputs": [
        {
          "internalType": "uint256",
          "name": "",
          "type": "uint256"
        },
        {
          "internalType": "uint256",
          "name": "",
          "type": "uint256"
        }
      ],
      "name": "bondTransactions",
      "outputs": [
        {
          "internalType": "address",
          "name": "from",
          "type": "address"
        },
        {
          "internalType": "address",
          "name": "to",
          "type": "address"
        },
        {
          "internalType": "uint256",
          "name": "transPrice",
          "type": "uint256"
        },
        {
          "internalType": "uint256",
          "name": "transDate",
          "type": "uint256"
        }
      ],
      "stateMutability": "view",
      "type": "function",
      "constant": true
    },
    {
      "inputs": [
        {
          "internalType": "uint256",
          "name": "",
          "type": "uint256"
        }
      ],
      "name": "bonds",
      "outputs": [
        {
          "internalType": "address",
          "name": "issuer",
          "type": "address"
        },
        {
          "internalType": "uint256",
          "name": "issueDate",
          "type": "uint256"
        },
        {
          "internalType": "bytes32",
          "name": "name",
          "type": "bytes32"
        },
        {
          "internalType": "uint256",
          "name": "salePrice",
          "type": "uint256"
        },
        {
          "internalType": "uint256",
          "name": "couponRate",
          "type": "uint256"
        },
        {
          "internalType": "uint256",
          "name": "couponInterval",
          "type": "uint256"
        },
        {
          "internalType": "uint256",
          "name": "maturityDate",
          "type": "uint256"
        },
        {
          "internalType": "uint256",
          "name": "faceValue",
          "type": "uint256"
        },
        {
          "internalType": "bool",
          "name": "forSale",
          "type": "bool"
        },
        {
          "internalType": "address",
          "name": "holder",
          "type": "address"
        }
      ],
      "stateMutability": "view",
      "type": "function",
      "constant": true
    },
    {
      "inputs": [],
      "name": "dai",
      "outputs": [
        {
          "internalType": "contract IERC20",
          "name": "",
          "type": "address"
        }
      ],
      "stateMutability": "view",
      "type": "function",
      "constant": true
    },
    {
      "inputs": [
        {
          "internalType": "bytes32",
          "name": "_name",
          "type": "bytes32"
        },
        {
          "internalType": "uint256",
          "name": "_salePrice",
          "type": "uint256"
        },
        {
          "internalType": "uint256",
          "name": "_couponRate",
          "type": "uint256"
        },
        {
          "internalType": "uint256",
          "name": "_couponInterval",
          "type": "uint256"
        },
        {
          "internalType": "uint256",
          "name": "_daysToMaturity",
          "type": "uint256"
        },
        {
          "internalType": "uint256",
          "name": "_faceValue",
          "type": "uint256"
        }
      ],
      "name": "issueBond",
      "outputs": [],
      "stateMutability": "nonpayable",
      "type": "function"
    },
    {
      "inputs": [
        {
          "internalType": "uint256",
          "name": "_bondId",
          "type": "uint256"
        }
      ],
      "name": "getBond",
      "outputs": [
        {
          "components": [
            {
              "internalType": "address",
              "name": "issuer",
              "type": "address"
            },
            {
              "internalType": "uint256",
              "name": "issueDate",
              "type": "uint256"
            },
            {
              "internalType": "bytes32",
              "name": "name",
              "type": "bytes32"
            },
            {
              "internalType": "uint256",
              "name": "salePrice",
              "type": "uint256"
            },
            {
              "internalType": "uint256",
              "name": "couponRate",
              "type": "uint256"
            },
            {
              "internalType": "uint256",
              "name": "couponInterval",
              "type": "uint256"
            },
            {
              "internalType": "uint256",
              "name": "maturityDate",
              "type": "uint256"
            },
            {
              "internalType": "uint256",
              "name": "faceValue",
              "type": "uint256"
            },
            {
              "internalType": "bool",
              "name": "forSale",
              "type": "bool"
            },
            {
              "internalType": "address",
              "name": "holder",
              "type": "address"
            }
          ],
          "internalType": "struct BondMarket.Bond",
          "name": "",
          "type": "tuple"
        }
      ],
      "stateMutability": "view",
      "type": "function",
      "constant": true
    },
    {
      "inputs": [],
      "name": "getBonds",
      "outputs": [
        {
          "components": [
            {
              "internalType": "address",
              "name": "issuer",
              "type": "address"
            },
            {
              "internalType": "uint256",
              "name": "issueDate",
              "type": "uint256"
            },
            {
              "internalType": "bytes32",
              "name": "name",
              "type": "bytes32"
            },
            {
              "internalType": "uint256",
              "name": "salePrice",
              "type": "uint256"
            },
            {
              "internalType": "uint256",
              "name": "couponRate",
              "type": "uint256"
            },
            {
              "internalType": "uint256",
              "name": "couponInterval",
              "type": "uint256"
            },
            {
              "internalType": "uint256",
              "name": "maturityDate",
              "type": "uint256"
            },
            {
              "internalType": "uint256",
              "name": "faceValue",
              "type": "uint256"
            },
            {
              "internalType": "bool",
              "name": "forSale",
              "type": "bool"
            },
            {
              "internalType": "address",
              "name": "holder",
              "type": "address"
            }
          ],
          "internalType": "struct BondMarket.Bond[]",
          "name": "",
          "type": "tuple[]"
        }
      ],
      "stateMutability": "view",
      "type": "function",
      "constant": true
    },
    {
      "inputs": [
        {
          "internalType": "uint256",
          "name": "_bondId",
          "type": "uint256"
        },
        {
          "internalType": "uint256",
          "name": "_salePrice",
          "type": "uint256"
        }
      ],
      "name": "offerBondForSale",
      "outputs": [],
      "stateMutability": "nonpayable",
      "type": "function"
    },
    {
      "inputs": [
        {
          "internalType": "uint256",
          "name": "_bondId",
          "type": "uint256"
        },
        {
          "internalType": "address",
          "name": "_buyer",
          "type": "address"
        },
        {
          "internalType": "uint256",
          "name": "_salePrice",
          "type": "uint256"
        }
      ],
      "name": "sellBond",
      "outputs": [],
      "stateMutability": "nonpayable",
      "type": "function"
    },
    {
      "inputs": [
        {
          "internalType": "uint256",
          "name": "_bondId",
          "type": "uint256"
        },
        {
          "internalType": "uint256",
          "name": "_salePrice",
          "type": "uint256"
        }
      ],
      "name": "buyBond",
      "outputs": [],
      "stateMutability": "nonpayable",
      "type": "function"
    },
    {
      "inputs": [
        {
          "internalType": "uint256",
          "name": "_bondId",
          "type": "uint256"
        }
      ],
      "name": "payCoupon",
      "outputs": [],
      "stateMutability": "payable",
      "type": "function",
      "payable": true
    },
    {
      "inputs": [
        {
          "internalType": "uint256",
          "name": "_bondId",
          "type": "uint256"
        }
      ],
      "name": "bondMatures",
      "outputs": [],
      "stateMutability": "payable",
      "type": "function",
      "payable": true
    },
    {
      "inputs": [
        {
          "internalType": "uint256",
          "name": "_bondId",
          "type": "uint256"
        },
        {
          "internalType": "bytes32",
          "name": "_toRating",
          "type": "bytes32"
        }
      ],
      "name": "changeRating",
      "outputs": [],
      "stateMutability": "nonpayable",
      "type": "function"
    },
    {
      "inputs": [
        {
          "internalType": "uint256",
          "name": "_bondId",
          "type": "uint256"
        },
        {
          "internalType": "uint256",
          "name": "_parentBondId",
          "type": "uint256"
        }
      ],
      "name": "bondHierarchy",
      "outputs": [],
      "stateMutability": "nonpayable",
      "type": "function"
    }
  ],
  "bytecode": "0x60806040523480156200001157600080fd5b50604051620039e5380380620039e58339818101604052810190620000379190620004b7565b336000806101000a81548173ffffffffffffffffffffffffffffffffffffffff021916908373ffffffffffffffffffffffffffffffffffffffff16021790555080600260006101000a81548173ffffffffffffffffffffffffffffffffffffffff021916908373ffffffffffffffffffffffffffffffffffffffff16021790555081600360006101000a81548173ffffffffffffffffffffffffffffffffffffffff021916908373ffffffffffffffffffffffffffffffffffffffff160217905550600460405180610140016040528060008054906101000a900473ffffffffffffffffffffffffffffffffffffffff1673ffffffffffffffffffffffffffffffffffffffff168152602001600081526020017f78787800000000000000000000000000000000000000000000000000000000008152602001600081526020016000815260200160008152602001600081526020016000815260200160001515815260200160008054906101000a900473ffffffffffffffffffffffffffffffffffffffff1673ffffffffffffffffffffffffffffffffffffffff16815250908060018154018082558091505060019003906000526020600020906009020160009091909190915060008201518160000160006101000a81548173ffffffffffffffffffffffffffffffffffffffff021916908373ffffffffffffffffffffffffffffffffffffffff1602179055506020820151816001015560408201518160020155606082015181600301556080820151816004015560a0820151816005015560c0820151816006015560e082015181600701556101008201518160080160006101000a81548160ff0219169083151502179055506101208201518160080160016101000a81548173ffffffffffffffffffffffffffffffffffffffff021916908373ffffffffffffffffffffffffffffffffffffffff1602179055505050600460008154811062000333577f4e487b7100000000000000000000000000000000000000000000000000000000600052603260045260246000fd5b9060005260206000209060090201600760008081526020019081526020016000206000820160009054906101000a900473ffffffffffffffffffffffffffffffffffffffff168160000160006101000a81548173ffffffffffffffffffffffffffffffffffffffff021916908373ffffffffffffffffffffffffffffffffffffffff160217905550600182015481600101556002820154816002015560038201548160030155600482015481600401556005820154816005015560068201548160060155600782015481600701556008820160009054906101000a900460ff168160080160006101000a81548160ff0219169083151502179055506008820160019054906101000a900473ffffffffffffffffffffffffffffffffffffffff168160080160016101000a81548173ffffffffffffffffffffffffffffffffffffffff021916908373ffffffffffffffffffffffffffffffffffffffff160217905550905050505062000546565b600081519050620004b1816200052c565b92915050565b60008060408385031215620004cb57600080fd5b6000620004db85828601620004a0565b9250506020620004ee85828601620004a0565b9150509250929050565b600062000505826200050c565b9050919050565b600073ffffffffffffffffffffffffffffffffffffffff82169050919050565b6200053781620004f8565b81146200054357600080fd5b50565b61348f80620005566000396000f3fe60806040526004361061011f5760003560e01c80639539e509116100a0578063d8fe764211610064578063d8fe764214610416578063f3b44fa214610453578063f4b9fa751461046f578063f851a4401461049a578063fcb0c1d5146104c55761011f565b80639539e509146103155780639a7f82f614610353578063b4efcf4a1461037c578063c28f4392146103c2578063c2ca269a146103ed5761011f565b80635f51da75116100e75780635f51da751461023c57806386a916831461027a5780638b140f6b146102a55780638ee1fa06146102d0578063932e2b86146102f95761011f565b8063225ceb1b146101245780634749155f1461014d5780634afe78421461018d57806355cef2d4146101b65780635f1c17c0146101f6575b600080fd5b34801561013057600080fd5b5061014b600480360381019061014691906128e7565b6104ee565b005b34801561015957600080fd5b50610174600480360381019061016f91906128e7565b61073e565b6040516101849493929190612e93565b60405180910390f35b34801561019957600080fd5b506101b460048036038101906101af919061285c565b6107cb565b005b3480156101c257600080fd5b506101dd60048036038101906101d8919061280a565b610ed9565b6040516101ed9493929190612e93565b60405180910390f35b34801561020257600080fd5b5061021d6004803603810190610218919061280a565b610f59565b6040516102339a99989796959493929190612f08565b60405180910390f35b34801561024857600080fd5b50610263600480360381019061025e91906128e7565b610ffa565b604051610271929190612fc6565b60405180910390f35b34801561028657600080fd5b5061028f61103b565b60405161029c9190613161565b60405180910390f35b3480156102b157600080fd5b506102ba611041565b6040516102c79190612fa4565b60405180910390f35b3480156102dc57600080fd5b506102f760048036038101906102f291906128e7565b6111ae565b005b610313600480360381019061030e919061280a565b6111b2565b005b34801561032157600080fd5b5061033c6004803603810190610337919061280a565b611536565b60405161034a929190612fc6565b60405180910390f35b34801561035f57600080fd5b5061037a600480360381019061037591906128ab565b61156a565b005b34801561038857600080fd5b506103a3600480360381019061039e919061280a565b61166c565b6040516103b99a99989796959493929190612f08565b60405180910390f35b3480156103ce57600080fd5b506103d761171d565b6040516103e49190612fef565b60405180910390f35b3480156103f957600080fd5b50610414600480360381019061040f91906128e7565b611743565b005b34801561042257600080fd5b5061043d6004803603810190610438919061280a565b611ccb565b60405161044a9190613145565b60405180910390f35b61046d6004803603810190610468919061280a565b611e06565b005b34801561047b57600080fd5b506104846121e4565b604051610491919061300a565b60405180910390f35b3480156104a657600080fd5b506104af61220a565b6040516104bc9190612e41565b60405180910390f35b3480156104d157600080fd5b506104ec60048036038101906104e79190612781565b61222e565b005b81600073ffffffffffffffffffffffffffffffffffffffff166007600083815260200190815260200160002060000160009054906101000a900473ffffffffffffffffffffffffffffffffffffffff1673ffffffffffffffffffffffffffffffffffffffff161415610595576040517f08c379a000000000000000000000000000000000000000000000000000000000815260040161058c906130a5565b60405180910390fd5b823373ffffffffffffffffffffffffffffffffffffffff166007600083815260200190815260200160002060080160019054906101000a900473ffffffffffffffffffffffffffffffffffffffff1673ffffffffffffffffffffffffffffffffffffffff161461063a576040517f08c379a000000000000000000000000000000000000000000000000000000000815260040161063190613025565b60405180910390fd5b82600760008681526020019081526020016000206003018190555060016007600086815260200190815260200160002060080160006101000a81548160ff02191690831515021790555082600485815481106106bf577f4e487b7100000000000000000000000000000000000000000000000000000000600052603260045260246000fd5b906000526020600020906009020160030181905550600160048581548110610710577f4e487b7100000000000000000000000000000000000000000000000000000000600052603260045260246000fd5b906000526020600020906009020160080160006101000a81548160ff02191690831515021790555050505050565b6008602052816000526040600020818154811061075a57600080fd5b9060005260206000209060040201600091509150508060000160009054906101000a900473ffffffffffffffffffffffffffffffffffffffff16908060010160009054906101000a900473ffffffffffffffffffffffffffffffffffffffff16908060020154908060030154905084565b82600073ffffffffffffffffffffffffffffffffffffffff166007600083815260200190815260200160002060000160009054906101000a900473ffffffffffffffffffffffffffffffffffffffff1673ffffffffffffffffffffffffffffffffffffffff161415610872576040517f08c379a0000000000000000000000000000000000000000000000000000000008152600401610869906130a5565b60405180910390fd5b833373ffffffffffffffffffffffffffffffffffffffff166007600083815260200190815260200160002060080160019054906101000a900473ffffffffffffffffffffffffffffffffffffffff1673ffffffffffffffffffffffffffffffffffffffff1614610917576040517f08c379a000000000000000000000000000000000000000000000000000000000815260040161090e90613025565b60405180910390fd5b600073ffffffffffffffffffffffffffffffffffffffff168473ffffffffffffffffffffffffffffffffffffffff161415610987576040517f08c379a000000000000000000000000000000000000000000000000000000000815260040161097e906130e5565b60405180910390fd5b3073ffffffffffffffffffffffffffffffffffffffff168473ffffffffffffffffffffffffffffffffffffffff1614156109f6576040517f08c379a00000000000000000000000000000000000000000000000000000000081526004016109ed90613125565b60405180910390fd5b600115156007600087815260200190815260200160002060080160009054906101000a900460ff16151514610a60576040517f08c379a0000000000000000000000000000000000000000000000000000000008152600401610a5790613105565b60405180910390fd5b82600760008781526020019081526020016000206003015414610ab8576040517f08c379a0000000000000000000000000000000000000000000000000000000008152600401610aaf906130c5565b60405180910390fd5b82600260009054906101000a900473ffffffffffffffffffffffffffffffffffffffff1673ffffffffffffffffffffffffffffffffffffffff166370a08231866040518263ffffffff1660e01b8152600401610b149190612e41565b60206040518083038186803b158015610b2c57600080fd5b505afa158015610b40573d6000803e3d6000fd5b505050506040513d601f19601f82011682018060405250810190610b649190612833565b1015610ba5576040517f08c379a0000000000000000000000000000000000000000000000000000000008152600401610b9c90613045565b60405180910390fd5b60006007600087815260200190815260200160002060080160019054906101000a900473ffffffffffffffffffffffffffffffffffffffff169050846007600088815260200190815260200160002060080160016101000a81548173ffffffffffffffffffffffffffffffffffffffff021916908373ffffffffffffffffffffffffffffffffffffffff16021790555060006007600088815260200190815260200160002060080160006101000a81548160ff0219169083151502179055508460048781548110610c9f577f4e487b7100000000000000000000000000000000000000000000000000000000600052603260045260246000fd5b906000526020600020906009020160080160016101000a81548173ffffffffffffffffffffffffffffffffffffffff021916908373ffffffffffffffffffffffffffffffffffffffff160217905550600060048781548110610d2a577f4e487b7100000000000000000000000000000000000000000000000000000000600052603260045260246000fd5b906000526020600020906009020160080160006101000a81548160ff021916908315150217905550600260009054906101000a900473ffffffffffffffffffffffffffffffffffffffff1673ffffffffffffffffffffffffffffffffffffffff166323b872dd8683876040518463ffffffff1660e01b8152600401610db193929190612e5c565b602060405180830381600087803b158015610dcb57600080fd5b505af1158015610ddf573d6000803e3d6000fd5b505050506040513d601f19601f82011682018060405250810190610e039190612758565b50600360009054906101000a900473ffffffffffffffffffffffffffffffffffffffff1673ffffffffffffffffffffffffffffffffffffffff166342842e0e8287896040518463ffffffff1660e01b8152600401610e6393929190612e5c565b600060405180830381600087803b158015610e7d57600080fd5b505af1158015610e91573d6000803e3d6000fd5b50505050857f1f93e3a7383b42dfb7e2022d74956ef3996cfcba31197ea67bfdb36661ebdf25828787604051610ec993929190612e5c565b60405180910390a2505050505050565b60058181548110610ee957600080fd5b90600052602060002090600402016000915090508060000160009054906101000a900473ffffffffffffffffffffffffffffffffffffffff16908060010160009054906101000a900473ffffffffffffffffffffffffffffffffffffffff16908060020154908060030154905084565b60076020528060005260406000206000915090508060000160009054906101000a900473ffffffffffffffffffffffffffffffffffffffff16908060010154908060020154908060030154908060040154908060050154908060060154908060070154908060080160009054906101000a900460ff16908060080160019054906101000a900473ffffffffffffffffffffffffffffffffffffffff1690508a565b6009602052816000526040600020818154811061101657600080fd5b9060005260206000209060020201600091509150508060000154908060010154905082565b60015481565b60606004805480602002602001604051908101604052809291908181526020016000905b828210156111a55783829060005260206000209060090201604051806101400160405290816000820160009054906101000a900473ffffffffffffffffffffffffffffffffffffffff1673ffffffffffffffffffffffffffffffffffffffff1673ffffffffffffffffffffffffffffffffffffffff168152602001600182015481526020016002820154815260200160038201548152602001600482015481526020016005820154815260200160068201548152602001600782015481526020016008820160009054906101000a900460ff161515151581526020016008820160019054906101000a900473ffffffffffffffffffffffffffffffffffffffff1673ffffffffffffffffffffffffffffffffffffffff1673ffffffffffffffffffffffffffffffffffffffff168152505081526020019060010190611065565b50505050905090565b5050565b80600073ffffffffffffffffffffffffffffffffffffffff166007600083815260200190815260200160002060000160009054906101000a900473ffffffffffffffffffffffffffffffffffffffff1673ffffffffffffffffffffffffffffffffffffffff161415611259576040517f08c379a0000000000000000000000000000000000000000000000000000000008152600401611250906130a5565b60405180910390fd5b813373ffffffffffffffffffffffffffffffffffffffff166007600083815260200190815260200160002060000160009054906101000a900473ffffffffffffffffffffffffffffffffffffffff1673ffffffffffffffffffffffffffffffffffffffff16146112fe576040517f08c379a00000000000000000000000000000000000000000000000000000000081526004016112f590613065565b60405180910390fd5b6000600760008581526020019081526020016000206007015460076000868152602001908152602001600020600401546113389190613296565b9050806007600086815260200190815260200160002060000160009054906101000a900473ffffffffffffffffffffffffffffffffffffffff1673ffffffffffffffffffffffffffffffffffffffff163110156113ca576040517f08c379a00000000000000000000000000000000000000000000000000000000081526004016113c190613085565b60405180910390fd5b60006007600086815260200190815260200160002060000160009054906101000a900473ffffffffffffffffffffffffffffffffffffffff16905060006007600087815260200190815260200160002060080160019054906101000a900473ffffffffffffffffffffffffffffffffffffffff169050600260009054906101000a900473ffffffffffffffffffffffffffffffffffffffff1673ffffffffffffffffffffffffffffffffffffffff166323b872dd8383866040518463ffffffff1660e01b815260040161149f93929190612e5c565b602060405180830381600087803b1580156114b957600080fd5b505af11580156114cd573d6000803e3d6000fd5b505050506040513d601f19601f820116820180604052508101906114f19190612758565b50857f2295e7904c57cdcc0be3e7d0e6fb948cb0cbd6bc95929d0291e25b002801cf9d83838660405161152693929190612e5c565b60405180910390a2505050505050565b6006818154811061154657600080fd5b90600052602060002090600202016000915090508060000154908060010154905082565b80600960008481526020019081526020016000206000815481106115b7577f4e487b7100000000000000000000000000000000000000000000000000000000600052603260045260246000fd5b9060005260206000209060020201600001819055504260096000848152602001908152602001600020600081548110611619577f4e487b7100000000000000000000000000000000000000000000000000000000600052603260045260246000fd5b906000526020600020906002020160010181905550817f52fe5439d3b868a855d87971a4f0b000f0cb10ab2453012aaeabd179b485934b8242604051611660929190612fc6565b60405180910390a25050565b6004818154811061167c57600080fd5b90600052602060002090600902016000915090508060000160009054906101000a900473ffffffffffffffffffffffffffffffffffffffff16908060010154908060020154908060030154908060040154908060050154908060060154908060070154908060080160009054906101000a900460ff16908060080160019054906101000a900473ffffffffffffffffffffffffffffffffffffffff1690508a565b600360009054906101000a900473ffffffffffffffffffffffffffffffffffffffff1681565b81600073ffffffffffffffffffffffffffffffffffffffff166007600083815260200190815260200160002060000160009054906101000a900473ffffffffffffffffffffffffffffffffffffffff1673ffffffffffffffffffffffffffffffffffffffff1614156117ea576040517f08c379a00000000000000000000000000000000000000000000000000000000081526004016117e1906130a5565b60405180910390fd5b600115156007600085815260200190815260200160002060080160009054906101000a900460ff16151514611854576040517f08c379a000000000000000000000000000000000000000000000000000000000815260040161184b90613105565b60405180910390fd5b816007600085815260200190815260200160002060030154146118ac576040517f08c379a00000000000000000000000000000000000000000000000000000000081526004016118a3906130c5565b60405180910390fd5b81600260009054906101000a900473ffffffffffffffffffffffffffffffffffffffff1673ffffffffffffffffffffffffffffffffffffffff166370a08231336040518263ffffffff1660e01b81526004016119089190612e41565b60206040518083038186803b15801561192057600080fd5b505afa158015611934573d6000803e3d6000fd5b505050506040513d601f19601f820116820180604052508101906119589190612833565b1015611999576040517f08c379a000000000000000000000000000000000000000000000000000000000815260040161199090613045565b60405180910390fd5b60006007600085815260200190815260200160002060080160019054906101000a900473ffffffffffffffffffffffffffffffffffffffff169050336007600086815260200190815260200160002060080160016101000a81548173ffffffffffffffffffffffffffffffffffffffff021916908373ffffffffffffffffffffffffffffffffffffffff16021790555060006007600086815260200190815260200160002060080160006101000a81548160ff0219169083151502179055503360048581548110611a93577f4e487b7100000000000000000000000000000000000000000000000000000000600052603260045260246000fd5b906000526020600020906009020160080160016101000a81548173ffffffffffffffffffffffffffffffffffffffff021916908373ffffffffffffffffffffffffffffffffffffffff160217905550600060048581548110611b1e577f4e487b7100000000000000000000000000000000000000000000000000000000600052603260045260246000fd5b906000526020600020906009020160080160006101000a81548160ff021916908315150217905550600260009054906101000a900473ffffffffffffffffffffffffffffffffffffffff1673ffffffffffffffffffffffffffffffffffffffff166323b872dd3383866040518463ffffffff1660e01b8152600401611ba593929190612e5c565b602060405180830381600087803b158015611bbf57600080fd5b505af1158015611bd3573d6000803e3d6000fd5b505050506040513d601f19601f82011682018060405250810190611bf79190612758565b50600360009054906101000a900473ffffffffffffffffffffffffffffffffffffffff1673ffffffffffffffffffffffffffffffffffffffff166342842e0e8233876040518463ffffffff1660e01b8152600401611c5793929190612e5c565b600060405180830381600087803b158015611c7157600080fd5b505af1158015611c85573d6000803e3d6000fd5b50505050837f1f93e3a7383b42dfb7e2022d74956ef3996cfcba31197ea67bfdb36661ebdf25823386604051611cbd93929190612e5c565b60405180910390a250505050565b611cd361266b565b60076000838152602001908152602001600020604051806101400160405290816000820160009054906101000a900473ffffffffffffffffffffffffffffffffffffffff1673ffffffffffffffffffffffffffffffffffffffff1673ffffffffffffffffffffffffffffffffffffffff168152602001600182015481526020016002820154815260200160038201548152602001600482015481526020016005820154815260200160068201548152602001600782015481526020016008820160009054906101000a900460ff161515151581526020016008820160019054906101000a900473ffffffffffffffffffffffffffffffffffffffff1673ffffffffffffffffffffffffffffffffffffffff1673ffffffffffffffffffffffffffffffffffffffff16815250509050919050565b803373ffffffffffffffffffffffffffffffffffffffff166007600083815260200190815260200160002060000160009054906101000a900473ffffffffffffffffffffffffffffffffffffffff1673ffffffffffffffffffffffffffffffffffffffff1614611eab576040517f08c379a0000000000000000000000000000000000000000000000000000000008152600401611ea290613065565b60405180910390fd5b60006007600084815260200190815260200160002060070154905060006007600085815260200190815260200160002060060154905060006007600086815260200190815260200160002060000160009054906101000a900473ffffffffffffffffffffffffffffffffffffffff16905060006007600087815260200190815260200160002060080160019054906101000a900473ffffffffffffffffffffffffffffffffffffffff169050600260009054906101000a900473ffffffffffffffffffffffffffffffffffffffff1673ffffffffffffffffffffffffffffffffffffffff166323b872dd8383876040518463ffffffff1660e01b8152600401611fb693929190612e5c565b602060405180830381600087803b158015611fd057600080fd5b505af1158015611fe4573d6000803e3d6000fd5b505050506040513d601f19601f820116820180604052508101906120089190612758565b5060076000878152602001908152602001600020600080820160006101000a81549073ffffffffffffffffffffffffffffffffffffffff021916905560018201600090556002820160009055600382016000905560048201600090556005820160009055600682016000905560078201600090556008820160006101000a81549060ff02191690556008820160016101000a81549073ffffffffffffffffffffffffffffffffffffffff02191690555050600486815481106120f3577f4e487b7100000000000000000000000000000000000000000000000000000000600052603260045260246000fd5b9060005260206000209060090201600080820160006101000a81549073ffffffffffffffffffffffffffffffffffffffff021916905560018201600090556002820160009055600382016000905560048201600090556005820160009055600682016000905560078201600090556008820160006101000a81549060ff02191690556008820160016101000a81549073ffffffffffffffffffffffffffffffffffffffff02191690555050857f85366378f344a1db1f3b96410c30ca67972437de0015128bfebab23081c8d3d1838386886040516121d49493929190612e93565b60405180910390a2505050505050565b600260009054906101000a900473ffffffffffffffffffffffffffffffffffffffff1681565b60008054906101000a900473ffffffffffffffffffffffffffffffffffffffff1681565b60006040518060400160405280600f81526020017f746f6b656e555249202d204950465300000000000000000000000000000000008152509050600360009054906101000a900473ffffffffffffffffffffffffffffffffffffffff1673ffffffffffffffffffffffffffffffffffffffff1663d0def52133836040518363ffffffff1660e01b81526004016122c5929190612ed8565b602060405180830381600087803b1580156122df57600080fd5b505af11580156122f3573d6000803e3d6000fd5b505050506040513d601f19601f820116820180604052508101906123179190612833565b6001819055506000620151808461232e9190613296565b426123399190613240565b905060006040518061014001604052803373ffffffffffffffffffffffffffffffffffffffff1681526020014281526020018a81526020018981526020018881526020018781526020018381526020018581526020016001151581526020013373ffffffffffffffffffffffffffffffffffffffff1681525090508060076000600154815260200190815260200160002060008201518160000160006101000a81548173ffffffffffffffffffffffffffffffffffffffff021916908373ffffffffffffffffffffffffffffffffffffffff1602179055506020820151816001015560408201518160020155606082015181600301556080820151816004015560a0820151816005015560c0820151816006015560e082015181600701556101008201518160080160006101000a81548160ff0219169083151502179055506101208201518160080160016101000a81548173ffffffffffffffffffffffffffffffffffffffff021916908373ffffffffffffffffffffffffffffffffffffffff160217905550905050600481908060018154018082558091505060019003906000526020600020906009020160009091909190915060008201518160000160006101000a81548173ffffffffffffffffffffffffffffffffffffffff021916908373ffffffffffffffffffffffffffffffffffffffff1602179055506020820151816001015560408201518160020155606082015181600301556080820151816004015560a0820151816005015560c0820151816006015560e082015181600701556101008201518160080160006101000a81548160ff0219169083151502179055506101208201518160080160016101000a81548173ffffffffffffffffffffffffffffffffffffffff021916908373ffffffffffffffffffffffffffffffffffffffff16021790555050506001543373ffffffffffffffffffffffffffffffffffffffff167feaf4f2be92b4b1b6ef8ef190bea25f59b9ba33f493358387c25a44f2ac975dbf83602001518460400151856060015186608001518760a001518860c001518960e00151604051612658979695949392919061317c565b60405180910390a3505050505050505050565b604051806101400160405280600073ffffffffffffffffffffffffffffffffffffffff16815260200160008152602001600080191681526020016000815260200160008152602001600081526020016000815260200160008152602001600015158152602001600073ffffffffffffffffffffffffffffffffffffffff1681525090565b6000813590506126fe816133fd565b92915050565b60008151905061271381613414565b92915050565b6000813590506127288161342b565b92915050565b60008135905061273d81613442565b92915050565b60008151905061275281613442565b92915050565b60006020828403121561276a57600080fd5b600061277884828501612704565b91505092915050565b60008060008060008060c0878903121561279a57600080fd5b60006127a889828a01612719565b96505060206127b989828a0161272e565b95505060406127ca89828a0161272e565b94505060606127db89828a0161272e565b93505060806127ec89828a0161272e565b92505060a06127fd89828a0161272e565b9150509295509295509295565b60006020828403121561281c57600080fd5b600061282a8482850161272e565b91505092915050565b60006020828403121561284557600080fd5b600061285384828501612743565b91505092915050565b60008060006060848603121561287157600080fd5b600061287f8682870161272e565b9350506020612890868287016126ef565b92505060406128a18682870161272e565b9150509250925092565b600080604083850312156128be57600080fd5b60006128cc8582860161272e565b92505060206128dd85828601612719565b9150509250929050565b600080604083850312156128fa57600080fd5b60006129088582860161272e565b92505060206129198582860161272e565b9150509250929050565b600061292f8383612c8b565b6101408301905092915050565b612945816132f0565b82525050565b612954816132f0565b82525050565b6000612965826131fb565b61296f818561321e565b935061297a836131eb565b8060005b838110156129ab5781516129928882612923565b975061299d83613211565b92505060018101905061297e565b5085935050505092915050565b6129c181613302565b82525050565b6129d081613302565b82525050565b6129df8161330e565b82525050565b6129ee8161330e565b82525050565b6129fd81613342565b82525050565b612a0c81613366565b82525050565b6000612a1d82613206565b612a27818561322f565b9350612a3781856020860161338a565b612a40816133ec565b840191505092915050565b6000612a58600f8361322f565b91507f4e6f7420426f6e6420686f6c64657200000000000000000000000000000000006000830152602082019050919050565b6000612a98601e8361322f565b91507f496e73756666696369656e742066756e647320746f2062757920426f6e6400006000830152602082019050919050565b6000612ad8600f8361322f565b91507f4e6f7420426f6e642069737375657200000000000000000000000000000000006000830152602082019050919050565b6000612b1860208361322f565b91507f496e73756666696369656e742066756e647320746f2070617920636f75706f6e6000830152602082019050919050565b6000612b5860138361322f565b91507f426f6e6420646f6573206e6f74206578697374000000000000000000000000006000830152602082019050919050565b6000612b9860148361322f565b91507f496e636f72726563742053616c652050726963650000000000000000000000006000830152602082019050919050565b6000612bd860198361322f565b91507f6275796572206973207468652061646472657373207a65726f000000000000006000830152602082019050919050565b6000612c1860148361322f565b91507f426f6e64206973206e6f7420666f722073616c650000000000000000000000006000830152602082019050919050565b6000612c5860118361322f565b91507f627579657220697320636f6e74726163740000000000000000000000000000006000830152602082019050919050565b61014082016000820151612ca2600085018261293c565b506020820151612cb56020850182612e23565b506040820151612cc860408501826129d6565b506060820151612cdb6060850182612e23565b506080820151612cee6080850182612e23565b5060a0820151612d0160a0850182612e23565b5060c0820151612d1460c0850182612e23565b5060e0820151612d2760e0850182612e23565b50610100820151612d3c6101008501826129b8565b50610120820151612d5161012085018261293c565b50505050565b61014082016000820151612d6e600085018261293c565b506020820151612d816020850182612e23565b506040820151612d9460408501826129d6565b506060820151612da76060850182612e23565b506080820151612dba6080850182612e23565b5060a0820151612dcd60a0850182612e23565b5060c0820151612de060c0850182612e23565b5060e0820151612df360e0850182612e23565b50610100820151612e086101008501826129b8565b50610120820151612e1d61012085018261293c565b50505050565b612e2c81613338565b82525050565b612e3b81613338565b82525050565b6000602082019050612e56600083018461294b565b92915050565b6000606082019050612e71600083018661294b565b612e7e602083018561294b565b612e8b6040830184612e32565b949350505050565b6000608082019050612ea8600083018761294b565b612eb5602083018661294b565b612ec26040830185612e32565b612ecf6060830184612e32565b95945050505050565b6000604082019050612eed600083018561294b565b8181036020830152612eff8184612a12565b90509392505050565b600061014082019050612f1e600083018d61294b565b612f2b602083018c612e32565b612f38604083018b6129e5565b612f45606083018a612e32565b612f526080830189612e32565b612f5f60a0830188612e32565b612f6c60c0830187612e32565b612f7960e0830186612e32565b612f876101008301856129c7565b612f9561012083018461294b565b9b9a5050505050505050505050565b60006020820190508181036000830152612fbe818461295a565b905092915050565b6000604082019050612fdb60008301856129e5565b612fe86020830184612e32565b9392505050565b600060208201905061300460008301846129f4565b92915050565b600060208201905061301f6000830184612a03565b92915050565b6000602082019050818103600083015261303e81612a4b565b9050919050565b6000602082019050818103600083015261305e81612a8b565b9050919050565b6000602082019050818103600083015261307e81612acb565b9050919050565b6000602082019050818103600083015261309e81612b0b565b9050919050565b600060208201905081810360008301526130be81612b4b565b9050919050565b600060208201905081810360008301526130de81612b8b565b9050919050565b600060208201905081810360008301526130fe81612bcb565b9050919050565b6000602082019050818103600083015261311e81612c0b565b9050919050565b6000602082019050818103600083015261313e81612c4b565b9050919050565b60006101408201905061315b6000830184612d57565b92915050565b60006020820190506131766000830184612e32565b92915050565b600060e082019050613191600083018a612e32565b61319e60208301896129e5565b6131ab6040830188612e32565b6131b86060830187612e32565b6131c56080830186612e32565b6131d260a0830185612e32565b6131df60c0830184612e32565b98975050505050505050565b6000819050602082019050919050565b600081519050919050565b600081519050919050565b6000602082019050919050565b600082825260208201905092915050565b600082825260208201905092915050565b600061324b82613338565b915061325683613338565b9250827fffffffffffffffffffffffffffffffffffffffffffffffffffffffffffffffff0382111561328b5761328a6133bd565b5b828201905092915050565b60006132a182613338565b91506132ac83613338565b9250817fffffffffffffffffffffffffffffffffffffffffffffffffffffffffffffffff04831182151516156132e5576132e46133bd565b5b828202905092915050565b60006132fb82613318565b9050919050565b60008115159050919050565b6000819050919050565b600073ffffffffffffffffffffffffffffffffffffffff82169050919050565b6000819050919050565b600061334d82613354565b9050919050565b600061335f82613318565b9050919050565b600061337182613378565b9050919050565b600061338382613318565b9050919050565b60005b838110156133a857808201518184015260208101905061338d565b838111156133b7576000848401525b50505050565b7f4e487b7100000000000000000000000000000000000000000000000000000000600052601160045260246000fd5b6000601f19601f8301169050919050565b613406816132f0565b811461341157600080fd5b50565b61341d81613302565b811461342857600080fd5b50565b6134348161330e565b811461343f57600080fd5b50565b61344b81613338565b811461345657600080fd5b5056fea2646970667358221220649caed22f2d0adda0b5e4b45a6f1d079782323517931feaaae2966900f0623864736f6c63430008000033",
  "immutableReferences": {},
  "source": "// SPDX-License-Identifier: MIT\npragma solidity 0.8.0;\n\nimport '@openzeppelin/contracts/token/ERC20/IERC20.sol';\nimport './BondToken.sol';\n\n// @author Simon Roope\n// @title  Fixed Income Bond NFT market place.\n// @notice The contract used to issue, trade, make coupon and maturity payments of Fixed Income Bonds.\n\ncontract BondMarket {\n \n  address public admin;\n  uint public bondId;\n \n  IERC20 public dai;           // @dev TODO: extend to use multiple currencies.\n  BondToken public bondToken;  // each bond has unique tokenId.\n\n  Bond[] public allBonds; \n  BondTransaction[] public allBondTransactions;\n  BondRating[] public allBondRatings;\n\n  mapping(uint => Bond) public bonds;                            // bondId => Bond\n  mapping(uint => BondTransaction[]) public bondTransactions;    // bondId => BondTransaction \n  mapping(uint => BondRating[]) public bondRatings;              // bondId => BondRating\n\n  struct Bond {\n    address issuer;      // issuer of bond, who pays coupons and face value on maturity.\n    uint issueDate;\n    bytes32 name;\n    uint salePrice;      // price at which the bond issuer originally sells the bond.\n    uint couponRate;     // rate of interest the bond issuer will pay on the face value of the bond, expressed as %.\n    uint couponInterval; // interval between coupon payments, i.e. dates issuer will make interest payments. Biannually\n    uint maturityDate;   // date bond will mature and the bond issuer will pay the bondholder the face value of the bond.\n    uint faceValue;      // value of bond at maturity, stated when issued and paid by issuer to current bondholder on maturity.  \n    bool forSale;        // is bond for sale.\n    address holder;      // current holder of bond and recipient of coupon.\n  }\n\n  struct BondTransaction {\n    address from;\n    address to;\n    uint transPrice;\n    uint transDate;\n  }\n\n  struct BondRating {\n    bytes32 rating;\n    uint ratingDate;\n  }\n\n  event BondIssued(address indexed issuer, uint indexed bondId, uint issueDate, bytes32 _name, uint issuePrice,\n                   uint couponRate, uint couponInterval, uint maturityDate, uint faceValue );\n  event BondSold (uint indexed bondId, address from, address to, uint salePrice );\n  event CouponPaid ( uint indexed bondId, address from, address to, uint couponAmount );\n  event BondMatured ( uint indexed bondId, address from, address to, uint maturityDate, uint faceValue );\n  event RatingChanged( uint indexed bondId, bytes32 toRating, uint ratingDate );\n\n  modifier isIssuer (uint _bondId ) {\n    require (bonds[_bondId].issuer == msg.sender, 'Not Bond issuer');\n    _;\n  }\n\n  modifier isHolder (uint _bondId ) {\n    require (bonds[_bondId].holder == msg.sender, 'Not Bond holder');\n    _;\n  }\n\n  modifier bondExists (uint _bondId ) {\n    require (bonds[_bondId].issuer != address(0), 'Bond does not exist');\n    _;\n  }\n\n  modifier checkPayment( uint256 _amount) {\n    require(dai.allowance(msg.sender, address(this)) >= _amount, \"allowance missing for token transfer\");\n    require(dai.balanceOf(msg.sender) >= _amount, \"not enough token balance\");\n    _;\n  }\n\n\n  constructor ( address _bondTokenAddress, address _daiAddress ) {\n\n    admin = msg.sender;\n\n    dai = IERC20(_daiAddress);\n    bondToken = BondToken(_bondTokenAddress); \n\n    allBonds.push(Bond({issuer:admin, issueDate:0, name:'xxx', salePrice:0, couponRate:0, couponInterval:0,\n                        maturityDate:0, faceValue:0, forSale:false, holder:admin}));\n    bonds[0] = allBonds[0];\n\n  }\n\n  function issueBond ( bytes32 _name,\n                       uint _salePrice,\n                       uint _couponRate,\n                       uint _couponInterval,\n                       uint _daysToMaturity,\n                       uint _faceValue ) public {\n\n    // @notice Mint Bond NFT to Issuer\n    // @dev TODO: Create metadata tokenURI for upload to IPFS. Metadata is owner's certificate of ownership.  \n\n    string memory bondCertificate = 'tokenURI - IPFS';\n    bondId = bondToken.mint(msg.sender, bondCertificate);\n\n    uint maturityDate = block.timestamp + (_daysToMaturity * 1 days);\n\n    Bond memory newBond = Bond(msg.sender, block.timestamp, _name,\n                               _salePrice, _couponRate, _couponInterval, maturityDate,\n                               _faceValue, true, msg.sender); \n\n    bonds[bondId] = newBond;\n    allBonds.push(newBond);\n\n    // @dev TODO: Bond Rating\n\n    emit BondIssued ( msg.sender, bondId, newBond.issueDate, newBond.name, newBond.salePrice, \n                      newBond.couponRate, newBond.couponInterval, newBond.maturityDate, newBond.faceValue );\n\n  }\n\n  \n  function getBond(uint _bondId) public view returns ( Bond memory ) {\n    return bonds[_bondId];\n\n    // @dev or returns (address issuer) return(bonds[bondId].issuer);\n    // @dev or returns (address issuer) Bond storage bnd = bonds[bondId]; issuer = bnd.issuer; return issuer;\n    // @dev or returns (Bond memory) return bonds[_bondId];\n  }\n\n\n  function getBonds() public view returns ( Bond[] memory ) {\n    return allBonds; \n  }\n\n\n  function offerBondForSale ( uint _bondId, uint _salePrice ) public bondExists(_bondId) isHolder(_bondId) {\n\n    // @dev TODO: grant approval for token transfer to this contract.\n\n    bonds[_bondId].salePrice = _salePrice;\n    bonds[_bondId].forSale = true;\n\n    allBonds[_bondId].salePrice = _salePrice;\n    allBonds[_bondId].forSale = true;\n\n  }\n\n\n  function sellBond ( uint _bondId, address _buyer, uint _salePrice ) public bondExists(_bondId) isHolder(_bondId) {\n  \n    // @notice First and all subsequent sales.\n    // @dev Sale price, in ETH, set by current owner. \n    // TODO: Multiple currencies and transactions on Exchange. AMM\n\n    require(_buyer != address(0), 'buyer is the address zero');\n    require(_buyer != address(this),'buyer is contract');\n\n    //require(btk.isApprovedForAll( bonds[_bondId].holder, address(this), 'ERC721: transfer caller is not owner nor approved' );  \n    require (bonds[_bondId].forSale == true, 'Bond is not for sale');\n    require(bonds[_bondId].salePrice == _salePrice, 'Incorrect Sale Price');\n    require(dai.balanceOf(_buyer) >= _salePrice, 'Insufficient funds to buy Bond');\n    \n    address seller = bonds[_bondId].holder;\n    bonds[_bondId].holder = _buyer;\n    bonds[_bondId].forSale = false;\n\n    allBonds[_bondId].holder = _buyer;\n    allBonds[_bondId].forSale = false;\n\n    dai.transferFrom(_buyer, seller, _salePrice);    \n\n    // NFT ownership. TODO: delegatecall for approval when minted\n    bondToken.safeTransferFrom(seller, _buyer, _bondId);\n\n    emit BondSold(_bondId, seller, _buyer, _salePrice);   // bondId, from, to, price\n  }\n\n\n  function buyBond ( uint _bondId, uint _salePrice ) public bondExists(_bondId) {\n\n    require (bonds[_bondId].forSale == true, 'Bond is not for sale');\n    require(bonds[_bondId].salePrice == _salePrice, 'Incorrect Sale Price');\n    require(dai.balanceOf(msg.sender) >= _salePrice, 'Insufficient funds to buy Bond');\n\n    address seller = bonds[_bondId].holder;\n    bonds[_bondId].holder = msg.sender;\n    bonds[_bondId].forSale = false;\n\n    allBonds[_bondId].holder = msg.sender;\n    allBonds[_bondId].forSale = false;\n\n    dai.transferFrom(msg.sender, seller, _salePrice);   \n\n    // NFT ownership. TODO: delegatecall for approval of token transfer when minted\n    bondToken.safeTransferFrom(seller, msg.sender, _bondId);\n\n    emit BondSold(_bondId, seller, msg.sender, _salePrice);   // bondId, from, to, price\n  }\n\n\n  function payCoupon ( uint _bondId ) public payable bondExists(_bondId) isIssuer(_bondId) {\n\n    // Calculate coupon amount\n    uint couponAmount = bonds[_bondId].couponRate * bonds[_bondId].faceValue;\n\n    // Owner has sufficient funds or bond defaults.\n    require(bonds[_bondId].issuer.balance >= couponAmount,'Insufficient funds to pay coupon');\n\n    // TODO: Issuer defaults and no payment is made.\n\n    // Pay Coupon.\n    address issuer = bonds[_bondId].issuer;\n    address holder = bonds[_bondId].holder;\n    dai.transferFrom(issuer, holder, couponAmount);\n\n    emit CouponPaid ( _bondId, issuer, holder, couponAmount );   // from, to\n  }\n\n\n  function bondMatures ( uint _bondId ) public payable isIssuer(_bondId) {\n\n    // TODO: Link to scheduler e.g. Chainlink \n\n    uint maturityAmount = bonds[_bondId].faceValue;\n    uint maturityDate = bonds[_bondId].maturityDate;\n\n    address issuer = bonds[_bondId].issuer;\n    address holder = bonds[_bondId].holder;\n\n    // Approve first\n    dai.transferFrom(issuer, holder, maturityAmount);\n\n    // _burn token TODO: tbc if NFT is soft delete or burnt. \n    delete bonds[_bondId];\n    delete allBonds[_bondId];  // or allBonds.splice(bondId,1);\n\n    emit BondMatured ( _bondId, issuer, holder, maturityDate, maturityAmount ); \n  }\n\n\n  function changeRating ( uint _bondId, bytes32 _toRating ) public {\n  \n    bondRatings[_bondId][0].rating = _toRating;\n    bondRatings[_bondId][0].ratingDate = block.timestamp;\n\n    emit RatingChanged( _bondId, _toRating, block.timestamp );\n  }   \n\n\n  function bondHierarchy ( uint _bondId, uint _parentBondId ) public {\n    // TODO: Create bond hierarchy for collaterialised debt.\n  }\n\n}\n",
  "sourcePath": "/Users/simonroope/Documents/scr/blockchain/consensys/projectFinal/bondv12/contracts/BondMarket.sol",
  "compiler": {
    "name": "solc",
    "version": "0.8.0+commit.c7dfd78e.Emscripten.clang"
  },
  "schemaVersion": "3.4.3",
  "updatedAt": "2021-12-15T22:09:57.482Z",
  "networkType": "ethereum",
  "devdoc": {
    "kind": "dev",
    "methods": {},
    "version": 1
  },
  "userdoc": {
    "kind": "user",
    "methods": {},
    "version": 1
  }
}